:020000040800F2
:1000000044250020591C0008C11C0008C11C000820
:10001000C11C0008C11C0008C11C00080000000031
:10002000000000000000000000000000C11C0008EB
:10003000C11C000800000000C11C0008C11C000811
:10004000C11C0008C11C0008C11C0008C11C00081C
:10005000C11C0008C11C0008854A0008C11C00081A
:10006000C11C0008C11C0008C11C0008C11C0008FC
:10007000C11C0008C11C0008C11C0008C11C0008EC
:10008000C11C0008C11C0008C11C0008C11C0008DC
:10009000C11C0008C11C0008C11C0008C11C0008CC
:1000A000C11C0008C11C0008C11C0008C11C0008BC
:1000B0005D4C0008B14B0008C11C0008C11C0008C1
:1000C000C11C0008C11C0008C11C0008C11C00089C
:1000D000C11C000891250008A1410008C11C0008AE
:1000E000C11C0008C11C0008C11C0008C11C00087C
:1000F000C11C0008C11C0008C11C0008C11C00086C
:10010000C11C0008C11C0008C11C0008C11C00085B
:10011000C11C0008C11C0008F5130008C11C000820
:10012000C11C0008C11C0008C11C0008C11C00083B
:100130005FF808F180B485B000AF78607B681A6A18
:100140007B681B6A7968CB5CD31803F10103FB6001
:10015000FB681F2B03DDFB68A3F12003FB607B68BA
:10016000FA681A6207F11407BD4680BC704700BFE9
:1001700080B483B000AF786039607B681B6A7A68AE
:10018000D35C002B02D14FF0010323E07B685A6A55
:100190007B681B6A9A420EDB7B685B6AC3F12002B4
:1001A0007B681B6AD31803F1FF323B689A420FDD6C
:1001B0004FF001030EE07B681A6A7B685B6AD31A12
:1001C00003F1FF323B689A4202DD4FF0010301E088
:1001D0004FF00003184607F10C07BD4680BC70477E
:1001E00080B586B000AFF860B9607A607B681E2B7E
:1001F00004DD6AE0F868FFF79DFF00E000BFF868E3
:100200007968FFF7B5FF0346002BF3D0FB681B6A44
:10021000FA68D35C002B05D1FB681B6A7A68D1B2FF
:10022000FA68D154FB685B6AC3F11F027B689A428B
:100230000CDDFA68FB685B6A03F10103D2187B6886
:100240001046B9681A4605F001FB1CE0FB685B6AC2
:10025000C3F11F037B61FA68FB685B6A03F101036A
:10026000D2187B691046B9681A4605F0EFFAF968AA
:100270007B69BA68D21878687B69C31A0846114648
:100280001A4605F0E3FAFB685B6A7A68D1B2FA684D
:10029000D154FB685A6A7B68D31803F10102FB68EA
:1002A0005A62FB685B6A1F2B05DDFB685B6AA3F182
:1002B0002002FB685A62FB685B6AFA684FF0000133
:1002C000D154FB684FF000029A6207F11807BD464F
:1002D00080BD00BF80B58CB000AFF860B9607A60B7
:1002E0004FF00003FB62FB681B6ABB6213E0FA6815
:1002F000BB6AD3181B7803F10103BA6AD318BB6237
:10030000BB6A1F2B03DDBB6AA3F12003BB62FB6A40
:1003100003F10103FB62FA68BB6AD3181B78002B58
:10032000E5D17B68002B78D1FB689A6AFB6A9A4218
:1003300000F3E180FB681B6A7B624FF000033B62C5
:1003400013E0FA687B6AD3181B7803F101037A6A19
:10035000D3187B627B6A1F2B03DD7B6AA3F120032A
:100360007B623B6A03F101033B62FA687B6AD31844
:100370001B78002B08D0FA6A3B6AD31A03F1FF32CC
:10038000FB689B6A9A42DCD1FA687B6AD3181B78B7
:10039000002B00F0B080FB689B6A03F10102FB6850
:1003A0009A62FA687B6AD3181B781A467B6AD3185C
:1003B0001F2B0EDCFA687B6A03F10103D218F9687F
:1003C0007B6ACB181B78B86811461A4605F03EFACE
:1003D0001EE07B6AC3F11F037B61FA687B6A03F14D
:1003E0000103D2187B69B86811461A4605F02EFA47
:1003F0007B69BA68D118FA68F8687B6AC3181B78F9
:1004000018467B69C31A084611461A4605F01EFABB
:10041000FA687B6AD3181B786FE0FB689B6A002B35
:1004200069DDFB689B6A03F1FF32FB689A62FB6837
:100430001B6AFB614FF00003BB6113E0FA68FB69C4
:10044000D3181B7803F10103FA69D318FB61FB6928
:100450001F2B03DDFB69A3F12003FB61BB6903F1E3
:100460000103BB61FA68FB69D3181B78002B06D027
:10047000FA6ABB69D21AFB689B6A9A42DED1FA68B3
:10048000FB69D3181B781A46FB69D3181F2B0EDCA7
:10049000FA68FB6903F10103D218F968FB69CB180C
:1004A0001B78B86811461A4605F0D0F91EE0FB69C2
:1004B000C3F11F033B61FA68FB6903F10103D21822
:1004C0003B69B86811461A4605F0C0F93B69BA683D
:1004D000D118FA68F868FB69C3181B7818463B699D
:1004E000C31A084611461A4605F0B0F9FA68FB69C6
:1004F000D3181B7801E04FF00003184607F13007CE
:10050000BD4680BD80B485B000AF786039604FF0E3
:100510000003FB604FF00003BB6003E0BB6803F126
:100520000103BB607A68BB68D31803F130031B7802
:10053000002B03D1BA683B689A42EFDBBA683B688C
:100540009A4201DBFB682EE07B6803F13002BB6856
:10055000D1187B68FA6802F1280243F82210FB6880
:1005600003F10103FB60FB68072B07DD4FF0FF334E
:1005700019E0BB6803F10103BB6000E000BF7A68CB
:10058000BB68D31803F130031B78002B03D0BA6883
:100590003B689A42EDDBBA683B689A4201DBFB6834
:1005A00001E000BFBEE7184607F11407BD4680BC56
:1005B000704700BF80B582B000AF78607B68D3F829
:1005C000C8307A68D26A1046984707F10807BD46D6
:1005D00080BD00BF80B582B000AF78607B68D3F883
:1005E000C8300348984707F10807BD4680BD00BFE3
:1005F000C06A000880B582B000AF78607B68D3F82D
:10060000C8300348984707F10807BD4680BD00BFC2
:10061000C86A000880B586B000AF7860396007F11D
:1006200008034FF000021A6003F104034FF00002C8
:100630001A6003F104034FF000021A6003F104038F
:100640004FF000021A6003F104033B68002B09DD40
:1006500007F1080318464FF010010F4A3B6802F0FB
:10066000CBFE0DE03B68002B0ADA3B68C3F10003C8
:1006700007F1080210464FF01001084A02F0BCFED4
:100680007B68D3F8C83007F108021046984707F195
:100690001807BD4680BD00BFCC6A0008D46A0008B8
:1006A00080B588B002AF786007F108034FF0070209
:1006B000009218464FF01001074A4FF06E0302F007
:1006C0009BFE7B68D3F8C83007F1080210469847B4
:1006D00007F11807BD4680BDDC6A000880B586B00A
:1006E00000AFF860B9607A60FB68D3F8C8301A4888
:1006F00098474FF000033B744FF000037B74BB68D6
:100700007B6117E0FA687B69D31803F130031B782B
:100710003B743B7C002B02D14FF020033B74FB6801
:10072000D3F8C83007F11002104698477B6903F1EF
:1007300001037B61FB68D3F898207B699A42E1DC76
:10074000F868FFF7ADFFF8687968FFF763FF07F116
:100750001807BD4680BD00BFE86A000880B582B0BA
:1007600000AF786039607B6803F1300318464FF0C2
:1007700000014FF0650205F06BF97B6818464FF0F9
:1007800000014FF0200205F063F97B684FF0000292
:100790001A627B684FF000025A627B684FF00002D9
:1007A0009A627B684FF00002C3F898207B684FF094
:1007B0000002C3F89C207B684FF00002C3F8C02001
:1007C0007B684FF00002C3F8C4207B684FF0000242
:1007D000C3F8CC20054B1A687B68DA627B683A68FC
:1007E000C3F8C82007F10807BD4680BD00000020FF
:1007F00080B483B000AF786039607B683A68C3F832
:10080000C42007F10C07BD4680BC704780B483B09C
:1008100000AF786039607B683A68C3F8C02007F1A0
:100820000C07BD4680BC704780B483B000AF7860D1
:1008300039607B683A68C3F8CC2007F10C07BD46E5
:1008400080BC704780B584B000AF786039607A684A
:100850007B6803F13003104619463A68FFF73AFD0A
:10086000F860FB68002B15D07B68FA68C3F8982005
:100870007B68D3F898207B68C3F89C207868FFF7E2
:100880000FFF7B68D3F89C3078684FF000011A4660
:10089000FFF724FF07F11007BD4680BD80B582B089
:1008A00000AF78600B46FB70FB785B2B04D14B4BA1
:1008B0004FF001021A608AE0484B1B68012B5CD1A3
:1008C000FB78412B07D178684FF00001FFF7BAFFA2
:1008D0004FF001037DE0FB78422B07D178684FF0A1
:1008E0000101FFF7AFFF4FF0010372E0FB78432BEC
:1008F00017D17B68D3F89C207B68D3F898309A4254
:100900000CDA78684FF00101FFF784FE7B68D3F8BA
:100910009C3003F101027B68C3F89C204FF0010377
:1009200057E0FB78442B14D17B68D3F89C30002B24
:100930000CDD78684FF0FF31FFF76CFE7B68D3F871
:100940009C3003F1FF327B68C3F89C204FF0010319
:100950003FE0FB78372B06D1204B4FF002021A60A4
:100960004FF0000335E0FB78382B30D11B4B4FF0B4
:1009700003021A604FF000032BE0FB787E2B26D198
:10098000164B1B68022B0AD17868FFF789FE7B683B
:100990004FF00002C3F89C204FF0010319E00F4B09
:1009A0001B68032B13D17B68D3F898207B68D3F89E
:1009B0009C30D31A78681946FFF72CFE7B68D3F871
:1009C00098207B68C3F89C204FF0010301E04FF0B2
:1009D0000003184607F10807BD4680BD6C050020DE
:1009E00080B586B000AFF860B9607A60FB68D3F874
:1009F00098207B68D318642B67DCFB6803F1300216
:100A0000FB68D3F89C3019467B68CB18D118FB687B
:100A100003F13002FB68D3F89C30D218FB68D3F89E
:100A20009800FB68D3F89C30C31A084611461A4652
:100A300004F0B4FF4FF000037B6126E0FB68D3F8BD
:100A40009C207B69D3187A69B9688A181278F9688A
:100A5000CB1883F83020FB68D3F89C207B69D3182F
:100A6000FA68D31893F83030202B0AD1FB68D3F8FA
:100A70009C207B69D318FA68D3184FF0000283F8E2
:100A800030207B6903F101037B617A697B689A42BC
:100A9000D4DBFB68D3F89C207B68D218FB68C3F8D2
:100AA0009C20FB68D3F898207B68D218FB68C3F8B9
:100AB0009820FB68D3F89830FA68D3184FF00002FA
:100AC00083F830204FF0010301E04FF00003184697
:100AD00007F11807BD4680BD80B582B000AF7860D1
:100AE0007B68D3F89C30002B39DD7868FFF772FD06
:100AF0007B6803F130027B68D3F89C3003F1FF334D
:100B0000D1187B6803F130027B68D3F89C30D2188F
:100B10007B68D3F898007B68D3F89C30C31A03F144
:100B20000103084611461A4604F038FF7B68D3F8E3
:100B30009C3003F1FF327B68C3F89C207B68D3F8BC
:100B400098307A68D3184FF0000283F830207B6821
:100B5000D3F8983003F1FF327B68C3F8982007F18F
:100B60000807BD4680BD00BF80B485B000AF786087
:100B70004FF00003FB604FF00103BB6038E0BB683F
:100B80004FEA83037A68D3181A68FB68D3181A7877
:100B9000BB6803F1FF334FEA83037968CB18196808
:100BA000FB68CB181B789A4217D1BB684FEA8303C6
:100BB0007A68D3181A68FB68D3181B78002B0CD0FE
:100BC000BB6803F1FF334FEA83037A68D3181A68CE
:100BD000FB68D3181B78002B06D1FB68184607F179
:100BE0001407BD4680BC7047FB6803F10103FB603E
:100BF000BB684FEA83037A68D3181B68002BBED109
:100C0000BB6803F10103BB6000BFF1E7B0B586B07C
:100C100000AF78607B68D3F8C430002B00F0A5806B
:100C20007B68D3F89C3078681946FFF76BFC7861D5
:100C30007B68D3F89C3003F1FF337A68D31893F8BC
:100C40003030002B0AD17B687A6902F128024949C9
:100C500043F822107B6903F101037B617B68D3F8C1
:100C6000C4307A6802F1A002786911469847B860EA
:100C7000BB681B68002B79D04FF000033B61BB6859
:100C800003F104031B68002B07D1BB681B681846DF
:100C900005F03EF80346FB6029E0B868FFF764FF03
:100CA000F8607868FFF7A6FC13E07B68D3F8C830DB
:100CB0003A694FEA8202B9688A1812681046984762
:100CC0007B68D3F8C8302C4898473B6903F101038F
:100CD0003B613B694FEA8303BA68D3181B68002B5A
:100CE000E3D17868FFF786FC7868FFF763FCFB6860
:100CF000002B2DD0BB681C687B6903F1FF327B6839
:100D000002F1280253F82230184605F001F8034694
:100D1000E418FD687B6903F1FF327B6802F1280269
:100D200053F82230184604F0F3FF0346EB1A7868B4
:100D300021461A46FFF754FEBB6803F104031B6803
:100D4000002B05D178680C494FF00102FFF748FEEF
:100D50007868FFF7A5FC7B68D3F89C3078684FF083
:100D600000011A46FFF7BAFC00E000BF07F11807C0
:100D7000BD46B0BDEC6A0008F06A000880B584B0DA
:100D800000AF78603960CB4B1B68002B0ED03B68FE
:100D9000DBB278681946FFF781FD0346002B00F0AF
:100DA0002182C44B4FF000021A601BE23B6803F142
:100DB000FF337E2B00F2ED8101A252F823F000BF39
:100DC000E5100008231100087F11000893110008A6
:100DD000C1100008F7100008931100086111000805
:100DE00061100008BD0F00089B1000089311000857
:100DF000BD0F0008551100089311000849110008A3
:100E00009311000893110008931100089311000832
:100E10007B1000089311000893110008931100083B
:100E2000931100089311000869100008931100083D
:100E30009311000893110008931100089311000802
:100E400093110008931100089311000893110008F2
:100E500093110008931100089311000893110008E2
:100E600093110008931100089311000893110008D2
:100E700093110008931100089311000893110008C2
:100E800093110008931100089311000893110008B2
:100E900093110008931100089311000893110008A2
:100EA0009311000893110008931100089311000892
:100EB0009311000893110008931100089311000882
:100EC0009311000893110008931100089311000872
:100ED0009311000893110008931100089311000862
:100EE0009311000893110008931100089311000852
:100EF0009311000893110008931100089311000842
:100F00009311000893110008931100089311000831
:100F10009311000893110008931100089311000821
:100F20009311000893110008931100089311000811
:100F30009311000893110008931100089311000801
:100F400093110008931100089311000893110008F1
:100F500093110008931100089311000893110008E1
:100F600093110008931100089311000893110008D1
:100F700093110008931100089311000893110008C1
:100F800093110008931100089311000893110008B1
:100F900093110008931100089311000893110008A1
:100FA0009311000893110008931100089311000891
:100FB0009311000893110008611100087868FFF789
:100FC00019FB7B68D3F89830002B0BDD79687B68C0
:100FD00003F130027B68D3F89830084611461A4670
:100FE000FFF7FEF87B68D3F8983078681946FFF76A
:100FF00089FAF860FB68B3F1FF3F04D17B68D3F84E
:10100000C8302D489847FB68002B0DDD7B68D3F86E
:10101000C030002B08D07B68D3F8C0307A6802F16A
:10102000A002F868114698477868FFF7C3FA7B6812
:101030004FF00002C3F898207B684FF00002C3F81D
:101040009C207B6803F1300318464FF000014FF0FD
:10105000650204F0FDFC7B684FF000029A62C1E07B
:101060007868FFF7D3FDBDE0124B4FF001021A6024
:10107000B8E07868FFF730FD00E000BF7B68D3F888
:101080009C30002BF5DC7B68D3F89C3078684FF0FF
:1010900000011A46FFF722FBA4E07B68D3F8C830B2
:1010A000064898477B68D3F89C207B68C3F8982053
:1010B00098E000BF68050020F46A0008E86A0008AC
:1010C0007B68D3F898207B68D3F89C30D31A786873
:1010D0001946FFF79FFA7B68D3F898207B68C3F81E
:1010E0009C207FE07868FFF7DBFA7B684FF0000216
:1010F000C3F89C2076E07B68D3F89C207B68D3F80B
:1011000098309A4265DA78684FF00101FFF782FA69
:101110007B68D3F89C3003F101027B68C3F89C2004
:1011200060E07B68D3F89C30002B54D078684FF097
:10113000FF31FFF76FFA7B68D3F89C3003F1FF3281
:101140007B68C3F89C204DE078684FF00001FFF702
:1011500079FB47E078684FF00101FFF773FB41E04E
:101160007868FFF7B9FC7B68D3F89C207B68D3F8DC
:101170009C30786811461A46FFF7B0FA32E07B6877
:10118000D3F8CC30002B28D07B68D3F8CC309847EC
:1011900028E03B68202B04D17B68D3F89830002BE3
:1011A0001DD03B46786819464FF00102FFF718FC46
:1011B0000346002B15D07B68D3F89C3003F1FF3237
:1011C0007B68D3F89C30786811461A46FFF786FA98
:1011D00008E000BF06E000BF04E000BF02E000BF7F
:1011E00000E000BF07F11007BD4680BD80B400AF2E
:1011F000BFF32F8FBD4680BC704700BF80B483B063
:1012000000AF0346FB71094B97F907204FEA5212D2
:10121000F97901F01F014FF0010000FA01F143F8E4
:10122000221007F10C07BD4680BC704700E100E0CA
:1012300080B483B000AF03463960FB7197F9073083
:10124000002B0DDA0E49FB7903F00F03A3F1040321
:101250003A68D2B24FEA0212D2B2CB181A760AE03A
:10126000084997F907303A68D2B24FEA0212D2B26F
:10127000CB1883F8002307F10C07BD4680BC7047EC
:1012800000ED00E000E100E080B584B000AF1E4B4F
:101290001A681E4BA3FB02134FEA93439BB203F160
:1012A000FF33FB814FF010004FF0010102F06AFAAA
:1012B0004FF064033B81FB89BB804FF000037B81CF
:1012C0004FF00003FB8007F104031148194600F0BA
:1012D000C5F80F484FF001014FF0010200F0C0F9CE
:1012E0004FF03600FFF78AFF4FF036004FF008014D
:1012F000FFF79EFF06484FF0010100F091F907F15A
:101300001007BD4680BD00BF0400002083DE1B43E4
:101310000010004080B582B000AF0346FB71FB793E
:1013200018464FF0000100F007F80346184607F191
:101330000807BD4680BD00BF80B584B000AF03463E
:101340003960FB714FF00003FB73FB79042B01D96B
:10135000FB7B21E0FB794FEA8302124BD31818463E
:1013600000F096FBB860BB68002B0FD14FF0010373
:10137000FB73FB794FEA83020A4BD318386819468E
:1013800000F098FB0346002BE4D104E0FFF72EFFAA
:101390004FF0000300E0FB7B184607F11007BD4645
:1013A00080BD00BF7005002080B582B000AF03464D
:1013B0003960FB71FB79042B14D8FB794FEA830267
:1013C0000B4BD318184600F063FBFB794FEA8302FE
:1013D000074BD3183868194600F06CFB0346002B06
:1013E000EBD100E000BF07F10807BD4680BD00BF9C
:1013F0007005002080B582B000AF16484FF00101A3
:1014000000F010FA0346002B1FD012484FF00101E4
:1014100000F03AFA4FF000037B6013E00E4B7A685D
:1014200053F82230002B09D00B4B7A6853F8223046
:1014300003F1FF31084B7A6843F822107B6803F10F
:1014400001037B607B68042BE8D907F10807BD46E0
:1014500080BD00BF001000407005002080B485B042
:1014600000AF786039604FF00003FB817B681B8818
:10147000FB817A682F4B9A4213D07A682E4B9A429E
:101480000FD07B68B3F1804F0BD07A682B4B9A4218
:1014900007D07A682A4B9A4203D07A68294B9A423D
:1014A00009D1FB8923F07003FB813B685A88FB89D3
:1014B00042EA0303FB817A68234B9A420DD07A6893
:1014C000224B9A4209D0FB8923F44073FB813B688D
:1014D000DA88FB8942EA0303FB817B68FA891A8078
:1014E0003B689A887B689A853B681A887B681A856E
:1014F0007A68104B9A420FD07A680F4B9A420BD001
:101500007A68134B9A4207D07A68124B9A4203D0FA
:101510007A68114B9A4204D13B681B7A1A467B6861
:101520001A867B684FF001029A8207F11407BD46C4
:1015300080BC7047002C0140003401400004004092
:1015400000080040000C0040001000400014004063
:1015500000400140004401400048014080B584B093
:1015600000AF786039604FF00003FB814FF001035A
:10157000BB813B685B88002B03D14FF00203FB81EA
:1015800002E04FF00003FB813B689B88012B03D1F5
:101590004FF00203BB8102E04FF00103BB813B68C7
:1015A0001B88002B1CD13B6859883B689A883B6894
:1015B0001B89786800F07AF93B68DB8878681946FF
:1015C00000F0D8F83B681B89F989BA89786800F07F
:1015D000DFF93B68DB887868194600F0E7F81BE024
:1015E0003B6859883B689A883B681B89786800F09B
:1015F000CFF93B68DB887868194600F0D7F83B687C
:101600001B89F989BA89786800F050F93B68DB8852
:101610007868194600F0AEF807F11007BD4680BDA6
:1016200080B483B000AF78600B46FB70FB78002B72
:1016300008D07B681B889BB243F001039AB27B6899
:101640001A8007E07B681B889BB223F001039AB2E3
:101650007B681A8007F10C07BD4680BC704700BF4D
:1016600080B483B000AF786013460A467A807B70FE
:101670007B78002B09D07B689B899AB27B8842EAF1
:1016800003039AB27B689A810BE07B689B899AB2CC
:101690007B886FEA03039BB202EA03039AB27B687A
:1016A0009A8107F10C07BD4680BC704780B485B0B5
:1016B00000AF78600B467B804FF00003FB817B68B6
:1016C0001B89FB81FB8923F07003FB81FA897B88EE
:1016D00042EA0303FB817B68FA891A8107F1140748
:1016E000BD4680BC704700BF80B483B000AF786057
:1016F0000B467B807B681B899BB223F007039AB261
:101700007B681A817B681B899AB27B8842EA030353
:101710009AB27B681A8107F10C07BD4680BC7047FE
:1017200080B483B000AF78600B467B807B681B89F8
:101730009BB223F080039AB27B681A817B681B8975
:101740009AB27B8842EA03039AB27B681A8107F156
:101750000C07BD4680BC704780B483B000AF786092
:101760000B467B807B687A889A8407F10C07BD461C
:1017700080BC704780B483B000AF78600B467B803C
:101780007B681B8B9BB223F00C039AB27B681A8395
:101790007B681B8B9AB27B8842EA03039AB27B6810
:1017A0001A8307F10C07BD4680BC704780B483B034
:1017B00000AF78600B467B807B681B8B9BB223F469
:1017C00040639AB27B681A837B681B8B9AB27B88D2
:1017D0004FEA03239BB242EA03039AB27B681A835F
:1017E00007F10C07BD4680BC704700BF80B483B0D2
:1017F00000AF78607B681B8F9BB2184607F10C071F
:10180000BD4680BC704700BF80B483B000AF786035
:101810007B689B8C9BB2184607F10C07BD4680BCC9
:10182000704700BF80B485B000AF78600B467B8006
:101830004FF00003FB734FF00003BB814FF0000338
:101840007B817B681B8A9AB27B8802EA0303BB8197
:101850007B689B899AB27B8802EA03037B81BB8900
:10186000002B06D07B89002B03D04FF00103FB73C4
:1018700002E04FF00003FB73FB7B184607F11407EF
:10188000BD4680BC704700BF80B483B000AF7860B5
:101890000B467B807B886FEA03039AB27B681A82CF
:1018A00007F10C07BD4680BC704700BF80B487B00D
:1018B00000AFF86079813A81FB804FF00003BB8272
:1018C0004FF00003FB82FB681B8C9BB223F00103EB
:1018D0009AB2FB681A84FB681B8BBB82FB681B8C6B
:1018E000FB82BB8A23F0F303BB82FB884FEA03131E
:1018F0009AB23B8942EA03039AB2BB8A42EA0303E3
:10190000BB82FA681D4B9A4213D0FA681C4B9A426C
:101910000FD0FB68B3F1804F0BD0FA68194B9A4295
:1019200007D0FA68184B9A4203D0FA68174B9A42CC
:101930000CD1FB8A23F00203FB827A89FB8A42EAFC
:1019400003039BB243F00103FB820BE0FB8A23F00D
:101950000A03FB827A89FB8A42EA03039BB243F0C3
:101960000103FB82FB68BA8A1A83FB68FA8A1A842D
:1019700007F11C07BD4680BC704700BF002C01402A
:10198000003401400004004000080040000C00400A
:1019900080B487B000AFF86079813A81FB804FF066
:1019A0000003BB824FF00003FB824FF000037B82F9
:1019B000FB681B8C9BB223F010039AB2FB681A845D
:1019C000FB681B8BBB82FB681B8CFB827B894FEA0D
:1019D00003137B82BB8A23F440734FEA03534FEA1D
:1019E0001353BB82FB884FEA03339AB2BB8A42EAA5
:1019F0000303BB823B894FEA03239AB2BB8A42EAC4
:101A00000303BB82FA681D4B9A4213D0FA681C4B41
:101A10009A420FD0FB68B3F1804F0BD0FA68194B94
:101A20009A4207D0FA68184B9A4203D0FA68174BCB
:101A30009A420CD1FB8A23F02003FB827A8AFB8A2C
:101A400042EA03039BB243F01003FB820BE0FB8AE4
:101A500023F0A003FB827A89FB8A42EA03039BB24C
:101A600043F01003FB82FB68BA8A1A83FB68FA8A88
:101A70001A8407F11C07BD4680BC7047002C01404A
:101A8000003401400004004000080040000C004009
:101A900090B484B000AF78604FF00003FB607B68C7
:101AA00053E8004FFC60FB68184607F11007BD467D
:101AB00090BC704790B484B000AF786039604FF04C
:101AC0000003FB603B687A6843E80024FC60FB6825
:101AD000184607F11007BD4690BC704780B500AFAF
:101AE000154B154A126842F001021A60124A124B55
:101AF0005968124B01EA030353600F4A0E4B1B68EF
:101B000023F0847323F4803313600B4B0A4A12686A
:101B100022F480221A60084B074A526822F4FE021F
:101B20005A60054B4FF41F029A6000F00BF8044B0B
:101B30004FF000629A6080BD001002400000FFF884
:101B400000ED00E080B500AF00F002F880BD00BFFE
:101B500080B483B000AF4FF000037B604FF0000310
:101B60003B603B4B3A4A126842F480321A60384B71
:101B70001B6803F400333B607B6803F101037B6067
:101B80003B68002B03D17B68B3F5A06FEFD1304BDE
:101B90001B6803F40033002B03D04FF001033B60BC
:101BA00002E04FF000033B603B68012B4BD1294B17
:101BB000284A126842F010021A60264B254A126821
:101BC00022F003021A60234B224A126842F00202FA
:101BD0001A601F4B1E4A52685A601D4B1C4A5268BD
:101BE0005A601B4B1A4A526842F480625A60184B82
:101BF000174A526822F47C125A60154B144A5268F4
:101C000042F4E8125A60124B114A126842F0807294
:101C10001A6000BF0E4B1B6803F00073002BF9D055
:101C20000B4B0B4A526822F003025A60084B084AD9
:101C3000526842F002025A6000BF054B5B6803F035
:101C40000C03082BF9D107F10C07BD4680BC704787
:101C5000001002400020024080B582B000AF134B5C
:101C60007B60134B3B600BE07B681A683B681A6033
:101C70003B6803F104033B607B6803F104037B6072
:101C80003A680C4B9A42EFD30B480C494FF00002D4
:101C90008842B8BF40F8042BFADBFFF71FFF00F0C3
:101CA0005BFB07F10807BD4680BD00BFB4730008A9
:101CB000000000206805002068050020441F002067
:101CC00080B400AFFEE700BF80B483B000AF78609F
:101CD00013460A467A803B8013E03B884FEA132381
:101CE0009AB23B8803F0FF017B681B7859400E4B8A
:101CF00033F8113082EA03033B807B6803F1010370
:101D00007B607B88002B0CBF00230123DBB27A8829
:101D100002F1FF327A80002BDFD13B88184607F1B1
:101D20000C07BD4680BC70470C6B000880B489B0BE
:101D300000AF786039604FF00003FB614FF00003A3
:101D40003B614FF00003BB614FF00003FB604FF0BD
:101D500000037B614FF00003BB603B68DB7803F05E
:101D60000F03FB613B68DB7803F01003002B05D009
:101D70003B689B78FA6942EA0303FB613B681B8876
:101D800003F0FF03002B51D07B681B687B614FF091
:101D90000003BB6144E0BB694FF0010202FA03F3A8
:101DA000FB603B681B881A46FB6802EA03033B6141
:101DB0003A69FB689A422FD1BB694FEA8303FB6003
:101DC000FB684FF00F0202FA03F3BB60BB686FEAD7
:101DD00003037A6902EA03037B61FB68FA6902FA8A
:101DE00003F37A6942EA03037B613B68DB78282BC3
:101DF00007D1BB694FF0010202FA03F27B685A6116
:101E00000AE03B68DB78482B06D1BB694FF0010242
:101E100002FA03F27B681A61BB6903F10103BB613B
:101E2000BB69072BB7D97B687A691A603B681B8846
:101E3000FF2B56D97B685B687B614FF00003BB6169
:101E400049E0BB6903F108034FF0010202FA03F312
:101E5000FB603B681B881A46FB6802EA03033B6190
:101E60003A69FB689A4232D1BB694FEA8303FB604F
:101E7000FB684FF00F0202FA03F3BB60BB686FEA26
:101E800003037A6902EA03037B61FB68FA6902FAD9
:101E900003F37A6942EA03037B613B68DB78282B12
:101EA00008D1BB6903F108034FF0010202FA03F203
:101EB0007B685A613B68DB78482B08D1BB6903F12A
:101EC00008034FF0010202FA03F27B681A61BB6952
:101ED00003F10103BB61BB69072BB2D97B687A6947
:101EE0005A6007F12407BD4680BC704780B483B0B8
:101EF00000AF78607B684FF6FF721A807B684FF006
:101F000002029A707B684FF00402DA7007F10C0746
:101F1000BD4680BC704700BF80B487B000AF78601A
:101F20000B46FB704FF000033B614FF00003FB607A
:101F30004FF000037B614FF00003BB607B68002B18
:101F400003DA354BDB697B6102E0334B5B687B6115
:101F50007B6803F470234FEA1343BB607B684FEA4E
:101F600003434FEA13433B617B6803F44013B3F52B
:101F7000401F0AD17B6923F070637B61264B264AA0
:101F8000526822F070625A6028E07B6803F4801384
:101F9000002B11D0BB684FF0030202FA03F3FB6081
:101FA000FB686FEA03037A6902EA03037B617B69DA
:101FB00043F070637B6111E07B684FEA53534FEA53
:101FC00003133A6902FA03F36FEA03037A6902EA38
:101FD00003037B617B6943F070637B61FB78002BBB
:101FE0000BD07B684FEA53534FEA03133A6902FA66
:101FF00003F37A6942EA03037B617B68002B03DA0F
:10200000054B7A69DA6102E0034B7A695A6007F19D
:102010001C07BD4680BC70470000014090B484B0EE
:1020200000AF02460B46FA71BB714FF00003FB6034
:10203000BB7903F003034FEA83034FF00F0202FA68
:1020400003F3FB601B4BBA794FEA9202D2B21949F3
:10205000B8794FEA9000C0B200F1020051F82000B8
:10206000F9686FEA010100EA010102F1020243F896
:102070002210104BBA794FEA9202D2B20D49B879C8
:102080004FEA9000C0B200F1020051F82000FC7944
:10209000B97901F003014FEA810104FA01F140EA44
:1020A000010102F1020243F8221007F11007BD46B8
:1020B00090BC70470000014080B483B000AF03467D
:1020C000FB71094B97F907204FEA5212F97901F099
:1020D0001F014FF0010000FA01F143F8221007F14F
:1020E0000C07BD4680BC704700E100E080B483B0BF
:1020F00000AF03463960FB7197F90730002B0DDA0A
:102100000E49FB7903F00F03A3F104033A68D2B23E
:102110004FEA0212D2B2CB181A760AE0084997F9B0
:1021200007303A68D2B24FEA0212D2B2CB1883F823
:10213000002307F10C07BD4680BC704700ED00E0AE
:1021400000E100E080B400AF044B044A526942F45D
:1021500080525A61BD4680BC704700BF00100140EC
:1021600080B400AF044B044A126942F480521A61F1
:10217000BD4680BC704700BF0010014080B400AF76
:10218000044B044A526942F004025A61BD4680BCC5
:10219000704700BF0014014080B400AF044B044AF4
:1021A000126942F004021A61BD4680BC704700BF4C
:1021B0000014014080B400AF044B044A526942F05D
:1021C00010025A61BD4680BC704700BF000C014040
:1021D00080B400AF044B044A526942F008025A61CD
:1021E000BD4680BC704700BF000C014080B400AF0A
:1021F000044B044A126942F008021A61BD4680BCD1
:10220000704700BF000C014080B400AF084B1B7842
:10221000002B08D1064B4FF001021A70054B4FF00E
:1022200000021A7000E000BFBD4680BC704700BFCE
:10223000640600206506002080B582B000AF78609B
:10224000124B1B681248194601F092FD786800F0A5
:10225000D5F8104B1B6818460F49FEF77FFA0D4B57
:102260001B6818460D49FEF7D1FA0A4B1B68184641
:102270000B49FEF7BDFA074B1B6818460949FEF7E4
:10228000D3FA07F10807BD4680BD00BF0C6D0008FA
:102290005406002018000020712900080D2A0008AB
:1022A000312D0008ED2D000880B584B000AF4FF04F
:1022B0000003FB604FF00003BB604FF008004FF0DD
:1022C000010101F03DFA07F104031846FFF70EFE85
:1022D0004FF47043BB804FF04803FB714FF0030392
:1022E000BB7107F104031B481946FFF71FFD194B8B
:1022F0009B684FEA13336FEA030303F00F03BA68D6
:1023000042EA0303BB60BB684FEAC30303F0080360
:10231000FB60BB684FEA430303F00403FA6842EA38
:102320000303FB60BB684FEA530303F00203FA6840
:1023300042EA0303FB60BB684FEAD30303F00103E7
:10234000FA6842EA0303FB60FB68184607F11007CE
:10235000BD4680BD000C014080B582B000AF4FF09B
:1023600000037B6003E07B6803F101037B601F4B8C
:102370001A681F4BA3FB02134FEA53127B689A4261
:10238000F1D84FF4E130FFF757FFFEF77DFF00F083
:10239000A9F8FFF789FF0346DBB24FF41650194640
:1023A0004FF0020201F044FEFFF704FFFFF7D8FEF2
:1023B000FFF7F2FEFFF71AFF0E4801F00DFD03468E
:1023C000002B0CD107F103030A48194601F048FD20
:1023D000094B1A68FB7810461946FEF7CFFC00F04F
:1023E000F3F801F03DFF00F067FAE5E70400002094
:1023F0001F85EB51540600201800002080B588B0DE
:1024000000AF78604FF480404FF0010101F098F97F
:102410004FF001004FF0010101F092F94FF004007C
:102420004FF0010101F08CF907F10C031846FFF79A
:102430005DFD4FF48063BB814FF00403FB734FF0ED
:102440000303BB7307F10C0324481946FFF76EFC26
:1024500007F10C031846FFF749FD4FF40073BB81E9
:102460004FF01803FB734FF00303BB7307F10C032A
:102470001A481946FFF75AFC7B683B614FF000038E
:10248000BB834FF00C037B834FF00003FB824FF0C4
:102490000803BB824FF000033B8307F11003104891
:1024A000194601F02BFA0E4840F225514FF0010277
:1024B00001F01CFB4FF02500FFF7FEFD4FF025005B
:1024C0004FF00701FFF712FE05484FF0010101F040
:1024D000EDFA07F12007BD4680BD00BF00080140AE
:1024E0000038014080B582B000AF4FF010004FF0CF
:1024F000010101F025F94FF008004FF0010101F052
:102500001FF94FF020004FF0010101F019F91C48AC
:102510004FF00101FFF700FD07F104031846FFF734
:10252000E5FC4FF48053BB804FF01003FB714FF07C
:102530000303BB7107F1040312481946FFF7F6FBCA
:102540004FF00403BB8007F104030F481946FFF75F
:10255000EDFB4FF01003BB8007F104030B48194655
:10256000FFF7E4FB4FF00803BB8007F104030748C3
:102570001946FFF7DBFB07F10807BD4680BD00BF2A
:10258000000230000010014000140140000C014026
:1025900080B582B000AF0A4801F010FB0346DBB201
:1025A000FB7107F107030748194601F027FC0448AF
:1025B00040F2255101F09AFB07F10807BD4680BDA6
:1025C000003801405406002080B586B002AF844B2D
:1025D0001B78092B00F2F38001A252F823F000BF10
:1025E000BF27000809260008212600083726000812
:1025F0005B260008712600088D260008F3260008D7
:102600007727000895270008764B4FF001021A70D3
:10261000734B4FF002021A70734800F073FFDBE057
:10262000724802F051F96E4B4FF003021A70704875
:1026300000F068FFD0E002F03BF80346002B40F0CA
:10264000C080674B4FF004021A706A4800F05AFFCE
:10265000644B4FF002021A70BEE0674802F034F992
:102660005F4B4FF005021A70644800F04BFFB3E077
:1026700002F01EF80346002B40F0A580584B4FF0A7
:1026800006021A705B4800F03DFFA5E04FF0000322
:10269000FB735B4800F036FF5448574902F0B2FC28
:1026A0000346FB73FB7B002B01D0564B00E0564BDF
:1026B0005648194600F026FFFB7B002B10D0494BF3
:1026C0004FF003021A70524A524B9A4234BF002212
:1026D0000122514B1A60424B4FF007021A707BE007
:1026E000404B4FF004021A703D4B4FF008021A7035
:1026F00072E001F025FC03461946484B1B884FEA5F
:1027000013239BB2DAB2454B1B88DBB239704FF012
:1027100001017970BA70FB704FF001033B714FF00B
:1027200000037B714FF00003BB71304A3A4B1B68CA
:102730004FEAC323D318BB6001F0F8FB0346012B1B
:1027400043D04FF00003BB714FF008037B71344856
:1027500000F0D8FE3B464FF00102009218464FF0C1
:102760000701BA684FF4006301F088FE1C4B4FF07C
:1027700009021A7030E02B4800F0C4FE4FF001004F
:1027800001F012FF0346002B21D0154B4FF0090238
:102790001A7021E001F0CAFB0346002B19D1104B3F
:1027A0004FF000021A70204800F0ACFE0D4B1B7871
:1027B000032B10D10B4B4FF000021A700CE000BF3E
:1027C0000AE000BF08E000BF06E000BF04E000BF71
:1027D00002E000BF00E000BF07F11007BD4680BD6A
:1027E0006406002065060020106D00081C0F002004
:1027F000286D0008406D00081C170020486D000877
:10280000606D0008746D00087C6D0008846D000820
:102810002C0F00202C1700206806002066060020E0
:102820008C6D0008A06D0008B86D000880B582B0FE
:1028300000AF02460B46FA807B71114BFA881A8072
:102840007B79012B07D0022B0ED0002B10D10D4825
:1028500000F08EF810E00A4B1B880B48194600F078
:1028600051FEFFF7D1FC07E0084800F081F803E0D3
:10287000074800F07DF800BF07F10807BD4680BD9E
:1028800066060020C06D0008F46D00080C6E00089C
:102890004C6E000880B500AF02F0BCF8044B4FF05E
:1028A00000021A70034B4FF000021A7080BD00BF87
:1028B000640600206506002080B500AF4FF00100DF
:1028C00040F6C411FEF738FD0346002B4AD0264BD4
:1028D0001B78042B47D801A252F823F0F1280008F6
:1028E000FB280008052900080F29000839290008DD
:1028F000FFF736FCFFF750FC35E0FFF723FCFFF74E
:102900004BFC30E0FFF71EFCFFF738FC2BE0174BC9
:102910001B78002B04D0FFF715FCFFF72FFC03E01A
:10292000FFF71EFCFFF738FC104B1B7883F0010308
:10293000DAB20E4B1A7016E00C4B1B78002B04D049
:10294000FFF700FCFFF728FC03E0FFF709FCFFF7A7
:1029500015FC064B1B7883F00103DAB2034B1A70A7
:1029600000BF00E000BF80BD650600201C00002005
:1029700080B584B000AF78604FF00003FB600AE0E0
:10298000FB687A68D3181B78FA6802F10102FA60D2
:10299000184600F033FAFB687A68D3181B78002BCE
:1029A000EED107F11007BD4680BD00BF80B500AF76
:1029B0000D48FFF7DDFF0D48FFF7DAFF0C48FFF782
:1029C000D7FF0C48FFF7D4FF0B48FFF7D1FF0B48A8
:1029D000FFF7CEFF0A48FFF7CBFF0A48FFF7C8FF13
:1029E0000948FFF7C5FF80BDC06E0008E86E00080B
:1029F000FC6E0008186F0008346F0008506F000864
:102A00007C6F0008AC6F00080070000880B586B0CD
:102A100000AF786039604FF000037B6177E17B693C
:102A20004FEA83033A68D3181B681846964903F0A7
:102A300081F80346002B13D19448FFF799FF94487F
:102A4000FFF796FF9348FFF793FF934B1B681846D9
:102A5000FFF78EFF9148FFF78BFFFFF7A7FF52E1CB
:102A60007B694FEA83033A68D3181B6818468C4980
:102A700003F060F80346002B06D18A48FFF778FF81
:102A80008948FFF775FF3EE17B694FEA83033A68A7
:102A9000D3181B681846854903F04CF80346002BF1
:102AA00004D1FFF7B1FB4FF0000337E17B694FEA38
:102AB00083033A68D3181B6818467D4903F03AF837
:102AC0000346002B2CD17B6903F101037B617A69FA
:102AD0007B689A421EDA7B694FEA83033A68D3180F
:102AE0001B68184602F0B4FB03463B613B69012BAF
:102AF00005D9704800F006FD4FF0FF330EE13B6949
:102B00004FEAC3226C4BD318184602F0D5F94FF0A8
:102B1000000303E16948FFF72BFF4FF0FF33FDE0AF
:102B20007B694FEA83033A68D3181B6818466449E7
:102B300003F000F80346002B22D17B6903F1010367
:102B40007B617A697B689A4214DA7B694FEA830376
:102B50003A68D3181B68184602F07AFBF860FB68E5
:102B6000002BD4BF00230123DAB2564B1A704FF06A
:102B70000003D3E05148FFF7FBFE4FF0FF33CDE0F9
:102B80007B694FEA83033A68D3181B6818464E499D
:102B900002F0D0FF0346002B23D17B6903F1010330
:102BA0007B617A697B689A4215DA7B694FEA830315
:102BB0003A68D3181B68184602F04AFB03461A46C7
:102BC000424B1A60414B1B684148194600F09AFC81
:102BD0004FF00003A2E03948FFF7CAFE4FF0FF3381
:102BE0009CE07B694FEA83033A68D3181B68184658
:102BF000384902F09FFF0346002B23D17B6903F184
:102C000001037B617A697B689A4215DA7B694FEA36
:102C100083033A68D3181B68184602F019FB034671
:102C20001A462D4B1A602C4B1B682C48194600F095
:102C300069FC4FF0000371E02048FFF799FE4FF068
:102C4000FF336BE07B694FEA83033A68D3181B6854
:102C50001846234902F06EFF0346002B44D1194B5E
:102C60001B782048194600F04DFC184B1B6818488B
:102C7000194600F047FC184B1B681848194600F02D
:102C800041FC4FF0000349E0646E000858700008F2
:102C90006470000868700008200000207C70000844
:102CA0006C6E00088070000888700008746E000860
:102CB0007C6E00088C7000081C0F0020B0700008AB
:102CC000846E0008E40E0020986E00084C0100207D
:102CD000C8700008AC6E000850010020E0700008C9
:102CE000906E0008FC7000080F48FFF741FE7B69FA
:102CF0004FEA83033A68D3181B681846FFF738FE7B
:102D00000A48FFF735FE7B6903F101037B617A69AD
:102D10007B689A42FFF683AE4FF00003184607F136
:102D20001807BD4680BD00BF107100081C71000867
:102D300080B586B000AF786039604FF000037B61EA
:102D4000284B4FF000021A607B68012B3BD17B6857
:102D500003F1FF334FEA83033A68D3181B68FB6023
:102D60004FF000033B611EE01F4B3A6953F82230DD
:102D70001846F96803F072F902461B4B396953F89B
:102D800021309A420BD1184B3A6953F82210154B57
:102D90007A6943F822107B6903F101037B613B6987
:102DA00003F101033B613B69072BDDDD0EE00E4BB8
:102DB0007A6953F822100B4B7A6943F822107B6929
:102DC00003F101037B617B69072BF0DD054B7A6919
:102DD0004FF0000143F82210024B184607F1180784
:102DE000BD4680BD1C1F00202400002080B500AF20
:102DF0000148FFF7BDFD80BD2C71000880B582B091
:102E000000AF0346FB7100BF08484FF0800100F09F
:102E1000E7FE0346002BF7D0FB799BB20348194627
:102E200000F0B8FE07F10807BD4680BD003801403C
:102E300080B483B000AF78600B46FB707B68FA7893
:102E40001A704FF00103184607F10C07BD4680BC0D
:102E5000704700BF80B485B000AF786039604FF034
:102E60000003FB600FE03B681A787B681A707B6890
:102E700003F101037B603B6803F101033B60FB68E6
:102E800003F10103FB603B681B78002BEBD1FB686F
:102E9000184607F11407BD4680BC704780B586B060
:102EA00000AFF8607A603B600B46FB724FF00003A6
:102EB0007B617B6803F1FF337B603B68092B22D980
:102EC0003A68224BA3FB02134FEAD303FA7AF8685D
:102ED00011467A68FFF7E2FF78617B69FA68D318D8
:102EE000FB6013E0FB7AF8681946FFF7A1FFFB6867
:102EF00003F10103FB607B6903F101037B617B68E4
:102F000003F1FF337B607B68002BEBDC39680F4BF0
:102F1000A3FB01234FEAD30213464FEA83039B1816
:102F20004FEA4303CA1AD3B203F13003DBB2F868A5
:102F30001946FFF77DFF03467A69D3187B617B69E9
:102F4000184607F11807BD4680BD00BFCDCCCCCCDC
:102F500080B586B000AFF8607A603B600B46FB72CC
:102F60004FF000037B613B68002B04DA3B68C3F140
:102F700000033B6101E03B683B617B6803F1FF3389
:102F80007B603B69092B24D93B68002B0FDA3A6937
:102F9000354BA3FB02134FEAD303C3F10003FA7AC4
:102FA000F86811467A68FFF7D3FF78610CE03A6958
:102FB0002D4BA3FB02134FEAD303FA7AF8681146AC
:102FC0007A68FFF7C5FF78617B69FA68D318FB6000
:102FD0002BE03B68002B15DA7B6803F1FF337B6045
:102FE00010E0FB7AF8681946FFF722FFFB6803F14F
:102FF0000103FB607B6903F101037B617B6803F1E3
:10300000FF337B607B68002BEBDC3B68002B0CDA2A
:10301000F8684FF02D01FFF70BFF03467A69D318CC
:103020007B61FB6803F10103FB6039690E4BA3FB75
:1030300001234FEAD30213464FEA83039B184FEA5A
:103040004303CA1AD3B203F13003DBB2F86819465E
:10305000FFF7EEFE03467A69D3187B617B69184659
:1030600007F11807BD4680BDCDCCCCCC80B588B06B
:1030700002AFF8607A600A46FA72FB704FF0000304
:103080007B617B6803F1FF337B603B6A4FEA13137C
:10309000002B24D03B6A4FEA1311FA7AFB78009197
:1030A000F86811467A68FFF7E1FF03467A69D3189A
:1030B0007B617B69FA68D318FB6013E0FB7AF868E0
:1030C0001946FFF7B5FEFB6803F10103FB607B695E
:1030D00003F101037B617B6803F1FF337B607B6855
:1030E000002BEBDC3B6A03F00F03092B0CD83B6A87
:1030F000DBB203F00F03DBB203F13003DBB2F8689D
:103100001946FFF795FE1BE0FB78002B0CD03B6ABD
:10311000DBB203F00F03DBB203F13703DBB2F86875
:103120001946FFF785FE0BE03B6ADBB203F00F03A5
:10313000DBB203F15703DBB2F8681946FFF778FEFC
:103140007B6903F101037B617B69184607F118076E
:10315000BD4680BD80B58AB002AFF860B9607A60C4
:103160003B604FF00003BB614FF000037B61FB68E5
:10317000002B00F01C81FB684FF000021A7017E171
:103180007B681B78252B10D07B681A78FB681A7037
:10319000FB6803F10103FB607B6803F101037B60C3
:1031A0007B6903F101037B6102E17B6803F10103A9
:1031B0001B78252B10D1FB684FF025021A70FB6895
:1031C00003F10103FB607B6803F102037B607B6911
:1031D00003F101037B61EBE04FF02003FB774FF03D
:1031E0000003BB777B6803F101037B607B681B787E
:1031F000302B1BD14FF03003FB777B6803F10103C9
:103200007B6014E0BB7F1A464FEA8202D3184FEA74
:103210004303DAB27B681B78D318DBB2A3F1300327
:10322000BB777B6803F101037B6000E000BF7B6834
:103230001B782F2B03D97B681B78392BE2D9BA7FF7
:103240007B69D3181A46BB689A4205D9BB68DAB2C3
:103250007B69DBB2D31ABB777B681B78A3F1580379
:10326000202B00F2948001A252F823F04133000891
:103270008F3300088F3300088F3300088F33000826
:103280008F3300088F3300088F3300088F33000816
:103290008F3300088F33000877330008F1320008BD
:1032A0008F3300088F3300088F3300088F330008F6
:1032B000F13200088F3300088F3300088F33000885
:1032C0008F3300088F3300088F3300088F330008D6
:1032D0008F3300088F330008613300088F330008F4
:1032E000093300088F3300088F33000821330008AA
:1032F000BA7F3B6803F1040139601B68F97FF86805
:10330000FFF726FEB86145E0BA7F3B6803F1040190
:1033100039601B68F97FF868FFF7C0FDB86139E0D4
:10332000BA7F3B6803F1040139601968FB7F0091A3
:10333000F86819464FF00003FFF798FEB86129E0DE
:10334000BA7F3B6803F1040139601968FB7F009183
:10335000F86819464FF00103FFF788FEB86119E0DD
:103360003B6803F104023A601B68F8681946FFF7EE
:1033700071FDB8610EE03B6803F104023A601B681E
:10338000DBB2F8681946FFF753FDB86102E04FF071
:10339000FF332CE07B6803F101037B60BB69FA68B3
:1033A000D318FB607A69BB69D3187B6100E000BF6A
:1033B0007B681B78002B04D07A69BB689A42FFF4C3
:1033C000DFAE7A69BB689A4204D2FB684FF0000214
:1033D0001A700BE0FB6803F1FF33FB60FB684FF0F2
:1033E00000021A707B6903F1FF337B617B69184629
:1033F00007F12007BD4680BD0CB480B584B000AF96
:103400007860396007F11C03BB6078683968BA6975
:10341000BB68FFF79FFEF860FB68184607F11007CE
:10342000BD46BDE8804002B0704700BF80B584B0A3
:1034300000AFF860B9607A60F8684FF0FF01BA68D1
:103440007B68FFF787FE0346184607F11007BD4665
:1034500080BD00BFB0B5CEB000AF07F10C0318605F
:1034600007F10803196007F104031A6007F1140259
:10347000174B14461D460FCD0FC40FCD0FC42B683C
:10348000236007F1380107F1080207F10403084639
:1034900011681A68FFF7CAFF0346FE2B09DD0D4BC2
:1034A0001B68DB6807F114021046194600F062F849
:1034B000FEE707F1380207F10C031046196800F027
:1034C00059F80346184607F59C77BD46B0BD00BFC6
:1034D0003C7100083401002080B582B000AF7860F4
:1034E0003960074B1B689B68184679683A68FFF794
:1034F000B1FF0346184607F10807BD4680BD00BF6F
:10350000340100200FB480B582B000AF07F114037E
:103510003B6038693968FFF7DFFF78607B681846E1
:1035200007F10807BD46BDE8804004B0704700BF02
:1035300080B582B000AF786039600D4B1B689A6827
:103540003B689A4205D00A4B1B68DA683B689A428E
:1035500006D17B68DBB21846FFF750FC7B6801E0C0
:103560004FF0FF33184607F10807BD4680BD00BF86
:103570003401002080B584B000AF786039604FF02E
:103580000003FB6014E07B681B7818463968FFF77E
:10359000CFFF0346B3F1FF3F02D14FF0FF330CE002
:1035A000FB6803F10103FB607B6803F101037B60AF
:1035B0007B681B78002BE6D1FB68184607F11007E3
:1035C000BD4680BD80B487B000AF78604FF0000387
:1035D0007B614FF000033B614FF00003FB604FF055
:1035E0000003BB60514B5B6803F00C037B617B699C
:1035F000042B07D0082B09D0002B35D17B684C4A0F
:103600001A6035E07B684A4A1A6031E0474B5B68D4
:1036100003F470133B61454B5B6803F48033FB603C
:103620003B694FEA934303F102033B61FB68002BC4
:1036300006D13B693F4A02FB03F27B681A6017E040
:103640003A4B5B6803F40033002B06D03B69394AE0
:1036500002FB03F27B681A600AE03B69344A02FB12
:1036600003F27B681A6003E07B68314A1A6000BF8E
:103670002E4B5B6803F0F0037B617B694FEA131309
:103680007B612D4A7B69D3181B78DBB2BB607B68FA
:103690001A68BB6822FA03F27B685A60234B5B68A6
:1036A00003F4E0637B617B694FEA13237B61224A69
:1036B0007B69D3181B78DBB2BB607B685A68BB6838
:1036C00022FA03F27B689A60184B5B6803F460533C
:1036D0007B617B694FEAD3237B61174A7B69D318EF
:1036E0001B78DBB2BB607B685A68BB6822FA03F2C6
:1036F0007B68DA600D4B5B6803F440437B617B6958
:103700004FEA93337B610D4A7B69D3181B78DBB298
:10371000BB607B68DA68BB68B2FBF3F27B681A6156
:1037200007F11C07BD4680BC704700BF0010024077
:1037300000127A0000093D003801002048010020F5
:1037400080B483B000AF78600B46FB70FB78002B31
:1037500007D00B4B0A4A91697A6841EA02029A61E2
:1037600008E0074B064A91697A686FEA020201EAAB
:1037700002029A6107F10C07BD4680BC704700BF8A
:103780000010024080B483B000AF78600B46FB703D
:10379000FB78002B07D00B4B0A4AD1697A6841EAC3
:1037A0000202DA6108E0074B064AD1697A686FEADB
:1037B000020201EA0202DA6107F10C07BD4680BC91
:1037C000704700BF0010024080B485B000AF786041
:1037D0004FF00003FB603A4BFB607B689B79002B4A
:1037E00059D0374B364A11687A6812686FEA02027C
:1037F00001EA02021A60324B314A51687A68126853
:103800006FEA020201EA02025A607B681B79FA68D9
:10381000D318FB60FB68FA6811687A68126841EA9D
:1038200002021A60264B264A91687A6812686FEA8B
:10383000020201EA02029A60214B214AD1687A68A9
:1038400012686FEA020201EA0202DA607B685B79C1
:10385000102B10D11A4B1A4A91687A68126841EA03
:1038600002029A60164B164AD1687A68126841EAD9
:103870000202DA601EE0124BFB607B685B79FA683B
:10388000D318FB60FB68FA6811687A68126841EA2D
:1038900002021A600EE07B681B79FA68D318FB609D
:1038A000FB68FA6811687A6812686FEA020201EA36
:1038B00002021A6007F11407BD4680BC704700BFC2
:1038C0000004014080B483B000AF7860034B7A6895
:1038D0005A6107F10C07BD4680BC704700040140E7
:1038E00080B483B000AF7860034B7A685A6107F107
:1038F0000C07BD4680BC70470004014080B58CB009
:1039000000AF786039604FF00003FB624FF00003B6
:10391000BB624FF000037B624FF000033B624FF04D
:103920000003FB617B68FB617B681B8A9BB2FB62C7
:10393000FA6A4CF6FF7302EA0303FB623B68DB881A
:10394000FA6A42EA0303FB62FB6A9AB27B681A8254
:103950007B689B899BB2FB62FA6A4EF6F31302EA1C
:103960000303FB623B689A883B681B8942EA0303B6
:103970009AB23B685B8942EA03039BB2FA6A42EA65
:103980000303FB62FB6A9AB27B689A817B689B8A1D
:103990009BB2FB62FA6A4FF6FF4302EA0303FB6243
:1039A0003B689B89FA6A42EA0303FB62FB6A9AB2AC
:1039B0007B689A8207F108031846FFF703FEFA694D
:1039C000384B9A4202D17B69BB6201E03B69BB6222
:1039D0007B689B899BB29BB21BB2002B0FDABA6A41
:1039E00013464FEA83039B184FEA83029A183B68F9
:1039F0001B684FEA4303B2FBF3F37B620EE0BA6A43
:103A000013464FEA83039B184FEA83029A183B68D8
:103A10001B684FEA8303B2FBF3F37B627A6A224BA3
:103A2000A3FB02134FEA53134FEA0313FB62FB6A33
:103A30004FEA13134FF0640202FB03F37A6AD31ABE
:103A40003B627B689B899BB29BB21BB2002B10DA56
:103A50003B6A4FEAC30303F13202134BA3FB021389
:103A60004FEA531303F00703FA6A42EA0303FB62C7
:103A70000FE03B6A4FEA031303F132020A4BA3FB48
:103A800002134FEA531303F00F03FA6A42EA0303E7
:103A9000FB62FB6A9AB27B681A8107F13007BD4668
:103AA00080BD00BF003801401F85EB5180B483B05A
:103AB00000AF78600B46FB70FB78002B08D07B686A
:103AC0009B899BB243F400539AB27B689A8107E0CA
:103AD0007B689B899BB223F400539AB27B689A81DE
:103AE00007F10C07BD4680BC704700BF80B487B0AB
:103AF00000AF786013460A467A807B704FF000036F
:103B00003B614FF00003FB604FF00003BB604FF0E0
:103B100000037B617B687B617B88DBB24FEA5313D8
:103B2000DBB23B617B8803F01F03FB60FB684FF057
:103B3000010202FA03F3BB603B69012B04D17B69EC
:103B400003F10C037B610BE03B69022B04D17B6921
:103B500003F110037B6103E07B6903F114037B61D4
:103B60007B78002B07D07B697A691168BA6841EAD3
:103B700002021A6008E07B697A691168BA686FEA24
:103B8000020201EA02021A6007F11C07BD4680BC6E
:103B9000704700BF80B483B000AF78600B467B8075
:103BA0007B884FEAC3534FEAD3539AB27B689A801B
:103BB00007F10C07BD4680BC704700BF80B483B0DE
:103BC00000AF78607B689B889BB24FEAC3534FEA93
:103BD000D3539BB2184607F10C07BD4680BC704713
:103BE00080B485B000AF78600B467B804FF0000357
:103BF000FB737B681B889AB27B8802EA03039BB243
:103C0000002B03D04FF00103FB7302E04FF00003E1
:103C1000FB73FB7B184607F11407BD4680BC704759
:103C200080B487B000AF78600B467B804FF0000314
:103C3000FB604FF000037B614FF00003BB604FF06F
:103C40000003FB747B88DBB24FEA5313DBB2BB602B
:103C50007B8803F01F037B617B694FF0010202FA4E
:103C600003F37B61BB68012B07D17B689B899BB207
:103C70007A6902EA03037B6111E0BB68022B07D17A
:103C80007B681B8A9BB27A6902EA03037B6106E0C8
:103C90007B689B8A9BB27A6902EA03037B617B881B
:103CA0004FEA13239BB2FB60FB684FF0010202FA5C
:103CB00003F3FB607B681B889BB2FA6802EA03038C
:103CC000FB607B69002B06D0FB68002B03D04FF014
:103CD0000103FB7402E04FF00003FB74FB7C184609
:103CE00007F11C07BD4680BC704700BF80B485B09B
:103CF00000AF78600B467B804FF00003FB814FF0F4
:103D00000003BB817B884FEA1323FB81FB894FF0C3
:103D1000010202FA03F3BB81BB896FEA03039AB283
:103D20007B681A8007F11407BD4680BC704700BF4E
:103D300080B485B000AF78600B4B1B68002B02D1BC
:103D40000A4A094B1A60084B1B68FB60064B1A684D
:103D50007B68D218044B1A60FB68184607F11407F9
:103D6000BD4680BC704700BF6C060020482500207F
:103D700080B582B000AF786039603B6803F1010222
:103D80007B681A607B684FF000025A607B684FF0D6
:103D900000029A607B681B6818464FF0010101F031
:103DA0005FFA03461A467B68DA6007F10807BD46EA
:103DB00080BD00BF80B483B000AF78607B684FF0F7
:103DC00000029A607B689A687B685A6007F10C076A
:103DD000BD4680BC704700BF80B483B000AF786040
:103DE0007B689A687B685B689A4214BF0023012352
:103DF000184607F10C07BD4680BC704780B483B0FD
:103E000000AF786039607B68DA687B689B68D3189C
:103E10003A6812781A707B689B6803F101037A682C
:103E2000126893FBF2F102FB01F29A1A7B689A6026
:103E30007B689A687B685B689A420CD17B685B6898
:103E400003F101037A68126893FBF2F102FB01F2BD
:103E50009A1A7B685A6007F10C07BD4680BC704710
:103E600080B483B000AF786039607B68DA687B68C3
:103E70005B68D3181A783B681A707B685B6803F13B
:103E800001037A68126893FBF2F102FB01F29A1ABD
:103E90007B685A6007F10C07BD4680BC704700BFC5
:103EA00080B483B000AF0346FB71094B97F907203C
:103EB0004FEA5212F97901F01F014FF0010000FAA8
:103EC00001F143F8221007F10C07BD4680BC704792
:103ED00000E100E080B483B000AF03463960FB71BD
:103EE00097F90730002B0DDA0E49FB7903F00F0329
:103EF000A3F104033A68D2B24FEA0212D2B2CB184D
:103F00001A760AE0084997F907303A68D2B24FEAC0
:103F10000212D2B2CB1883F8002307F10C07BD467A
:103F200080BC704700ED00E000E100E080B400AF2D
:103F3000024B1B781846BD4680BC7047C40E00205B
:103F400080B400AF024B1B781846BD4680BC70475A
:103F50007006002080B582B000AF0346FB712F4889
:103F60004FF00001FFF7A2FD2C4840F22551FFF76A
:103F7000BDFE2A4840F22661FFF7B8FEFB79002B10
:103F80001CD1274B264A526942F480625A61244B65
:103F9000234A526942F400625A61204840F2266185
:103FA0004FF00002FFF7A2FD1C4840F225514FF0F0
:103FB0000102FFF79BFDFEF719F91FE0184B184AA5
:103FC000126942F400621A61154B154A126942F4F3
:103FD00080621A61114840F225514FF00002FFF74C
:103FE00085FD0E4840F226614FF00102FFF77EFD8D
:103FF000FEF7EEF80B4B4FF000021A700A48FFF77D
:10400000D9FE0A4BFA791A7004484FF00101FFF704
:104010004DFD07F10807BD4680BD00BF00440040CC
:1040200000100140C50E002074060020C40E0020C0
:1040300080B588B000AF786013460A46FA70BB704E
:104040004FF400304FF00101FFF79CFB4FF00100EF
:104050004FF00101FFF774FB4FF004004FF0010136
:10406000FFF76EFB4FF010004FF00101FFF768FB08
:1040700007F10C031846FDF739FF4FF00803BB8129
:104080004FF00403FB734FF00303BB7307F10C0302
:104090003D481946FDF74AFE07F10C031846FDF7A7
:1040A00025FF4FF00403BB814FF01803FB734FF063
:1040B0000303BB7307F10C0333481946FDF736FEC3
:1040C00007F10C031846FDF711FF4FF40063BB81A5
:1040D0004FF01003FB734FF00303BB7307F10C03A6
:1040E0002A481946FDF722FE07F10C031846FDF792
:1040F000FDFE4FF48063BB814FF01003FB734FF064
:104100000303BB7307F10C0320481946FDF70EFEAD
:104110007B683B614FF00003BB834FF00C037B8354
:104120004FF00003FB824FF00803BB824FF0000307
:104130003B8307F1100316481946FFF7DFFB1448CD
:1041400040F225514FF00102FFF7D0FC4FF026005E
:10415000FFF7A6FE4FF026004FF00801FFF7BAFE6A
:104160000C484FF40461FFF703FE0B4BFA781A700A
:104170000A4BBA781A704FF00000FFF7EBFE07F118
:104180002007BD4680BD00BF00080140001001406F
:1041900000440040740600207006002071060020D4
:1041A00080B582B000AF2A4840F22551FFF738FDB4
:1041B0000346002B1AD0264840F22551FFF796FD02
:1041C000244B1B78002B11D12148FFF7F7FC034645
:1041D000DBB2FB7107F107031F481946FFF70EFE1C
:1041E0004FF000004FF06401FDF7DEF8184840F290
:1041F0002661FFF715FD0346002B24D0144840F23A
:104200002661FFF773FD134B1B78012B1BD112485E
:10421000FFF7E2FD0346002B0BD107F106030E4822
:104220001946FFF71DFEBB7909481946FFF7B2FC96
:1042300009E04FF003004FF00201FDF7B5F8074B1E
:104240004FF001021A7007F10807BD4680BD00BF9C
:1042500000440040C40E002074060020C50E00205B
:1042600080B584B000AF6F4B1B78002B40F0BD8051
:104270006D48FFF7B1FD0346002B40F0C6804FF0BC
:104280000000FDF747F80346002B00F0C0804FF018
:104290000003FB8107F1080363481946FFF7E0FDBF
:1042A0003A7A624B1B789A4203D05F48FFF782FD4F
:1042B000B4E05D48FFF790FD0346002B40F0A98075
:1042C00007F1070358481946FFF7CAFDFB89397AF9
:1042D000574AD154FB8903F10103FB81FB89F9792A
:1042E000534AD154FB8903F10103FB810DE007F12F
:1042F00006034D481946FFF7B3FDFB89B9794C4ACF
:10430000D154FB8903F10103FB814748FFF764FDAA
:104310000346002B04D1FA8940F63F039A42E6D9BE
:10432000FB8903F1FF33FB81FB89414AD35C4FEAF0
:104330000323BB81FB8903F1FF33FB81FB893C4AEB
:10434000D35C1A46BB8942EA0303BB81FB89384828
:1043500019464FF6FF72FDF7B7FC0346BA899A4239
:1043600059D1FB7903F1FF330E2B56D801A252F835
:1043700023F000BFB7430008E54300081B440008D2
:104380001B4400081B4400081B4400081B44000891
:104390001B4400081B4400081B4400081B44000881
:1043A0001B4400081B4400081B440008B1430008DC
:1043B00000F042F832E01E4BDB787B811C4B1B790E
:1043C0007B721B4B9B784FEA03239AB27B8942EAAC
:1043D00003039BB27B817A897B7A10461946FEF7EC
:1043E00025FA1BE0FEF756FA18E0124B1B78002B5B
:1043F00014D04FF00300FCF78DFF0346002B0DD0C7
:104400004FF00000FFF7A6FD08E000BF06E000BF88
:1044100004E000BF02E000BF00E000BF07F11007AA
:10442000BD4680BDC40E002074060020700600202A
:1044300084060020C50E002080B584B002AF0D4B6D
:104440001A780D4B1B783A714FF00F027A71BB71DD
:1044500007F104034FF00102009218464FF00301E8
:104460004FF000024FF0000300F008F807F10807D2
:10447000BD4680BD700600207106002080B588B062
:1044800000AFF860B9607A603B60BA683B68D218E8
:1044900097F82830002B02D04FF0020301E04FF0D4
:1044A0000003D3187B61FB68002B02D14FF000039F
:1044B00070E07B69B3F5046F02D94FF0000369E047
:1044C0004FF00100FFF746FD4FF00003FB610AE0EB
:1044D000FA68FB69D31832481946FFF78FFCFB696D
:1044E00003F10103FB61FA69BB689A42F0D34FF014
:1044F0000003BB610AE07A68BB69D31828481946F3
:10450000FFF77CFCBB6903F10103BB61BA693B683F
:104510009A42F0D397F82830002B28D0BB689BB282
:10452000F86819464FF6FF72FDF7CEFB03467B8213
:104530003B689AB27B8A786811461A46FDF7C4FB3D
:1045400003467B827B8ADBB27B7407F1110314483C
:104550001946FFF753FC7B8A4FEA13239BB2DBB269
:104560007B7407F111030E481946FFF747FC0C480E
:10457000FFF732FC0346002B0AD107F1100308486D
:104580001946FFF76DFC3B7C06481946FFF702FB16
:104590004FF00103184607F12007BD4680BD00BF5C
:1045A000740600200044004080B586B002AF034688
:1045B000FB71FFF7C5FC03463B734FF00A037B73A7
:1045C000FB79BB7307F10C034FF001020092184610
:1045D0004FF003014FF000024FF00003FFF74EFFD2
:1045E0000346184607F11007BD4680BD80B483B06E
:1045F00000AF0346FB71094B97F907204FEA5212AF
:10460000F97901F01F014FF0010000FA01F143F8C0
:10461000221007F10C07BD4680BC704700E100E0A6
:1046200080B483B000AF0346FB710A4B97F90720B3
:104630004FEA5212F97901F01F014FF0010000FA20
:1046400001F102F1200243F8221007F10C07BD46E8
:1046500080BC704700E100E080B483B000AF034647
:104660003960FB7197F90730002B0DDA0E49FB79A1
:1046700003F00F03A3F104033A68D2B24FEA021227
:10468000D2B2CB181A760AE0084997F907303A688F
:10469000D2B24FEA0212D2B2CB1883F8002307F14C
:1046A0000C07BD4680BC704700ED00E000E100E073
:1046B00080B400AF044B1B68002B0CBF0023012308
:1046C0001846BD4680BC7047D00E002080B584B02F
:1046D00000AF4FF010004FF00101FFF731F84FF03D
:1046E00001004FF00101FFF72BF807F10C0318460A
:1046F000FDF7FCFB4FF00103BB814FF00403FB739C
:104700004FF00303BB7307F10C0316481946FDF77E
:104710000DFB4FF006004FF00101FFF79DFF4FF03A
:1047200002004FF00001FDF779FC4FF001037B60C0
:104730004FF000033B724FF010037B724FF0010308
:10474000BB7207F104031846FFF73EF8064B1A68E0
:10475000064B1B681A43044B1A6007F11007BD464D
:1047600080BD00BF00100140C80E0020607100082D
:1047700080B588B000AF4E4B1A684E4BA3FB0213B6
:104780004FEA93439BB203F1FF33FB834FF00100E9
:104790004FF00101FEF7F6FF4FF002004FF001016C
:1047A000FEF7F0FF4FF004004FF00101FEF7C8FFE5
:1047B0004FF001004FF00101FEF7C2FF07F11803AF
:1047C0001846FDF793FB4FF002033B834FF00403C1
:1047D000FB764FF00303BB7607F118033648194602
:1047E000FDF7A4FA4FF6FF733B82FB8BBB814FF0C2
:1047F00000037B824FF00003FB8107F10C032F487D
:104800001946FCF72BFE2D484FF001014FF0010235
:10481000FCF726FF4FF004033B804FF000037B8042
:104820004FF00103BB804FF00803FB804FF0000303
:104830003B813B464FF080401946FCF78FFE4FF01E
:1048400080404FF06001FCF731FF4FF080404FF0A7
:104850000401FCF749FF4FF080404FF08001FCF766
:104860005FFF4FF080404FF004014FF00102FCF772
:10487000F7FE4FF01C00FFF7B9FE4FF01D00FFF7E9
:10488000B5FE4FF01C004FF00401FFF7E5FE4FF0BE
:104890001D004FF00301FFF7DFFE094B1A68094BBB
:1048A0001B681A43064B1A6007F12007BD4680BDFE
:1048B0000400002083DE1B43000801400004004088
:1048C000C80E00206471000880B582B000AF786027
:1048D000454B1A68454B1B681A40444B1B689A426B
:1048E00001D0FFF745FF404B1A68414B1B681A4047
:1048F0003F4B1B689A4201D0FFF7E8FE7B68002B14
:104900006DD03C4B7A681A603A4B1B6818464FF0E2
:1049100000014FF4006201F09BF8364B1B6803F175
:104920001002344B1B68DB684FEA8303D218324B0A
:104930009B6803F00103DBB2002B02D04FF00003B1
:1049400001E04FF001031046194600F069FA2B4BC5
:104950004FF000021A602A4B4FF000021A60294BF8
:104960004FF000021A804FF080404FF00001FCF73A
:10497000F3FE25484FF00001FCF7EEFE4FF08040BB
:104980004FF00101FCF74CFE1F484FF00001FCF70F
:1049900047FE4FF080404FF00401FCF775FF1A48C6
:1049A0004FF00101FCF770FF4FF00100FEF798FF98
:1049B0004FF00100FEF786FF4FF01D00FFF716FED7
:1049C0004FF00600FFF712FE104B104A126842F03B
:1049D00001021A600E4B4FF001021A6000E000BFA6
:1049E00007F10807BD4680BDC80E002064710008AD
:1049F00060710008CC0E002000100140D40E002091
:104A0000DC0E0020D80E002000040040000401400D
:104A1000D00E002098B500AF4FF01D00FFF700FE4C
:104A20004FF00600FFF7FCFD114B114A126822F00F
:104A300001021A604FF080404FF00001FCF7F0FDDA
:104A40000C484FF00001FCF7EBFD0B4B1B68002BF3
:104A500008D0094B1C68094B1B68184600F06CF91C
:104A60000346A360064B4FF000021A6098BD00BFDA
:104A70000004014000040040CC0E0020DC0E0020A9
:104A8000D00E002080B584B000AF424B1B68002BD5
:104A900077D0414B1B68002B73D040484FF000018A
:104AA000FCF7BEFD3B4B1B68DB68FB603B48FCF73B
:104AB000ABFE0346BB60374B1B68FA6802F1040289
:104AC00053F82230184600F0CDF97860314B1B685E
:104AD00003F11002FB684FEA8303D218FB6803F16D
:104AE0000103FB607968BB68CB181046194600F0DB
:104AF00077F9284B1B6803F11002FB684FEA830328
:104B0000D31818464FF0000100F06AF9214B1B68DA
:104B100003F11002FB684FEA8303D218204B9B6815
:104B200003F00103DBB2002B02D04FF0000301E0E1
:104B30004FF001031046194600F072F9154B1B683F
:104B4000FA68DA6015484FF00001FCF705FE1348DB
:104B50004FF00101FCF764FD124B1A68BB68D218D4
:104B6000104B1A600F4B1A680F4B1B689A4206D8FD
:104B7000084B1B68DA6840F2FB139A4201D9FFF731
:104B800049FF0A4B4FF001025A6107F11007BD4679
:104B900080BD00BFCC0E0020D00E002000040040DD
:104BA00000100140D40E002068710008000401408C
:104BB00080B582B000AF234B1B68002B38D0224B4E
:104BC0001B68002B34D01F4B1B681E4A1268D2682A
:104BD00002F1040253F82230184600F043F97860DD
:104BE000184B1B6803F11002164B1B68DB684FEA79
:104BF0008303D21879684FF6FF73CB181046194615
:104C000000F0EEF8114B1A68114B1B68D2180F4BCD
:104C10001A600E4B1A680F4B1B689A4206D8094B54
:104C20001B68DA6840F2FB139A4201D9FFF7F2FEE3
:104C300009484FF00101FCF727FE07F10807BD46C0
:104C400080BD00BFCC0E0020D00E0020D40E00206E
:104C50006C710008687100080004004080B582B0E3
:104C600000AF4FF080404FF00401FCF70DFE4FF015
:104C70008040FCF7BBFD0346FB80FB88002B35D052
:104C8000204B1A68FB88B2FBF3F3184600F054F887
:104C900038603B68002B24D01B4B1B889AB21B4BFF
:104CA0001B889A422AD21A4B1B683A689A4206D14C
:104CB000154B1B889BB203F101039BB201E04FF03F
:104CC0000003114A1380124B3A681A600E4B1B887E
:104CD0009AB20E4B1B889A4210D30E4B3A681A6058
:104CE0000CE0094B4FF000021A8007E0084B4FF030
:104CF00000021A60044B4FF000021A8007F1080707
:104D0000BD4680BD04000020D80E00207071000850
:104D1000E00E0020DC0E002080B483B000AF78608D
:104D200039603A687B689A4238BF1346184607F1E3
:104D30000C07BD4680BC704780B487B000AF786078
:104D40004FF000033B614FF00003FB604FF00003A6
:104D50007B6132E0204B7A6953F822207B68D31ABA
:104D6000002BB8BF5B423B617B6903F101021A4B28
:104D700053F822207B68D31A002BB8BF5B42FB603C
:104D80003B69B3F57A7F08D9FB68B3F57A7F04D91C
:104D90007B6903F101037B610FE03A69FB689A428A
:104DA00004D20D4B7A6953F8223005E07B6903F198
:104DB0000102094B53F8223008E0084B1B6803F14D
:104DC000FF327B699A42C5D84FF00003184607F1BD
:104DD0001C07BD4680BC70477C710008BC71000890
:104DE00080B483B000AF786039607B681A680B4B81
:104DF0001B686FEA03031A407B681A607B681A68B5
:104E0000064B19683B6801EA03031A437B681A6082
:104E100007F10C07BD4680BC704700BFC071000899
:104E200080B483B000AF78600B46FB70FB78002B3A
:104E300006D07B681A680A4B1B6842EA030307E046
:104E40007B681A68064B1B686FEA030302EA0303D8
:104E50007A68136007F10C07BD4680BC704700BF3D
:104E6000C471000880B483B000AF7860054B1A6845
:104E70007B6802EA0303184607F10C07BD4680BCB5
:104E8000704700BFC071000880B483B000AF786085
:104E9000084B1A687B681A40064B1B689A4214BF7D
:104EA00000230123DBB2184607F10C07BD4680BC86
:104EB000704700BFC471000890B585B000AF78603E
:104EC0007B68002B4CD07B681B6828481946FEF78E
:104ED00019FB7B689B6826481946FEF713FB7B6825
:104EE0005B689BB223481946FEF70CFB7B68DB68C6
:104EF00021481946FEF706FB7B68DB68B3F5FE7FA9
:104F000003D91E48FEF7FEFA2BE04FF00003FB60CA
:104F10001DE07B68FA6802F1040253F8223018465B
:104F2000FFF7B2FF03461C467B68FA6802F10402F1
:104F300053F822301846FFF795FF03461048F968EA
:104F40002246FEF7DFFAFB6803F10103FB607B6892
:104F5000DA68FB689A42DCD80A48FEF7D3FA00E028
:104F600000BF07F11407BD4690BD00BFC87100081F
:104F7000D8710008F0710008007200080C72000877
:104F80002C7200084872000880B483B000AF7860CB
:104F90007B68002B02D14FF0000328E07B68DA68C1
:104FA00040F2FB139A4202D94FF000031FE07B68E6
:104FB0009A68124B1B689A4205D37B689A68104B1B
:104FC0001B689A4202D94FF0000310E07B689A6890
:104FD00048F69F439A4205D97B689A6849F2704324
:104FE0009A4202D94FF0000301E04FF00103184646
:104FF00007F10C07BD4680BC704700BF7471000804
:1050000078710008F0B589B002AF78603960874BDD
:105010001B78002B20D08648FEF774FA7B68002BA3
:105020000BD07B6819687B685A687B689B687868D6
:10503000C06800907F48FEF765FA3B68002B0BD0F4
:105040003B6819683B685A683B689B683868C06869
:1050500000907848FEF756FA7868FFF795FF034608
:1050600083F00103DBB2002B02D04FF00003D7E046
:105070003868FFF789FF034683F00103DBB2002B9A
:1050800002D04FF00003CBE07B68DA683B68DB6856
:10509000D31A002BB8BF5B421A46674B1B689A4273
:1050A00002D94FF00003BBE07B689A683B689B68BD
:1050B0009A4202D04FF00003B2E04FF000037B6150
:1050C0004FF00003FB607B68DA683B68DB681046E2
:1050D0001946FFF721FEB8604FF000033B618CE0FA
:1050E0007B683A6902F1040253F822301846FFF750
:1050F000B9FE04463B683A6902F1040253F82230D3
:105100001846FFF7AFFE0346E31A002BB8BF5B4219
:10511000FB60464B1B78002B32D07B683A6902F16A
:10512000040253F822301846FFF7AEFE03461E462F
:105130007B683A6902F1040253F822301846FFF7FF
:1051400091FE05463B683A6902F1040253F82230A9
:105150001846FFF799FE03461C463B683A6902F180
:10516000040253F822301846FFF77CFE03460093F2
:10517000FB680193314831462A462346FEF7C2F9BF
:105180007B683A6902F1040253F822301846FFF7AF
:105190007BFE03461C463B683A6902F1040253F861
:1051A00022301846FFF770FE03469C420AD07B6906
:1051B00003F101037B611D4B1B78002B02D02048BB
:1051C000FEF7A0F91F4B1B68FA689A420AD97B695F
:1051D00003F101037B61154B1B78002B02D01A48A9
:1051E000FEF790F9114B1B78002B02D01048FEF708
:1051F00089F93B6903F101033B613A69BB689A4253
:10520000FFF46EAF094B1B78002B03D00F48796970
:10521000FEF778F97B69002B14BF00230123DBB272
:10522000184607F11C07BD46F0BD00BFE40E002084
:10523000487200084C7200084C0100207C72000883
:105240009C72000850010020A0720008A47200089F
:1052500000210A2201F0C2B800220A2301F00CB892
:1052600040F234130A46C2F200030146186800F007
:1052700001B800BF38B501FB02F100F029F804467F
:10528000F8B150F8042C22F00302043A242A1AD868
:10529000132A03460FD9002140F8041B031D1B2AC3
:1052A000616008D91D1D416059600833242A02BF7E
:1052B0006960596008331A46002142F8041B59609E
:1052C0005160204638BD002100F0C2FB204638BDA9
:1052D0002DE9F04F01F10B04162C83B0064631D9AD
:1052E00024F00704E30F8C422CBF194643F0010160
:1052F000002930D1304600F005FCB4F5FC7F2FD2F8
:105300004FEAD40C40F25415C2F2000505EBCC0272
:105310002F46D368934200F02D825C6803F10808A1
:10532000DA68304624F0030499681B195C68CA6087
:1053300044F0010491605C6000F0E6FB404603B07D
:10534000BDE8F08F002310248C422CBF194643F097
:1053500001010029CED00C234FF000083360EDE7A7
:105360005FEA542C04BF4FEAD40C4FEACC0040F063
:10537000868040F25415C2F2000528182F46C368F3
:10538000984206D10DE0002980F27981DB689842CD
:1053900007D05A6822F00302111B0F29F3DD0CF12C
:1053A000FF3C0CF1010CBD4A93689A4208BF786833
:1053B00024D0586820F00300011B0F2900F3C0819E
:1053C0000029D260926080F29480B0F5007F80F076
:1053D0007781C0084FF0010ED7F8048007EBC001B9
:1053E00080100EFA00F0D960D1F808E040EA080019
:1053F0007860C3F808E0CEF80C308B604FF0010EF7
:105400004FEAAC030EFA03FE86457DD810EA0E0F74
:1054100008D12CF0030C4FEA4E0E0CF1040C10EAEC
:105420000E0FF8D007EBCC0AE146D046D8F80C00B6
:10543000804507D196E1002B80F2A681C0688045A7
:1054400000F09081416821F003010B1B0F2BF2DD6E
:105450008046C568011944F0010E58F8087F43F0F2
:105460000104C0F804E030464C60FD60AF60D160DC
:105470009160CA608A60CB5000F046FB5EE7BCF1E9
:10548000040F9EBF4FEA941C0CF1380C4FEACC007D
:105490007FF66FAFBCF1140F9CBF0CF15B0C4FEAB1
:1054A000CC007FF666AFBCF1540F9EBF4FEA143CB0
:1054B0000CF16E0C4FEACC007FF65BAFBCF5AA7F17
:1054C0009EBF4FEAD43C0CF1770C4FEACC007FF63C
:1054D00050AF40F254539C4595BF4FEA944C4FF463
:1054E0007C700CF17C0C4FF07E0C98BF4FEACC0026
:1054F0003FE71A1803F108083046536843F00103E8
:10550000536000F001FB19E7D7F80880D8F80430A1
:1055100023F003094C45C4EB090294BF0023012387
:105520000F2AD8BF43F00103002B00F0B98040F6EA
:10553000E86AD5F80834C2F2000A3046B3F1FF3FFA
:10554000DAF8002002F1100BA3441FBF0BF57E6BAD
:105550000BF11F0B2BF47E6B2BF01F0B594600F049
:10556000D5FAB0F1FF3F034600F0188108EB0901BE
:10557000814200F21081DAF8042081425A44CAF8CC
:10558000042000F03E81D5F808E440F25415C2F240
:105590000005BEF1FF3F17BF8218C5F80804C1EB34
:1055A0000201CAF8041010F0070517BFC5F108057D
:1055B0004FF48055431905F5805503EB0B02304637
:1055C00001931205120DAD1A294600F09FFA019BB6
:1055D000B0F1FF3F00F02C81C11A491941F00101DF
:1055E000DAF80420B84540F6E86BBB602A44C2F202
:1055F000000B5960CAF8042017D0B9F10F0F40F220
:10560000E180A9F10C03D8F8045023F0070305202A
:1056100008EB03010F2B05F0010543EA0505C8F867
:1056200004504860886000F2FB80DAF82C1040F6E5
:10563000E863C2F200038A42DAF8301088BFDA6207
:1056400040F6E8638A42C2F2000340F2A780D7F82E
:1056500008801A63D8F8043023F003039C42C4EB9B
:10566000030294BF002301230F2AD8BF43F0010394
:10567000B3B130464FF0000800F046FA5EE69A18E3
:10568000D9689C6803F108085568304645F0010365
:10569000E1608C60536000F037FA4FE65C01002057
:1056A00008EB040342F0010244F001043046C8F85C
:1056B000044008F108085A60BB6000F025FA3DE696
:1056C000410A04299CBF4FEA901E0EF1380E1DD9E5
:1056D000142998BF01F15B0E18D954299CBF4FEAD9
:1056E000103E0EF16E0E11D9B1F5AA7F9CBF4FEAA4
:1056F000D03E0EF1770E09D940F2545E714596BF47
:105700004FEA904E4FF07E0E0EF17C0E07EBCE0866
:10571000D8F80810414503D147E08968884505D08D
:10572000D1F804E02EF0030E7045F6D3D1F80CE06A
:10573000C3F80CE099607868CB60CEF808305DE67D
:105740001D1941F00107D56044F001049560304611
:105750005C6003F10808EA60AA606F60695000F0BD
:10576000D3F9EBE509F1010919F0030F2FD008F186
:1057700008085BE603F108025B699A4208BF0CF176
:10578000020C3FF410AEC8E580464318C2683046AC
:1057900058F8081FCAE5B8453FF4EDAED7F80880C1
:1057A000D8F8043023F0030358E74FF00109D7F885
:1057B00004804FEAAE008E4609FA00F048EA000085
:1057C0007860B5E7984601225A60002346E75146C3
:1057D0001CF0030F0B460CF1FF3C2CD053F80819BA
:1057E0009942F5D07B684FEA4E0E9E453FF68CAE4F
:1057F000BEF1000F3FF488AE1EEA030F20D0CC4666
:1058000010E64FEA015E4FEA1E5EBEF1000F7FF424
:10581000BAAEBB680BEB090141F00101596004E726
:10582000304608F1080100F039FEDBF80420FCE600
:1058300001210025D4E67B6823EA0E037B60D1E7D3
:105840004FEA4E0E09F10409D6E700BF032A2DE9FD
:10585000F00109D82AB10023CC5CC454013393422F
:10586000FAD1BDE8F00170470B468218014603E00B
:105870002478013301F8014B11F0030F1C46F7D1D6
:1058800013F003055DD06E42C5F1040CED009B5989
:105890004FEACC0C08E00434A7593B4607FA0CF752
:1058A00048EA070741F8047B571A23FA05F8032F43
:1058B000F1DC03E014F8013B01F8013B8A42F9D81E
:1058C000CFE753F8404C41F8404C53F83C4C41F87A
:1058D0003C4C53F8384C41F8384C53F8344C41F8B0
:1058E000344C53F8304C41F8304C53F82C4C41F8C0
:1058F0002C4C53F8284C41F8284C53F8244C41F8D0
:10590000244C53F8204C41F8204C53F81C4C41F8DF
:105910001C4C53F8184C41F8184C53F8144C41F8EF
:10592000144C53F8104C41F8104C53F80C4C41F8FF
:105930000C4C53F8084C41F8084C53F8044C41F80F
:10594000044C561A1D460C46403340313F2EB8DCFD
:105950002B460FE053F8101C44F8101C53F80C1C95
:1059600044F80C1C53F8081C44F8081C53F8041C99
:1059700044F8041C161B21461D46103410330F2E0C
:10598000E8DC2B4602E0246841F8044B551A1C461B
:10599000032D03F10403F6DC90E700BF88420346C1
:1059A000F0B40C460ED98D18A8420BD242B1831820
:1059B00029469A1A11F8014D03F8014D9342F9D185
:1059C000F0BC70470F2A38D941EA000515F0030FE3
:1059D00035D1A2F1100601F110050B460246370938
:1059E00005EB07151C6814605C6854609C68946043
:1059F000DC681033D46010329D42F3D17C1C06F079
:105A00000F022401032A00EB0403214414D9043AB1
:105A10000C461D464FEA920C01EB8C07043754F8F4
:105A2000046BBC4245F8046BF9D10CF1010402F09F
:105A30000302A4001B1909190C46002AC0D02146F4
:105A4000A21811F8014B914203F8014BF9D1B7E7C5
:105A5000032AC9B270B408D82AB10346121803F851
:105A6000011B9342FBD170BC70478218044601E0D1
:105A700004F8011B14F0030FFAD14FF0013303FBBC
:105A800001F31FE044F8403C44F83C3C44F8383C07
:105A900044F8343C44F8303C44F82C3C44F8283C6E
:105AA00044F8243C44F8203C44F81C3C44F8183C9E
:105AB00044F8143C44F8103C44F80C3C44F8083CCE
:105AC00044F8043C161B254640343F2EDADC2C46B5
:105AD00007E044F8103C44F80C3C44F8083C44F817
