:020000040800F2
:100000008C160020E90D0008350E0008350E00089A
:10001000350E0008350E0008350E000800000000FF
:10002000000000000000000000000000350E000885
:10003000350E000800000000350E0008350E0008DF
:10004000350E0008350E0008350E0008350E000884
:10005000350E0008350E0008A5120008350E000800
:10006000350E0008350E0008350E0008350E000864
:10007000350E0008350E0008350E0008350E000854
:10008000350E0008350E0008350E0008000000008F
:10009000000000000000000000000000350E000815
:1000A000350E0008350E0008350E0008350E000824
:1000B00065130008BD130008350E0008350E000852
:1000C000350E0008350E0008350E0008350E000804
:1000D000350E0008350E0008350E0008350E0008F4
:1000E000350E0008350E0008350E0008000000002F
:1000F0000000000000000000000000000000000000
:1001000000000000000000000000000000000000EF
:100110000000000000000000350E0008350E000849
:100120005FF808F130B403464FF00002104601E0DA
:1001300002F101029C1894F8504014B98A42F7DB8E
:100140001AE08A4218DA00F1300402F150055D1914
:1001500043F8245000F1010007280BDC2C4602F183
:10016000010214F8015F15B18A42F8D104E091420E
:10017000E0DC01E04FF0FF3030BC704710B586B0D6
:1001800004464FF00703009302A84FF01001054A00
:100190004FF06E0301F058FED4F8E83002A89847FB
:1001A00006B010BD1432000810B584B004464FF0FC
:1001B0000002009201AB43F8042B43F8042B1A60B1
:1001C0000B1E06DD68464FF010010A4A01F03CFEA6
:1001D00009E0002B07DA68464FF01001064AC3F128
:1001E000000301F031FED4F8E8306846984704B0C7
:1001F00010BD00BF20320008283200082DE9F04170
:1002000082B005460C469046D0F8E830154898472D
:100210004FF000038DF804308DF80530D5F8B83074
:100220009C4215DA04F14F06AE194FF0200716F87C
:10023000013F8DF804300BB98DF80470D5F8E83023
:1002400001A8984704F10104D5F8B830A342EEDCC8
:100250002846FFF793FF28464146FFF7A5FF02B067
:10026000BDE8F08130320008F8B50546844600F15B
:1002700050002C6C2E5D86B1324623464FF00007AD
:1002800003F101039B183F2BC8BF403B07F1010757
:100290001CF80320002AF3D101E04FF000070029E9
:1002A00039D1A96CB9427EDC002E7CD007F1FF3336
:1002B000994276D07F1A4FF0010304F10104A4198A
:1002C0003F2CC8BF403C1CF804601EB103F1010381
:1002D000BB42F2D12A5D002A65D001F10101A96477
:1002E00013193F2B05DC04F10101691801F098FF97
:1002F0000FE0C4F13F0604F101016918324601F034
:100300008FFF06F150002A5D28182946921B01F044
:1003100087FF2B5D35E0AB6C002B44DD03F1FF3232
:10032000AA649EB1BA4211D0C3F10103DF194FF0A4
:10033000000204F10104A4193F2CC8BF403C1CF882
:1003400004601EB102F10102BA42F2D12A5D131912
:100350003F2B05DC04F10101691801F061FF0FE09A
:10036000C4F13F0604F101016918324601F058FF5B
:1003700006F150002A5D28182946921B01F050FF13
:100380002B5D83B1C5F8B830C5F8BC302846FFF7FF
:10039000F5FE28464FF00001D5F8BC20FFF72EFFF0
:1003A000F8BD2A5D99E7F8BD10B50446D0F8BC3019
:1003B000002B23DDD0F8E8301148984704F15001B4
:1003C000D4F8BC3003F1FF30D4F8B82002F10102B8
:1003D0000818C918D21A01F0CBFFD4F8BC3003F1C9
:1003E000FF33C4F8BC30D4F8B830E2184FF0000145
:1003F00082F8501003F1FF33C4F8B83010BD00BFCD
:100400003432000870B505460E461446D0F8B830B0
:10041000D218642A30DC00F15001D0F8BC20A018BA
:10042000081889189A1A01F0A3FF002C12DDD5F8DC
:10043000BC1001F1500169184FF000031846F25C3E
:1004400001F8012B202A08BF01F8010C03F1010378
:10045000A342F4D1D5F8BC301B19C5F8BC30D5F88F
:10046000B830E418C5F8B8402C194FF0000384F8F0
:1004700050304FF0010070BD4FF0000070BD00BF64
:1004800038B504460D4600F150004FF000014FF022
:10049000650201F0C7FF20464FF000014FF0400217
:1004A00001F0C0FF4FF0000323646364A364C4F849
:1004B000B830C4F8BC30C4F8E030C4F8E430C4F854
:1004C000EC30034B1B68E364C4F8E85038BD00BF50
:1004D00000000020C0F8E410704700BFC0F8E01032
:1004E000704700BFC0F8EC10704700BF2DE9F04323
:1004F00083B0044601918C4B1B68002B6AD09DF899
:1005000004305B2B04D14FF00102874B5A606EE23E
:10051000854A5268012A42D1412B04D14FF0000193
:10052000FFF7A2FE57E2422B04D14FF00101FFF783
:100530009BFE50E2432B11D1D0F8BC20D0F8B8304C
:100540009A4280F248824FF00101FFF72DFED4F865
:10055000BC3003F10103C4F8BC303CE2442B0FD1A2
:10056000D0F8BC30002B40F336824FF0FF31FFF75C
:100570001BFED4F8BC3003F1FF33C4F8BC302AE2D0
:10058000372B04D14FF00202674B5A602FE2382B11
:1005900040F02D824FF00302634B5A6027E27E2B1E
:1005A00040F02582022A06D1FFF7E8FD4FF0000354
:1005B000C4F8BC300FE2032A40F01982D0F8B8101A
:1005C000D0F8BC30C91AFFF7EFFDD4F8B830C4F842
:1005D000BC3000E2019A02F1FF337E2B00F2E7818A
:1005E000DFE813F0A601BE01E001E5019A01AD01CB
:1005F000E501D701020185009101E5018500D201E5
:10060000E501CD01E501E501E501E5017F00E50139
:10061000E501E501E501E5017F01E501E501E50110
:10062000E501E501E501E501E501E501E501E5019A
:10063000E501E501E501E501E501E501E501E5018A
:10064000E501E501E501E501E501E501E501E5017A
:10065000E501E501E501E501E501E501E501E5016A
:10066000E501E501E501E501E501E501E501E5015A
:10067000E501E501E501E501E501E501E501E5014A
:10068000E501E501E501E501E501E501E501E5013A
:10069000E501E501E501E501E501E501E501E5012A
:1006A000E501E501E501E501E501E501E501E5011A
:1006B000E501E501E501E501E501E501E501E5010A
:1006C000E501E501E501E501E501E501E501E501FA
:1006D000E501E501E501E501E501E501E501E501EA
:1006E000D701D0F8BC20002A00F3008105E1D0F842
:1006F000E8300E489847D4F8B850002D4CDD23461A
:100700003E2D03DD48E0A2F140021A641A6C995CA8
:10071000A1B1586C82420BDC02F13F06301A8542CF
:1007200080F25E810AE000BF40010020E43400084E
:1007300002F1FF36301A854280F25281236CE25C6E
:1007400002B9E55404F15001636CC3F13F06B542B0
:1007500006DA03F10103E0182A4601F061FD0CE01E
:1007600003F10103E018324601F05AFD06F1500191
:1007700020466118AA1B01F053FD636CE554ED1887
:1007800005F1010565643F2DC4BF403D6564626CA1
:100790004FF00003A354A3642046D4F8B810FFF729
:1007A000C1FCB0F1FF3F04D1D4F8E830914898473C
:1007B00007E0002805DDD4F8E03013B104F1C001F2
:1007C0009847D4F8E830E06C98474FF00005C4F83B
:1007D000B850C4F8BC5004F1500029464FF06502EF
:1007E00001F020FEA56402E1D0F8E430002B00F017
:1007F000FE80D0F8BC10FFF795FC8146D4F8BC30E1
:10080000E31893F84F3033B900F130037A4A44F8D3
:10081000232000F10109D4F8E430484604F1C00176
:10082000984706460068002800F0E1807368B3B975
:1008300001F040FF054633E05B5D02F1FF3156F801
:100840002110495D994200D133B9D4F8E8306B48A2
:100850009847306870B91BE005F1010503E04FF0DF
:1008600001024FF0000556F82230002BE4D102F1CE
:100870000102F8E73746DFF88881D4F8E830984776
:10088000D4F8E8304046984757F8040F0028F4D1D0
:10089000D4F8E83059489847D4F8E830E06C9847E5
:1008A000A5B109F12F0954F8290001F003FF024610
:1008B000316820468918AA1AFFF7A4FD73682BB97E
:1008C00020464F494FF00102FFF79CFD2046FFF7FD
:1008D00055FC20464FF00001D4F8BC20FFF78EFCF9
:1008E00085E04FF00102474B1A6080E02046FFF799
:1008F0005BFDD4F8BC20002AF8DC20464FF0000154
:10090000FFF77CFC73E0D0F8E8303F489847D4F814
:10091000BC30C4F8B8306AE0D0F8B810D0F8BC30B9
:10092000C91AFFF741FCD4F8B830C4F8BC305EE017
:10093000FFF724FC4FF00003C4F8BC3057E0D0F8B8
:10094000BC20D0F8B8309A4251DA4FF00101FFF7DD
:100950002BFCD4F8BC3003F10103C4F8BC3046E0F2
:10096000D0F8BC30002B42D04FF0FF31FFF71CFC19
:10097000D4F8BC3003F1FF33C4F8BC3037E04FF09B
:100980000001FFF771FC32E04FF00101FFF76CFC52
:100990002DE0FFF709FDD4F8BC2020461146FFF7F3
:1009A0002DFC24E0D0F8EC300BB398471FE0202A50
:1009B00002D1D0F8B830D3B1204601A94FF00102DE
:1009C000FFF720FD98B1D4F8BC20204602F1FF319A
:1009D000FFF714FC0BE04FF000020A4B1A6006E030
:1009E00002F1010252183F2A3FF78DAE8DE603B0A7
:1009F000BDE8F0833C320008E0320008E43400082F
:100A000054320008400100203032000830B4048C19
:100A100024F001044FEA04444FEA14440484048B94
:100A2000058CADB224F0F3044FEA04444FEA1444B9
:100A300042EA040444EA0314A4B2134B984211D0CE
:100A400003F5006398420DD0B0F1804F0AD00F4BF0
:100A5000984207D003F58063984203D003F5806382
:100A6000984206D125F0020545F0010545EA01014D
:100A700005E025F00A0545F0010545EA010104837A
:100A8000018430BC704700BF002C014000040040CE
:100A900030B4048C24F010044FEA04444FEA1444A8
:100AA0000484048B058CADB224F440744FEA0454E2
:100AB0004FEA145444EA022444EA0334A4B2134B28
:100AC000984211D003F5006398420DD0B0F1804FE9
:100AD0000AD00F4B984207D003F58063984203D0A9
:100AE00003F58063984207D125F0200545F01005F5
:100AF00045EA011189B205E025F0A00545F0100591
:100B000045EA01010483018430BC7047002C014098
:100B10000004004003889BB2254A904211D002F5A0
:100B2000006290420DD0B0F1804F0AD0214A90422D
:100B300007D002F58062904203D002F580629042B5
:100B400006D14FF68F7203EA02024B8842EA030392
:100B5000194A904226D002F58062904222D04FF688
:100B6000FF4203EA0202CB881A4302808B88838506
:100B70000B8803850E4B98420ED0104B98420BD039
:100B800003F54063984207D003F58063984203D091
:100B900003F58063984201D10B7A03864FF001037D
:100BA0008382704703808B8883850B880385E4E705
:100BB000002C0140000400400010004000340140BF
:100BC00070B4038C23F001034FEA03434FEA13434D
:100BD0000384038C8488A4B2028B22F073024FEA50
:100BE00002424FEA12420D882A4323F002034FEAE1
:100BF00003434FEA13434E880D8946EA0505ADB21B
:100C000045EA0303174DA8420FD005F50065A84239
:100C10000BD005F54065A84207D005F58065A842D0
:100C200003D005F58065A84215D14FF6F77503EAA4
:100C300005054B891D434FF6FB7305EA03038D88B9
:100C40002B434FF6FF4504EA0505CE898C8946EA19
:100C50000404A4B22C4384800283CA88828603845D
:100C600070BC7047002C014029B103889BB243F04F
:100C7000010303807047038823F001034FEA034315
:100C80004FEA13430380704722B183899BB2194313
:100C90008181704783899BB223EA0101818170477A
:100CA000038923F070034FEA03434FEA134341EAF9
:100CB00003030381704700BF29B103889BB243F04F
:100CC000800303807047038823F080034FEA0343C7
:100CD0004FEA134303807047038B23F008034FEA66
:100CE00003434FEA134341EA03030383704700BF02
:100CF000038923F007034FEA03434FEA13430381B9
:100D000003899BB241EA030303817047038923F0FF
:100D100080034FEA03434FEA1343038103899BB2E5
:100D200041EA030303817047038B23F00C034FEA6E
:100D300003434FEA13430383038B9BB241EA03034C
:100D400003837047038B23F440634FEA03434FEA66
:100D500013430383038B9BB243EA01239BB20383B8
:100D6000704700BFF8B505460C46498800290CBFFE
:100D700002260026A288012A14BF01270227238801
:100D80008BB92389FFF742FE2846E188FFF7CCFFA5
:100D9000284631463A462389FFF77AFE2846E188FD
:100DA000FFF7D0FFF8BD2389FFF772FE2846E188E0
:100DB000FFF7C8FF284631463A462389FFF726FE4B
:100DC0002846E188FFF7B0FFF8BD00BF808E80B2F3
:100DD000704700BF008F80B2704700BF6FEA01010B
:100DE00089B20182704700BF08B50D4B0D4A9A4287
:100DF00008D20D4A0B4B0A4852F8041B43F8041B57
:100E00008342F9D309480A494FF000028842B8BF2B
:100E100040F8042BFADB00F05BFB00F057FC08BD48
:100E20004001002000000020CC36000840010020D6
:100E30008C120020FEE700BF70B4C0F5EA4202F158
:100E40003002002AB8BF5242C0F5FA410029B8BFAB
:100E50004942B2F57A7F17D9B1F57A7F19D9144C86
:100E600004F1380654F8045F2A1A002AB8BF524227
:100E70006368191A0029B8BF4942B2F57A7F0CD9C4
:100E8000B1F57A7F0DD808E04FF4FA4347F23055B8
:100E900003E04FF4FA4347F230558A4238BF2B46FD
:100EA00003E0B442DED14FF00003184670BC704737
:100EB0006C3200082DE9F04182B006464C4B1B68AD
:100EC00013F0010F5CD14B4B1A684B4BA3FB02187C
:100ED0004FEA583808F1FF381FFA88F84FF004003D
:100EE0004FF0010101F09EF84449A1F804804FF051
:100EF00000070F80CF804F80414D2846FFF70AFE44
:100F000040494FF070030B804FF001044C8008F112
:100F1000FF3808EB88083C4BA3FB08284FEAD808A9
:100F2000A1F806800F812846FFF74AFE28464FF0B9
:100F30000801FFF7D1FE2046214601F065F84FF089
:100F40000800214601F060F84FF04003ADF804308E
:100F50004FF018038DF807304FF003038DF806307B
:100F60002A4801A900F026FB28462146FFF7A4FEE7
:100F700028462146FFF778FE1D4B1A6822431A6067
:100F80001F4C20464FF00001FFF76EFE20464FF049
:100F90000001FFF791FE174B1B68B3FBF6F606F155
:100FA000FF36B6B215498E802046FFF7B3FD1549CE
:100FB00006F1FF3606EB8606134BA3FB06264FEA27
:100FC000D606CE802046FFF7FBFD20464FF00801F5
:100FD000FFF782FE20464FF00101FFF76DFE20462D
:100FE0004FF00101FFF740FE02B0BDE8F08100BF05
:100FF000480100200400002073B2E745641100207E
:101000000008004070110020CDCCCCCC000C014079
:101010002DE9F04188B00446854B1B6813F0020FA0
:1010200040F08380834B1D68834BA3FB05254FEA6B
:10103000954505F1FF35ADB24FF002004FF00101CB
:1010400000F0F0FF4FF00100014600F0EBFF4FF021
:1010500004004FF0010100F0D7FF4FF001000146FE
:1010600000F0D2FF07A800F007FB4FF08007ADF8B3
:101070001C704FF004068DF81F604FF003038DF8CD
:101080001E306E4807A900F095FA4FF0FF32ADF818
:101090001420ADF810504FF00005ADF81650ADF823
:1010A00012504FF0804004A9FFF734FD4FF080400C
:1010B0004FF001010A46FFF7E7FDADF80460ADF817
:1010C00006504FF00108ADF80880ADF80A50ADF8B1
:1010D0000C505B4D28460DEB0601FFF743FE2846FA
:1010E0004FF06001FFF7DCFD28463146FFF700FEB8
:1010F00028463946FFF70AFE284631464246FFF7A2
:10110000C3FD504B4FF080521A604FF0300283F80D
:101110001C234FF000521A604FF0400283F81D2349
:10112000434B1A6842F002021A60414B1B6813F0ED
:10113000040F3AD14FF010004FF0010100F064FFAE
:101140004FF00100014600F05FFF07A800F094FA9D
:101150004FF00105ADF81C504FF028038DF81F30FB
:101160004FF003038DF81E30374807A900F022FA2C
:101170004FF01006334B83F806634FF002004FF038
:10118000000100F083FA04954FF000038DF814304D
:101190008DF815608DF816500DEB060000F050FF2D
:1011A000234B1A6842F004021A60002C3CD0204BFA
:1011B0005C604FF0000323726372A372E3722373C7
:1011C0006373A373E373204B9B6813F0010F2369D0
:1011D00014BF43F0004323F000432361144B4FF04E
:1011E00000049C604FF00106DE601C61144F38461D
:1011F0004FF00401FFF7F2FD4FF080403146FFF75A
:10120000EDFD4FF08045AC84BC84304600F062FFB9
:1012100028462146FFF728FD38463146FFF724FDD2
:101220004FF04002074B1A6008B0BDE8F08100BFE4
:10123000480100200400002083DE1B430008014019
:101240000004004000E100E00010014010B54FF044
:1012500040020D4BC3F880204FF080404FF000015A
:10126000FFF702FD09484FF00001FFF7FDFC084BB6
:101270005C681CB11869FFF7DFFDA060044B4FF0FC
:1012800000025A60DA6010BD00E100E00004004096
:1012900048010020024BD868003818BF0120704771
:1012A0004801002070B54FF080404FF00001FFF77B
:1012B000DBFC294B5B68002B48D0DA684FF080419B
:1012C0008D8CADB202F1040053F8204002F101010F
:1012D000661926F0004604F0004446EA040443F888
:1012E000204002F1050253F8220000F0004043F8CC
:1012F00022001A4A906800F00100002814BF4FF045
:101300000040002001F1040243F82200D9604FF0B0
:1013100080444FF00003A38420464FF00101FFF703
:101320005DFD20464FF00101FFF79EFC0A4B9A68D5
:10133000AD189D609A680A4B9A4205D8064B5B68C7
:10134000DB68B3F5FE7F01D3FFF780FF4FF00100AC
:1013500000F0C0FE70BD00BF480100200010014039
:10136000404B4C0038B54FF080404FF00101FFF783
:1013700035FD104B5B68E3B1DC6804F1040153F800
:1013800021004FF6FF72851825F0004500F000405F
:1013900045EA000043F82100064B99688A189A60D4
:1013A0009A68054B9A4202D8B4F5FE7F01D3FFF745
:1013B0004DFF38BD48010020404B4C0010B51C4C7F
:1013C00020464FF00401FFF709FD2046FFF702FD1C
:1013D000184B98829B8A9BB21BB32046FFF7F6FC02
:1013E000144B9A8A92B24FF0640101FB00F191FB19
:1013F000F2F292B2DA829A8A92B20F490968B1FB8C
:10140000F2F29A619A6947F248139A420ED9094B4F
:101410009A694EF653439A4208D8064B9A691A6164
:1014200010BD044B4FF00002DA829A6110BD00BF7C
:1014300000040040480100200400002070B505466B
:1014400018B91B4800F07AFD70BD1A48296800F0F1
:1014500075FD1948A96800F071FD6968174889B2DF
:1014600000F06CFD1648E96800F068FDEB68B3F524
:10147000FE7F01D823B917E0124800F05FFD70BD70
:101480004FF00004104E04F1040355F823303046A9
:1014900021464FEAD37223F0004300F04FFD04F1E0
:1014A0000104EB68A342EED8084800F047FD70BD88
:1014B000B8320008D4320008E4320008FC320008D8
:1014C0000C33000818330008383300085433000880
:1014D00082B0354B1A6842F001021A605968334AEB
:1014E00001EA02025A601A6822F0847222F4803201
:1014F0001A601A6822F480221A605A6822F4FE02E6
:101500005A604FF41F029A604FF00002DA620192B3
:1015100000921A6842F480321A601A46136803F483
:1015200000330093019B03F101030193009B1BB95E
:10153000019BB3F5A06FF1D11B4B1B6813F4003F67
:1015400014BF012300230093009B012B26D1164BCF
:101550005A685A605A685A605A685A605A6822F43F
:101560007C125A605A6842F498125A601A6842F023
:1015700080721A601A46136813F0007FFBD00A4B82
:101580005A6822F003025A605A6842F002025A6016
:101590001A46536803F00C03082BFAD14FF000628F
:1015A000034B9A6002B07047001002400000FFF841
:1015B00000ED00E02DE9F003CB7803F00F0513F008
:1015C000100F1CBF8B781D430B7833B3D0F800C0CD
:1015D0004FF000034FF001064FF00F0806FA03F238
:1015E0000C8802EA0404944211D14FEA830708FAF6
:1015F00007F92CEA090C05FA07F74CEA070CCF7833
:10160000282F01D1446102E0482F08BF026103F195
:101610000103082BE2D1C0F800C00B88FF2B28D9AA
:10162000D0F804C04FF000034FF001064FF00F0850
:1016300003F1080206FA02F20C8802EA040494425A
:1016400011D14FEA830708FA07F92CEA090C05FAC9
:1016500007F74CEA070CCF78282F08BF4461CC78F5
:10166000482C08BF026103F10103082BE0D1C0F848
:1016700004C0BDE8F00370474FF0FF3303804FF024
:10168000020383704FF00403C370704730B401F05D
:1016900003024FEA82024FEA91010B4B01F1020172
:1016A00053F821504FF00F0404FA02F425EA040421
:1016B00043F8214053F8214000FA02F242EA0404C0
:1016C00043F8214030BC70470000014030B587B07E
:1016D0004FF480404FF0010100F096FC4FF0010004
:1016E000014600F091FC4FF004004FF0010100F0C2
:1016F0008BFC05A8FFF7C0FF4FF48062ADF8142003
:101700004FF004038DF817304FF003048DF81640A6
:10171000254805A9FFF74EFF05A8FFF7ADFF4FF4D9
:101720000073ADF814304FF018038DF817308DF8B2
:1017300016401D4805A9FFF73DFF4FF4E133019323
:101740004FF00003ADF810304FF00C02ADF80E2052
:10175000ADF80A304FF00802ADF80820ADF80C30B3
:10176000124801A900F0BCFC10484FF0010100F044
:101770002DFD0F4C20680F49FEF782FE20680E49B0
:10178000FEF7ACFE20680D49FEF7A4FE20680C4968
:10179000FEF7A8FE25462C6800F020F801462046FA
:1017A000FEF7A4FEF7E700BF000801400038014043
:1017B00018000020C5170008411800082D1A00085D
:1017C000991A000810B50446007828B100F06CF9A9
:1017D00014F8010F0028F9D110BD00BF38B5074D2E
:1017E0004FF020042846214600F00CFD0028F9D0D7
:1017F000024800F001FDC0B238BD00BF0038014012
:1018000008B50948FFF7DEFF0848FFF7DBFF084887
:10181000FFF7D8FF0748FFF7D5FF0748FFF7D2FFCC
:101820000648FFF7CFFF08BD5C330008843300088B
:10183000CC33000808340008303400085C34000859
:101840002DE9F84F8B46071E40F3C0800E464FF03F
:101850000005DFF8CC81DFF8CC91DFF8CCA156F899
:10186000044B2046414600F037FE88B95948FFF73F
:10187000A9FF5948FFF7A6FF5848FFF7A3FF5848AC
:10188000FFF7A0FF5748FFF79DFFFFF7B9FF94E070
:101890002046494600F020FE30B95348FFF792FF3A
:1018A0005248FFF78FFF88E02046514600F014FEB3
:1018B00000282CD105F10105AF4221DD5BF82500A0
:1018C00000F0A6FC012806D94948FFF77BFF4FF03E
:1018D000FF30BDE8F88F4FEAC020464C2418204660
:1018E000FFF796FB4448FFF76DFFFFF7D3FC002896
:1018F000FBD12046FFF7A2FD4FF00000BDE8F88FB6
:101900003E48FFF75FFF4FF0FF30BDE8F88F2046FD
:101910003B4900F0E1FDE0B905F10105AF420CDD06
:101920005BF8250000F074FC012808D93548FFF762
:1019300049FF4FF0FF30BDE8F88F4FF000004FEA4D
:10194000C0202C4B1818FFF779FD4FF00000BDE8C0
:10195000F88F20462C4900F0BFFD20BB05F10105A2
:10196000AF4219DD5BF8250000F052FCFFF764FA86
:10197000044630B92548FFF725FF4FF0FF30BDE89A
:10198000F88F2348214600F0D9FA2046FFF792FA53
:101990004FF00000BDE8F88F1E48FFF713FF4FF02F
:1019A0000100BDE8F88F1C48FFF70CFF56F8040C47
:1019B000FFF708FF1948FFF705FF05F10105BD42D4
:1019C0007FF44DAF4FF00000BDE8F88F4FF00000FE
:1019D000BDE8F88F803400088C340008903400088B
:1019E000A4340008E4340008B0340008B834000817
:1019F000C434000864010020D8340008E83400082A
:101A0000003500080835000824350008283500088E
:101A10004435000858350008743500088035000842
:101A200078340008A8340008BC3400082DE9F843D5
:101A30004FF00002164B1A60012816D10F68154BA3
:101A4000A3F1040403F114081646DFF8449054F897
:101A5000045F2846394600F0D3FF854204BF49F8A9
:101A6000265001364445F2D10BE04FF00003084800
:101A70000849CA581A5003F10403182BF9D14FF042
:101A8000060603484FF0000340F82630BDE8F8830F
:101A9000701200201C00002008B50248FFF792FEDB
:101AA00008BD00BF9035000870B50646064D4FF0E2
:101AB00080042846214600F0A5FB0028F9D0024802
:101AC000314600F093FB70BD0038014001704FF0CB
:101AD0000100704703460A784AB14FF000001A54DB
:101AE00000F1010011F8012F002AF8D170474FF0E2
:101AF000000070472DE9F84307460E469146984688
:101B000002F1FF32092B04D8002A0DDC4FF0000946
:101B10001AE0164BA3FB081331464FEAD303FFF735
:101B2000E9FF81463F180FE000F1FF354D440446C0
:101B300020463146FFF7CAFF04F10104AC42F7D159
:101B400009F1FF33FF1899460849A1FB08314FEA14
:101B5000D10101EB8101A8EB410101F130013846CF
:101B6000C9B2FFF7B3FF4844BDE8F883CDCCCCCC75
:101B70002DE9F84F07460E46B3F1000A83EAE378F1
:101B8000A8EBE37802F1FF39B8F1090F18D9002B5F
:101B90000BDA254BA3FB08234FEAD3034A46C3F1D4
:101BA0000003FFF7E5FF814608E01F4BA3FB082376
:101BB0004A464FEAD303FFF7DBFF81464F4421E05B
:101BC000002BB8BF09F1FF39B9F1000F0DDDCB468D
:101BD00000EB0905044620463146FFF777FF04F184
:101BE0000104AC42F7D15F4401E04FF00009BAF1C3
:101BF000000F07DA38464FF02D01FFF767FF8144E9
:101C000007F101070849A1FB08314FEAD10101EBB7
:101C10008101A8EB410101F130013846C9B2FFF75B
:101C200055FF4844BDE8F88FCDCCCCCC2DE9F0472A
:101C300082B007460E4690469A46DDF8289002F19B
:101C4000FF325FEA191304D1002A09DC4FF00008C3
:101C500016E000935346FFF7E9FF80463F180FE078
:101C600000F1FF354544044620463146FFF72EFF7C
:101C700004F10104AC42F7D108F1FF33FF18984694
:101C800009F00F03092B05D8384603F13001FFF79F
:101C90001DFF11E0BAF1000F07D009F00F0138461F
:101CA00001F13701FFF712FF06E009F00F01384696
:101CB00001F15701FFF70AFF08F1010002B0BDE88A
:101CC000F08700BF2DE9F04F85B00E46054610B1F4
:101CD0004FF0000101704FF000044FF020094FF069
:101CE000300A4FF0250896E0252906D005F8011B9B
:101CF00002F1010204F101048DE002F101075178C3
:101D0000252906D105F8018B02F1020204F1010434
:101D100081E0302906BF0137D346CB463978A1F19F
:101D20003002D2B2092A16D807F101004FF00002A2
:101D300002EB8202A1F1300101EB420202F0FF024C
:101D4000074610F8011BA1F1300C5FFA8CFCBCF1C6
:101D5000090FEDD901E04FF00002101986423CBF97
:101D6000C4EB0602D2B2A1F15801202966D8DFE8FF
:101D700001F0326565656565656565656547116591
:101D8000656565116565656565656565653F651BC7
:101D90006565250003F104010391284659461B6837
:101DA000FFF7E6FE039B32E003F1040003902846B0
:101DB00059461B68FFF79EFE039B28E003F10401D0
:101DC00003911B680093284659464FF00003FFF724
:101DD0002DFF039B1BE003F1040003901B6800939D
:101DE000284659464FF00103FFF720FF039B0EE002
:101DF00003F1040B28461968FFF76CFE5B4606E00A
:101E000003F1040B28461978FFF760FE5B4607F1E3
:101E100001022D182418117819B1B442FFF464AFEF
:101E200005E0A64203D94FF000032B7008E04FF005
:101E3000000305F8013C04F1FF3401E04FF0FF34EA
:101E4000204605B0BDE8F08F0CB400B583B004ABFC
:101E500053F8042B0193FFF735FF03B05DF804EB53
:101E600002B0704710B50C4613464FF0640122468D
:101E7000FFF728FF10BD00BF10B50446074B1B68D5
:101E80009A688A4202D0DB688B4203D1E0B2FFF746
:101E90000BFE01E04FF0FF34204610BD340000205F
:101EA00070B505460E46007870B14FF0000431461B
:101EB000FFF7E2FFB0F1FF3F09D004F1010415F88C
:101EC000010F0028F3D104E04FF0000401E04FF0CF
:101ED000FF34204670BD00BFF0B5A3B004468E4667
:101EE00017460E4E6D460FCE0FC50FCE0FC5336889
:101EF0002B6009A871463A46FFF7B4FF632806DD58
:101F0000074B1B686846D968FFF7CAFFFEE709A8B8
:101F10002146FFF7C5FF23B0F0BD00BFA435000880
:101F20003400002008B503460A460349096888685A
:101F30001946FFF7D1FF08BD340000200FB400B5EB
:101F400083B004A951F8040B0191FFF7EBFF03B034
:101F50005DF804EB04B0704710B4274B5B6803F0E6
:101F60000C03042B05D0082B06D00BBB234B0360BE
:101F700020E0224B03601DE01F4B59685A68C1F3F3
:101F8000834303F1020312F4803F04D11C4A02FB95
:101F900003F303600EE0184AD26A02F00F0202F166
:101FA00001021649B1FBF2F203FB02F3036001E008
:101FB000124B0360104A5168C1F30311114B595C75
:101FC000046824FA01F141605468C4F302241C5DE2
:101FD00021FA04F484605468C4F3C2241C5D21FA1D
:101FE00004F1C1605268C2F381329B181B7CB1FBC3
:101FF000F3F1016110BC70470010024000127A003A
:1020000000093D002801002021B1054B9A691043C9
:1020100098617047024B9A6922EA00009861704704
:102020000010024021B1054BDA691043D8617047B6
:10203000024BDA6922EA0000D861704700100240C2
:1020400010B48379002B37D0214B1A68016822EA3B
:1020500001021A605A68016822EA01025A60027994
:1020600002F1804202F582321468016844EA0101FB
:1020700011609A68016822EA01029A60DA680168D0
:1020800022EA0102DA604379102B0BD1104B9968D8
:10209000026841EA02029A60D968026841EA0202D3
:1020A000DA6013E003F1804303F5823319680268B4
:1020B00041EA02021A6009E0037903F1804303F563
:1020C00082331A68016822EA01021A6010BC704764
:1020D00000040140014B5861704700BF00040140FB
:1020E00030B587B004460D46038A23F440534FEAC7
:1020F00003434FEA1343CA8813430382838923F4BB
:10210000B05323F00C034FEA03434FEA134309890A
:10211000AA8841EA020269890A4392B242EA0303A9
:102120008381838A23F440734FEA03434FEA1343C6
:10213000AA891343838201A8FFF70EFF214B9C421B
:102140000CBF049A039AA3891BB2002B09DA02EB95
:10215000820202EB82022B684FEA4303B2FBF3F2E6
:1021600008E002EB820202EB820229684FEA810159
:10217000B2FBF1F2144BA3FB02134FEA53134FEAE5
:1021800003104FF0640103FB1123A18909B2002958
:102190000ADA4FEAC30303F132030B4DA5FB032315
:1021A000C3F34213034309E04FEA031303F132037D
:1021B000054DA5FB0313C3F3431303439BB22381D4
:1021C00007B030BD003801401F85EB5129B183892C
:1021D0009BB243F4005383817047838923F40053F7
:1021E0004FEA03434FEA1343838170474FEAC151DB
:1021F0004FEAD1518180704780884FEAC0504FEA42
:10220000D0507047038819420CBF0020012070474E
:1022100000210A2200F0B4BD00220A2300F0FEBC17
:10222000032A2DE9F00109D82AB10023CC5CC4545B
:1022300001339342FAD1BDE8F00170470B46821892
:10224000014603E02478013301F8014B11F0030F3C
:102250001C46F7D113F003055DD06E42C5F1040CA6
:10226000ED009B594FEACC0C08E00434A7593B46DB
:1022700007FA0CF748EA070741F8047B571A23FAD4
:1022800005F8032FF1DC03E014F8013B01F8013BF2
:102290008A42F9D8CFE753F8404C41F8404C53F804
:1022A0003C4C41F83C4C53F8384C41F8384C53F80E
:1022B000344C41F8344C53F8304C41F8304C53F81E
:1022C0002C4C41F82C4C53F8284C41F8284C53F82E
:1022D000244C41F8244C53F8204C41F8204C53F83E
:1022E0001C4C41F81C4C53F8184C41F8184C53F84E
:1022F000144C41F8144C53F8104C41F8104C53F85E
:102300000C4C41F80C4C53F8084C41F8084C53F86D
:10231000044C41F8044C561A1D460C4640334031DB
:102320003F2EB8DC2B460FE053F8101C44F8101C6D
:1023300053F80C1C44F80C1C53F8081C44F8081CF7
:1023400053F8041C44F8041C161B21461D46103487
:1023500010330F2EE8DC2B4602E0246841F8044BD2
:10236000551A1C46032D03F10403F6DC90E700BF69
:1023700088420346F0B40C460ED98D18A8420BD201
:1023800042B1831829469A1A11F8014D03F8014DFC
:102390009342F9D1F0BC70470F2A38D941EA0005C1
:1023A00015F0030F35D1A2F1100601F110050B460F
:1023B0000246370905EB07151C6814605C68546019
:1023C0009C689460DC681033D46010329D42F3D175
:1023D0007C1C06F00F022401032A00EB04032144B5
:1023E00014D9043A0C461D464FEA920C01EB8C07B7
:1023F000043754F8046BBC4245F8046BF9D10CF176
:10240000010402F00302A4001B1909190C46002A5A
:10241000C0D02146A21811F8014B914203F8014B9C
:10242000F9D1B7E7032AC9B270B408D82AB1034674
:10243000121803F8011B9342FBD170BC704782183D
:10244000044601E004F8011B14F0030FFAD14FF029
:10245000013303FB01F31FE044F8403C44F83C3CEB
:1024600044F8383C44F8343C44F8303C44F82C3CC4
:1024700044F8283C44F8243C44F8203C44F81C3CF4
:1024800044F8183C44F8143C44F8103C44F80C3C24
:1024900044F8083C44F8043C161B254640343F2EC3
:1024A000DADC2C4607E044F8103C44F80C3C44F8D5
:1024B000083C44F8043C161B254610340F2EF2DC71
:1024C00001E045F8043B541B032CFADC01E005F85D
:1024D000011B9542FBD3B0E780EA010212F0030F23
:1024E0003AD110F0030220F0030021F0030150F86C
:1024F00004CB08BF51F8043B0DD082F003024FEA31
:10250000C2026FF07F4323FA02F251F8043B4CEA17
:10251000020C43EA020300BFACF101329C4501BF4B
:1025200022EA0C0212F0803F50F804CB51F8043B31
:10253000F2D04FEA0C604FEA1C2C012828BFB0EB08
:10254000036F08BF1B0AF4D003F0FF034FEA1060CB
:10255000A0EB0300704700BF10F0030F0AD010F883
:10256000012B11F8013B012A28BF9A42F4D0A2EBBB
:10257000030070474DF8045D4DF8044D4FF0010223
:1025800042EA022242EA024201F0030C21F0030176
:1025900050F8044B51F8045BBCF1020F26D04BD825
:1025A00024F07F4CBCEB152FA4EB020323EA0403B9
:1025B0000DD113EAC21308BF51F8045B0AD18CEAAB
:1025C000040CBCEB056F0CD150F8044BE8E74FEA64
:1025D00015255CE033F07F4352D10D784FEA146C3F
:1025E00055E04FEA146C05F0FF0550E04FEA044C4B
:1025F000A4EB02034FEA1C4C23EA0403BCEB154F87
:1026000017D113EAC21308BF51F8045B07D18CEA53
:10261000040CBCEB054F08D150F8044BE6E71B0453
:102620002ED10D884FEA144C31E04FEA05454FEAB0
:10263000144C4FEA15452AE004F0FF0CBCEB156F73
:10264000A4EB020323EA04030DD113EAC21308BF6B
:1026500051F8045B0AD18CEA040CBCEB052F0AD1BB
:1026600050F8044BE8E74FEA156510E014F0FF0F4F
:1026700006D051F8045B4FEA142C25F07F4506E0A4
:102680004FF000005DF8044B5DF8045B70470CF000
:10269000FF0205F0FF00012828BF904204BF4FEA67
:1026A0001C2C2D0AF3D0A2EB00005DF8044B5DF862
:1026B000045B704720F0030110F00300C0F100003C
:1026C00051F8043B00F1040C4FEACC0C6FF000020F
:1026D0001CBF22FA0CF213434FF0010C4CEA0C2CF5
:1026E0004CEA0C4CA3EB0C0222EA030212EACC12D5
:1026F00004BF51F8043B0430F4D013F0FF0F1FBFA8
:10270000013013F47F4F013013F47F0F18BF0130F5
:10271000704700BF01232DE9F0071D4600264FF04A
:10272000FF37AC1900EB070C8C420DD21CF805C02A
:1027300010F80480E0452ED201252646E31BAC1993
:102740008C4200EB070CF1D34FF0010900264D46F7
:102750004FF0FF3C1360AC1900EB0C08A1420ED9FE
:1027600018F8058010F804A0C2451AD9012526469C
:10277000CCEB0409AC19A14200EB0C08F0D80CF129
:1027800001000137B8423CBF99463846C2F8009074
:10279000BDE8F00770470BD0012337461D46F618F9
:1027A000BFE709D04FF00109B4464D464E44D2E789
:1027B0009D4205D00135B4E74D4505D00135CAE746
:1027C0002B4626460125ACE7A94626460125C2E749
:1027D0002DE9F04FADF5826D81B0144607461046E5
:1027E0000DF580628B460C3219461D46FFF792FFAD
:1027F00003AE04A901F57E72331F009043F8045F15
:102800009342FBD14DB1681E0023E25CC11A013333
:1028100003AEAB4246F82210F7D1DDF80C14204687
:10282000009A611800F0FEFA002877D100998146DD
:1028300005F1FF380646C1F1010201925A46AB4646
:1028400009EB0B0501F1FF3AB8180021AA1A00F0B4
:10285000A3FA00284FD1002D00F0C0807B1903A9F6
:1028600013F8013C51F82330002B4CD1009B9E42C1
:1028700028BF334698450FD903EB0901E05C7A186D
:10288000795C884205D038E012F8011FE05C88428C
:1028900033D101339845F7D8009A964280F0A4804E
:1028A00007EB090214F80A10534612F80A20914265
:1028B00004BF0AEB0901791807D095E014F802C0AB
:1028C00011F8010D844503D113465A1EB342F5D1C8
:1028D00001369E4200F28D80DDF80C642A46B14438
:1028E000C6EB0B0609EB0B05B8180021AA1A00F07D
:1028F00053FA0028AFD0002071E0019A00269144DD
:1029000099442A46EEE7002EFAD0DDF80C249342D3
:102910003CBFC2EB0B0306469944F2E7009E4FF022
:1029200000080099AB1BB34238BF3346C1F1010226
:102930006E1E019201F1FF3A5A468946AB460133B9
:10294000CDF80C3408EB0B05B8180021AA1A00F0DA
:1029500023FA0028CFD1002D40D07B1903A913F80A
:10296000013C51F82330002B30D1B14513D208EB94
:10297000090314F80910FA18FB5C994218BF4B467A
:1029800027D14B4604E012F8011FE05C884220D1B9
:102990000133B342F7D3BAF1FF3F53462CD007EBD4
:1029A000080C14F80A101CF80A2091420CD10AEB0A
:1029B0000802BA1804E0E05C12F8011D884203D155
:1029C000013BF8D260460AE0DDF80C3498442A4610
:1029D000B8E701992A4688449844B3E7284605B0E9
:1029E0000DF5806DBDE8F08F009B01369E427FF6AD
:1029F00073AF07EB0900F2E707EB080C6046EEE760
:102A00002DE9F04F8346037885B00C46002B00F08B
:102A1000F9800A78A2B106460131012002E011F8DE
:102A2000012B8AB1934214BF002000F0010016F878
:102A3000013F0D46002BF2D12B782BB14FF0000B4C
:102A4000584605B0BDE8F08F0028F9D10BF1010020
:102A5000217800F019FA2D1BA5F10102534243EB36
:102A60000203002808BF43F00103074683B90BEBBC
:102A70000508404594BFC0EB08084FF001081F2D22
:102A800008D9414622462B46FFF7A2FE8346D7E7E8
:102A90008346D5E7294603AA2046FFF73BFE039964
:102AA0006118814620464A4600F0BCF900284FD103
:102AB00009F1FF33C9F101020646019282464246FE
:102AC000C84699460AEB050BB8180021C2EB0B0269
:102AD00000F062F90028B1D1BBF1000FB0D046453B
:102AE0002CBF334643469D420FD903EB0A01E05CFD
:102AF0007A18795C884205D075E012F8011FE05C15
:102B0000884270D101339D42F7D1B0457DD907EBA2
:102B10000A0214F809104B4612F80920914202BF2C
:102B200009EB0A01AC46791806D06EE0A55C11F8F5
:102B3000010D854203D113465A1EB342F6D16546B4
:102B400001369E4267D8039E5A46B244AE1BB9E78F
:102B5000C9F10101C9EB05034246002609F1FF3A1C
:102B600088464B4538BF4B460133039306EB050BB4
:102B7000B8180021C2EB0B0200F00EF900287FF418
:102B80005DAFBBF1000F3FF45BAF4D4512D906EBD3
:102B9000090314F80910FA18FB5C994208BF4B4668
:102BA00005D026E012F8011FE05C884222D10133F3
:102BB0009D42F7D1BAF1FF3F534628D007EB060CF0
:102BC00014F80A101CF80A20914217D10AEB0602E9
:102BD000BA1804E0E05C12F8011D88420ED1013BF6
:102BE000F8D2E3462CE7019A002692445A469A44CA
:102BF00068E74B4646445A46F618B7E7039B5A46E1
:102C0000F618B3E70D46012016E7434698E707EBB1
:102C1000060CE34614E707EB0A0B11E72DE9F04F2A
:102C200040F23C14C2F2000485B01F468C46266870
:102C30000B460390029213F8014B32191D4692F88D
:102C400001B01BF0080BF6D12D2C73D02B2C08BF34
:102C500015F8014BD7F1010338BF0023102F14BF23
:102C60001A4643F0010232B1302C73D01BB1302C24
:102C700000F083800A27B946BBF1000F49460CBF1C
:102C80006FF0004A4FF0004ACDF804C0504600F003
:102C9000B1FA50468846494600F07EF933190022C1
:102CA000DDF804C05B78114613F0040F1ED0303CF1
:102CB000A74225DD814294BF0023012353EAD2724B
:102CC0002ED10A1A534243EB02034445D4BF0023DA
:102CD00003F00103002B23D109FB014115F8014B3F
:102CE000012233195B7813F0040FE0D113F00303D2
:102CF00006D0012B14BF57233723E41AA742D9DC8F
:102D0000B2F1FF3F1BD00846BBF1000F10D1029B70
:102D10001BB152B90299C1F800C005B0BDE8F08FEF
:102D20004FF0FF3215F8014BDBE705F1FF3CF1E70F
:102D30004842ECE715F8014B4FF0010B8AE7039985
:102D4000BBF1000F0CBF6FF000404FF0004022239A
:102D50000B60DCE72A78A2F17800414241EB0001E8
:102D6000582A14BF0A4641F00102002A3FF47EAF00
:102D700010276C78B94602357EE70827B9467BE70D
:102D800030B440F23404C2F200040D46134601464A
:102D90002A46206830BC41E710F0030F034670B4A8
:102DA000C9B211D0002A22D003788B421DD0013A3B
:102DB000013005E0DAB110F8014B013A8C4218D02D
:102DC00010F0030F0346F5D1032A14D87AB118780E
:102DD00088420ED0541E5D1C03E015F8016B8E4234
:102DE00003D0013C2846F8D2002070BC7047104642
:102DF000FBE71846F9E741EA012646EA0646184687
:102E000053F8044B86EA0404A4F1013525EA0404CE
:102E100014F0803F03D1043A1846032AEFD8034642
:102E2000D4E700BF032A70B404460D4626D941EA10
:102E3000000313F0030F13D020782B78984208BFBB
:102E4000294606D01EE014F8010F11F8013F984200
:102E500018D1012A02F1FF32F5D1002070BC704771
:102E60000B46044651F8045B50F8046BAE4204D1A3
:102E7000043A0446032A0B46F2D81D461046002A9F
:102E8000DAD1EBE7C01AE9E7C9B2F0B4002950D0B3
:102E900010F0030F10D00378002B79D0994246D060
:102EA000431C05E013F8012B002A3FD091423ED08D
:102EB00013F0030F1846F5D1036841EA01270646CF
:102EC000A3F1013247EA074722EA030212F0803FEA
:102ED0001DD187EA0303A3F1013222EA030313F0B1
:102EE000803F14D1043002E012F0803F0FD106463B
:102EF00050F8043BA3F1013587EA030225EA0303F6
:102F0000A2F1013413F0803F24EA0202ECD03378BE
:102F10003046002B3CD0994209D0731C01E091420D
:102F200005D0184613F8012B002AF8D11046F0BC42
:102F3000704710F0030F0CD00378002BF7D0431C20
:102F400003E013F8012B002AF1D013F0030F184609
:102F5000F7D102680346A2F1013121EA020212F020
:102F6000803F0AD10430034650F8042BA2F101310E
:102F700021EA020212F0803FF5D01A781846002AA2
:102F8000D5D00133184613F8012B002AFAD1CEE729
:102F90001846CCE7000000004A1E08BF7047C0F08A
:102FA0002481884240F21681114200F01781B0FA64
:102FB00080F3B1FA81F2A2EB0303C3F11F0304A271
:102FC00002EB03134FF000029F4600BFAFF30080F7
:102FD000B0EBC17F00BF42EB020228BFA0EBC17083
:102FE000B0EB817F00BF42EB020228BFA0EB8170F3
:102FF000B0EB417F00BF42EB020228BFA0EB417063
:10300000B0EB017F00BF42EB020228BFA0EB0170D2
:10301000B0EBC16F00BF42EB020228BFA0EBC16062
:10302000B0EB816F00BF42EB020228BFA0EB8160D2
:10303000B0EB416F00BF42EB020228BFA0EB416042
:10304000B0EB016F00BF42EB020228BFA0EB0160B2
:10305000B0EBC15F00BF42EB020228BFA0EBC15042
:10306000B0EB815F00BF42EB020228BFA0EB8150B2
:10307000B0EB415F00BF42EB020228BFA0EB415022
:10308000B0EB015F00BF42EB020228BFA0EB015092
:10309000B0EBC14F00BF42EB020228BFA0EBC14022
:1030A000B0EB814F00BF42EB020228BFA0EB814092
:1030B000B0EB414F00BF42EB020228BFA0EB414002
:1030C000B0EB014F00BF42EB020228BFA0EB014072
:1030D000B0EBC13F00BF42EB020228BFA0EBC13002
:1030E000B0EB813F00BF42EB020228BFA0EB813072
:1030F000B0EB413F00BF42EB020228BFA0EB4130E2
:10310000B0EB013F00BF42EB020228BFA0EB013051
:10311000B0EBC12F00BF42EB020228BFA0EBC120E1
:10312000B0EB812F00BF42EB020228BFA0EB812051
:10313000B0EB412F00BF42EB020228BFA0EB4120C1
:10314000B0EB012F00BF42EB020228BFA0EB012031
:10315000B0EBC11F00BF42EB020228BFA0EBC110C1
:10316000B0EB811F00BF42EB020228BFA0EB811031
:10317000B0EB411F00BF42EB020228BFA0EB4110A1
:10318000B0EB011F00BF42EB020228BFA0EB011011
:10319000B0EBC10F00BF42EB020228BFA0EBC100A1
:1031A000B0EB810F00BF42EB020228BFA0EB810011
:1031B000B0EB410F00BF42EB020228BFA0EB410081
:1031C000B0EB010F00BF42EB020228BFA0EB0100F1
:1031D000104670470CBF012000207047B1FA81F201
:1031E000C2F11F0220FA02F0704708B14FF0FF3021
:1031F00000F00EB80029F8D02DE90340FFF7CCFE0F
:10320000BDE8064002FB00F3A1EB0301704700BFDD
:10321000704700BF1B5B2564441B5B2564430000B3
:103220001B5B2564430000001B5B25644400000019
:103230001B5B4B001B5B44201B5B44004552524F01
:10324000523A746F6B656E7320746F6F206D756387
:10325000680A0D00200000001B5B33326D49526983
:103260006E203E1B5B306D200000000030750000BA
:10327000007D0000D0840000A08C0000709400004D
:10328000409C000010A40000E0AB0000B0B30000C0
:1032900080BB000050C3000020CB0000F0D2000033
:1032A000C0DA000090E2000060EA000003000000C5
:1032B000FFFFFF7F00000080496C6C6567616C2038
:1032C0004952436F646520706F696E7465720A0DB0
:1032D0000000000049443A203078253038580A0D63
:1032E000000000004672657175656E63793A2025AD
:1032F00030356420487A0A0D00000000466C616792
:10330000733A203078253034580A0D00436F756EBB
:10331000743A2025750A0D00496E74657276616CE9
:103320007320636F756E74206F75742069662072E8
:10333000616E67650A0D00005B253033755D2025E1
:10334000303158202D3E205B253038752075735D57
:103350000A0D00003D3D3E0A0D0A0D005573652023
:10336000544142206B657920666F7220636F6D70E7
:103370006C6574696F6E0A0D436F6D6D616E643AB2
:103380000A0D0000097363616E206E092D207363BE
:10339000616E6E696E6720697220636F646520617B
:1033A0006E64207374726520746F20646562756743
:1033B0002073746F726167652077697468206E7519
:1033C0006D626572206E0A0D000000000972756E54
:1033D000205B636F64655D205B6368616E6E656C26
:1033E0005D092D2073656E642073746F72656420AF
:1033F0005B636F64655D20746F205B6368616E6EF4
:10340000656C5D0A0D0000000973657420667265C5
:103410007175656E6379092D20736574206361721F
:10342000696572206672657175656E63790A0D0053
:10343000097072696E74095B636F64655D202D208D
:103440007072696E74206465627567206F75747040
:103450007574205B636F64655D0A0D0009636C65BC
:103460006172202D20636C65617220646973706CD9
:1034700061790A0D0000000068656C7000000000B2
:103480006D6963726F726C2076000000312E32001D
:10349000206C6962726172792053544D3332207608
:1034A00000000000312E3000636C65617200000086
:1034B0001B5B324A000000001B5B48007363616EB7
:1034C00000000000436F6465206F7574206F6620F4
:1034D00072616E67650A0D005363616E6E696E6797
:1034E000202E2E2E0A0D0000436F6465206E756D30
:1034F000626572206E6F7420666F756E640A0D00CF
:103500007072696E74000000436F6465206E756DA3
:10351000626572206F7574206F662072616E6765D8
:103520000A0D0000736574004672657175656E63FF
:1035300079206F7574206F662072616E67650A0D61
:10354000000000005365744672657175656E63799D
:10355000205B25645D0A0D004672657175656E63BA
:10356000792076616C7565206E6F7420666F756E5C
:10357000640A0D00636F6D6D616E643A2027000070
:1035800027204E6F7420666F756E642E0A0D000042
:103590005E432063617463686564210A0D00000066
:1035A00072756E00737464696F2E633A20696E637E
:1035B0007265617365204D41585F535452494E47BF
:1035C0005F53495A450A0D0000202020202020206A
:1035D00020202828282828202020202020202020C3
:1035E00020202020202020202088101010101010D3
:1035F000101010101010101010040404040404041F
:1036000004040410101010101010414141414141B8
:10361000010101010101010101010101010101019A
:1036200001010101101010101010424242424242AA
:10363000020202020202020202020202020202026A
:103640000202020210101010200000000000000012
:10365000000000000000000000000000000000006A
:10366000000000000000000000000000000000005A
:10367000000000000000000000000000000000004A
:10368000000000000000000000000000000000003A
:10369000000000000000000000000000000000002A
:1036A000000000000000000000000000000000001A
:1036B000000000000000000000000000000000000A
:0C36C000000000000000000000000000FE
:1036CC005832000800366E010000000000000000B7
:1036DC000102030406070809801100207834000851
:1036EC00A8340008BC340008A035000824350008B4
:1036FC000035000838000020000000000000000029
:10370C0001000000000000000000000000000000AC
:10371C00000000000000000000000000000000009D
:10372C00000000000000000000000000000000008D
:10373C00000000000000000000000000000000007D
:10374C00000000000000000000000000000000006D
:10375C00000000000000000000000000000000005D
:10376C00000000000000000000000000000000004D
:10377C00000000000000000000000000000000003D
:10378C00000000000000000000000000000000002D
:10379C00000000000000000000000000000000001D
:1037AC00000000000000000000000000000000000D
:1037BC0000000000000000000000000000000000FD
:1037CC0000000000000000000000000000000000ED
:1037DC0000000000000000000000000000000000DD
:1037EC0000000000000000000000000001020304C3
:1037FC00010203040607080902040608C83500087C
:0400000508000000EF
:00000001FF
