:020000040800F2
:10000000DC16002039190008A1190008A119000800
:10001000A1190008A1190008A1190008000000009A
:10002000000000000000000000000000A11900080E
:10003000A119000800000000A1190008A11900087A
:10004000A1190008A1190008A1190008A1190008A8
:10005000A1190008A119000821240008A11900080D
:10006000A1190008A1190008A1190008A119000888
:10007000A1190008A1190008A1190008A119000878
:10008000A1190008A1190008A1190008000000002A
:10009000000000000000000000000000A11900089E
:1000A000A1190008A1190008A1190008A119000848
:1000B0007D250008D9240008A1190008A11900080D
:1000C000A1190008A1190008A1190008A119000828
:1000D000A1190008A1190008A1190008A119000818
:1000E000A1190008A1190008A119000800000000CA
:1000F0000000000000000000000000000000000000
:1001000000000000000000000000000000000000EF
:100110000000000000000000A1190008A11900085B
:100120005FF808F180B485B000AF78607B681A6C26
:100130007B681B6C7968CB5CD31803F10103FB600F
:10014000FB683F2B03DDFB68A3F14003FB607B688A
:10015000FA681A6407F11407BD4680BC704700BFF7
:1001600080B483B000AF786039607B681B6C7A68BC
:10017000D35C002B02D14FF0010323E07B685A6C63
:100180007B681B6C9A420EDB7B685B6CC3F14002A0
:100190007B681B6CD31803F1FF323B689A420FDD7A
:1001A0004FF001030EE07B681A6C7B685B6CD31A1E
:1001B00003F1FF323B689A4202DD4FF0010301E098
:1001C0004FF00003184607F10C07BD4680BC70478E
:1001D00080B586B000AFF860B9607A607B683E2B6E
:1001E00004DD6AE0F868FFF79DFF00E000BFF868F3
:1001F0007968FFF7B5FF0346002BF3D0FB681B6C53
:10020000FA68D35C002B05D1FB681B6C7A68D1B20D
:10021000FA68D154FB685B6CC3F13F027B689A4279
:100220000CDDFA68FB685B6C03F10103D2187B6894
:100230001046B9681A4603F05BFB1CE0FB685B6C78
:10024000C3F13F037B61FA68FB685B6C03F1010358
:10025000D2187B691046B9681A4603F049FBF96861
:100260007B69BA68D21878687B69C31A0846114658
:100270001A4603F03DFBFB685B6C7A68D1B2FA6802
:10028000D154FB685A6C7B68D31803F10102FB68F8
:100290005A64FB685B6C3F2B05DDFB685B6CA3F16C
:1002A0004002FB685A64FB685B6CFA684FF000011F
:1002B000D154FB684FF000029A6407F11807BD465D
:1002C00080BD00BF80B58CB000AFF860B9607A60C7
:1002D0004FF00003FB62FB681B6CBB6213E0FA6823
:1002E000BB6AD3181B7803F10103BA6AD318BB6247
:1002F000BB6A3F2B03DDBB6AA3F14003BB62FB6A11
:1003000003F10103FB62FA68BB6AD3181B78002B68
:10031000E5D17B68002B78D1FB689A6CFB6A9A4226
:1003200000F3E180FB681B6C7B624FF000033B62D3
:1003300013E0FA687B6AD3181B7803F101037A6A29
:10034000D3187B627B6A3F2B03DD7B6AA3F14003FA
:100350007B623B6A03F101033B62FA687B6AD31854
:100360001B78002B08D0FA6A3B6AD31A03F1FF32DC
:10037000FB689B6C9A42DCD1FA687B6AD3181B78C5
:10038000002B00F0B080FB689B6C03F10102FB685E
:100390009A64FA687B6AD3181B781A467B6AD3186A
:1003A0003F2B0EDCFA687B6A03F10103D218F9686F
:1003B0007B6ACB181B78B86811461A4603F098FA86
:1003C0001EE07B6AC3F13F037B61FA687B6A03F13D
:1003D0000103D2187B69B86811461A4603F088FAFF
:1003E0007B69BA68D118FA68F8687B6AC3181B7809
:1003F00018467B69C31A084611461A4603F078FA74
:10040000FA687B6AD3181B786FE0FB689B6C002B43
:1004100069DDFB689B6C03F1FF32FB689A64FB6843
:100420001B6CFB614FF00003BB6113E0FA68FB69D2
:10043000D3181B7803F10103FA69D318FB61FB6938
:100440003F2B03DDFB69A3F14003FB61BB6903F1B3
:100450000103BB61FA68FB69D3181B78002B06D037
:10046000FA6ABB69D21AFB689B6C9A42DED1FA68C1
:10047000FB69D3181B781A46FB69D3183F2B0EDC97
:10048000FA68FB6903F10103D218F968FB69CB181C
:100490001B78B86811461A4603F02AFA1EE0FB6979
:1004A000C3F13F033B61FA68FB6903F10103D21812
:1004B0003B69B86811461A4603F01AFA3B69BA68F4
:1004C000D118FA68F868FB69C3181B7818463B69AD
:1004D000C31A084611461A4603F00AFAFA68FB697D
:1004E000D3181B7801E04FF00003184607F13007DE
:1004F000BD4680BD80B485B000AF786039604FF0F4
:100500000003FB604FF00003BB6003E0BB6803F136
:100510000103BB607A68BB68D31803F150031B78F2
:10052000002B03D1BA683B689A42EFDBBA683B689C
:100530009A4201DBFB682EE07B6803F15002BB6846
:10054000D1187B68FA6802F1300243F82210FB6888
:1005500003F10103FB60FB68072B07DD4FF0FF335E
:1005600019E0BB6803F10103BB6000E000BF7A68DB
:10057000BB68D31803F150031B78002B03D0BA6873
:100580003B689A42EDDBBA683B689A4201DBFB6844
:1005900001E000BFBEE7184607F11407BD4680BC66
:1005A000704700BF80B582B000AF78607B68D3F839
:1005B000E8307A68D26C1046984707F10807BD46C4
:1005C00080BD00BF80B582B000AF78607B68D3F893
:1005D000E8300348984707F10807BD4680BD00BFD3
:1005E000F848000880B582B000AF78607B68D3F827
:1005F000E8300348984707F10807BD4680BD00BFB3
:100600000049000880B586B000AF7860396007F116
:1006100008034FF000021A6003F104034FF00002D8
:100620001A6003F104034FF000021A6003F104039F
:100630004FF000021A6003F104033B68002B09DD50
:1006400007F1080318464FF010010F4A3B6802F00B
:10065000E5FA0DE03B68002B0ADA3B68C3F10003C2
:1006600007F1080210464FF01001084A02F0D6FACE
:100670007B68D3F8E83007F108021046984707F185
:100680001807BD4680BD00BF044900080C4900089A
:1006900080B588B002AF786007F108034FF0070219
:1006A000009218464FF01001074A4FF06E0302F017
:1006B000B5FA7B68D3F8E83007F10802104698478E
:1006C00007F11807BD4680BD1449000880B586B003
:1006D00000AFF860B9607A60FB68D3F8E8301A4878
:1006E00098474FF000033B744FF000037B74BB68E6
:1006F0007B6117E0FA687B69D31803F150031B781C
:100700003B743B7C002B02D14FF020033B74FB6811
:10071000D3F8E83007F11002104698477B6903F1DF
:1007200001037B61FB68D3F8B8207B699A42E1DC66
:10073000F868FFF7ADFFF8687968FFF763FF07F126
:100740001807BD4680BD00BF2049000880B582B0B3
:1007500000AF786039607B6803F1500318464FF0B2
:1007600000014FF0650203F0C5F97B6818464FF0B1
:1007700000014FF0400203F0BDF97B684FF000022A
:100780001A647B684FF000025A647B684FF00002E5
:100790009A647B684FF00002C3F8B8207B684FF082
:1007A0000002C3F8BC207B684FF00002C3F8E020D1
:1007B0007B684FF00002C3F8E4207B684FF0000232
:1007C000C3F8EC20054B1A687B68DA647B683A68EA
:1007D000C3F8E82007F10807BD4680BD00000020EF
:1007E00080B483B000AF786039607B683A68C3F842
:1007F000E42007F10C07BD4680BC704780B483B08D
:1008000000AF786039607B683A68C3F8E02007F190
:100810000C07BD4680BC704780B483B000AF7860E1
:1008200039607B683A68C3F8EC2007F10C07BD46D5
:1008300080BC704780B584B000AF786039607A685A
:100840007B6803F15003104619463A68FFF73AFDFA
:10085000F860FB68002B15D07B68FA68C3F8B820F5
:100860007B68D3F8B8207B68C3F8BC207868FFF7B2
:100870000FFF7B68D3F8BC3078684FF000011A4650
:10088000FFF724FF07F11007BD4680BD80B582B099
:1008900000AF78600B46FB70FB785B2B04D14B4BB1
:1008A0004FF001021A608AE0484B1B68012B5CD1B3
:1008B000FB78412B07D178684FF00001FFF7BAFFB2
:1008C0004FF001037DE0FB78422B07D178684FF0B1
:1008D0000101FFF7AFFF4FF0010372E0FB78432BFC
:1008E00017D17B68D3F8BC207B68D3F8B8309A4224
:1008F0000CDA78684FF00101FFF784FE7B68D3F8CB
:10090000BC3003F101027B68C3F8BC204FF0010347
:1009100057E0FB78442B14D17B68D3F8BC30002B14
:100920000CDD78684FF0FF31FFF76CFE7B68D3F881
:10093000BC3003F1FF327B68C3F8BC204FF00103E9
:100940003FE0FB78372B06D1204B4FF002021A60B4
:100950004FF0000335E0FB78382B30D11B4B4FF0C4
:1009600003021A604FF000032BE0FB787E2B26D1A8
:10097000164B1B68022B0AD17868FFF789FE7B684B
:100980004FF00002C3F8BC204FF0010319E00F4BF9
:100990001B68032B13D17B68D3F8B8207B68D3F88E
:1009A000BC30D31A78681946FFF72CFE7B68D3F861
:1009B000B8207B68C3F8BC204FF0010301E04FF082
:1009C0000003184607F10807BD4680BD8C010020D2
:1009D00080B586B000AFF860B9607A60FB68D3F884
:1009E000B8207B68D318642B67DCFB6803F15002E6
:1009F000FB68D3F8BC3019467B68CB18D118FB686C
:100A000003F15002FB68D3F8BC30D218FB68D3F86E
:100A1000B800FB68D3F8BC30C31A084611461A4622
:100A200003F00EF84FF000037B6126E0FB68D3F87B
:100A3000BC207B69D3187A69B9688A181278F9687A
:100A4000CB1883F85020FB68D3F8BC207B69D318FF
:100A5000FA68D31893F85030202B0AD1FB68D3F8EA
:100A6000BC207B69D318FA68D3184FF0000283F8D2
:100A700050207B6903F101037B617A697B689A42AC
:100A8000D4DBFB68D3F8BC207B68D218FB68C3F8C2
:100A9000BC20FB68D3F8B8207B68D218FB68C3F889
:100AA000B820FB68D3F8B830FA68D3184FF00002CA
:100AB00083F850204FF0010301E04FF00003184687
:100AC00007F11807BD4680BD80B582B000AF7860E1
:100AD0007B68D3F8BC30002B39DD7868FFF772FDF6
:100AE0007B6803F150027B68D3F8BC3003F1FF331D
:100AF000D1187B6803F150027B68D3F8BC30D21860
:100B00007B68D3F8B8007B68D3F8BC30C31A03F114
:100B10000103084611461A4602F092FF7B68D3F89B
:100B2000BC3003F1FF327B68C3F8BC207B68D3F88C
:100B3000B8307A68D3184FF0000283F850207B68F1
:100B4000D3F8B83003F1FF327B68C3F8B82007F15F
:100B50000807BD4680BD00BF80B485B000AF786097
:100B60004FF00003FB604FF00103BB6038E0BB684F
:100B70004FEA83037A68D3181A68FB68D3181A7887
:100B8000BB6803F1FF334FEA83037968CB18196818
:100B9000FB68CB181B789A4217D1BB684FEA8303D6
:100BA0007A68D3181A68FB68D3181B78002B0CD00E
:100BB000BB6803F1FF334FEA83037A68D3181A68DE
:100BC000FB68D3181B78002B06D1FB68184607F189
:100BD0001407BD4680BC7047FB6803F10103FB604E
:100BE000BB684FEA83037A68D3181B68002BBED119
:100BF000BB6803F10103BB6000BFF1E7B0B586B08D
:100C000000AF78607B68D3F8E430002B00F0A5805B
:100C10007B68D3F8BC3078681946FFF76BFC7861C5
:100C20007B68D3F8BC3003F1FF337A68D31893F8AC
:100C30005030002B0AD17B687A6902F130024949B1
:100C400043F822107B6903F101037B617B68D3F8D1
:100C5000E4307A6802F1C002786911469847B860BA
:100C6000BB681B68002B79D04FF000033B61BB6869
:100C700003F104031B68002B07D1BB681B681846EF
:100C800003F080F80346FB6029E0B868FFF764FFD3
:100C9000F8607868FFF7A6FC13E07B68D3F8E830CB
:100CA0003A694FEA8202B9688A1812681046984772
:100CB0007B68D3F8E8302C4898473B6903F101037F
:100CC0003B613B694FEA8303BA68D3181B68002B6A
:100CD000E3D17868FFF786FC7868FFF763FCFB6870
:100CE000002B2DD0BB681C687B6903F1FF327B6849
:100CF00002F1300253F82230184603F043F803465D
:100D0000E418FD687B6903F1FF327B6802F1300271
:100D100053F82230184603F035F80346EB1A78688A
:100D200021461A46FFF754FEBB6803F104031B6813
:100D3000002B05D178680C494FF00102FFF748FEFF
:100D40007868FFF7A5FC7B68D3F8BC3078684FF073
:100D500000011A46FFF7BAFC00E000BF07F11807D0
:100D6000BD46B0BD244900082849000880B584B0BC
:100D700000AF78603960CB4B1B68002B0ED03B680E
:100D8000DBB278681946FFF781FD0346002B00F0BF
:100D90002182C44B4FF000021A601BE23B6803F152
:100DA000FF337E2B00F2ED8101A252F823F000BF49
:100DB000D5100008131100086F11000883110008F6
:100DC000B1100008E7100008831100085111000855
:100DD00051100008AD0F00088B10000883110008A7
:100DE000AD0F0008451100088311000839110008F3
:100DF0008311000883110008831100088311000883
:100E00006B1000088311000883110008831100088B
:100E1000831100088311000859100008831100088D
:100E20008311000883110008831100088311000852
:100E30008311000883110008831100088311000842
:100E40008311000883110008831100088311000832
:100E50008311000883110008831100088311000822
:100E60008311000883110008831100088311000812
:100E70008311000883110008831100088311000802
:100E800083110008831100088311000883110008F2
:100E900083110008831100088311000883110008E2
:100EA00083110008831100088311000883110008D2
:100EB00083110008831100088311000883110008C2
:100EC00083110008831100088311000883110008B2
:100ED00083110008831100088311000883110008A2
:100EE0008311000883110008831100088311000892
:100EF0008311000883110008831100088311000882
:100F00008311000883110008831100088311000871
:100F10008311000883110008831100088311000861
:100F20008311000883110008831100088311000851
:100F30008311000883110008831100088311000841
:100F40008311000883110008831100088311000831
:100F50008311000883110008831100088311000821
:100F60008311000883110008831100088311000811
:100F70008311000883110008831100088311000801
:100F800083110008831100088311000883110008F1
:100F900083110008831100088311000883110008E1
:100FA0008311000883110008511100087868FFF7C9
:100FB00019FB7B68D3F8B830002B0BDD79687B68B0
:100FC00003F150027B68D3F8B830084611461A4640
:100FD000FFF7FEF87B68D3F8B83078681946FFF75A
:100FE00089FAF860FB68B3F1FF3F04D17B68D3F85E
:100FF000E8302D489847FB68002B0DDD7B68D3F85F
:10100000E030002B08D07B68D3F8E0307A6802F13A
:10101000C002F868114698477868FFF7C3FA7B6802
:101020004FF00002C3F8B8207B684FF00002C3F80D
:10103000BC207B6803F1500318464FF000014FF0CD
:10104000650202F057FD7B684FF000029A64C1E030
:101050007868FFF7D3FDBDE0124B4FF001021A6034
:10106000B8E07868FFF730FD00E000BF7B68D3F898
:10107000BC30002BF5DC7B68D3F8BC3078684FF0CF
:1010800000011A46FFF722FBA4E07B68D3F8E830A2
:10109000064898477B68D3F8BC207B68C3F8B82023
:1010A00098E000BF880100202C4900082049000872
:1010B0007B68D3F8B8207B68D3F8BC30D31A786843
:1010C0001946FFF79FFA7B68D3F8B8207B68C3F80E
:1010D000BC207FE07868FFF7DBFA7B684FF0000206
:1010E000C3F8BC2076E07B68D3F8BC207B68D3F8DB
:1010F000B8309A4265DA78684FF00101FFF782FA5A
:101100007B68D3F8BC3003F101027B68C3F8BC20D4
:1011100060E07B68D3F8BC30002B54D078684FF087
:10112000FF31FFF76FFA7B68D3F8BC3003F1FF3271
:101130007B68C3F8BC204DE078684FF00001FFF7F2
:1011400079FB47E078684FF00101FFF773FB41E05E
:101150007868FFF7B9FC7B68D3F8BC207B68D3F8CC
:10116000BC30786811461A46FFF7B0FA32E07B6867
:10117000D3F8EC30002B28D07B68D3F8EC309847BC
:1011800028E03B68202B04D17B68D3F8B830002BD3
:101190001DD03B46786819464FF00102FFF718FC56
:1011A0000346002B15D07B68D3F8BC3003F1FF3227
:1011B0007B68D3F8BC30786811461A46FFF786FA88
:1011C00008E000BF06E000BF04E000BF02E000BF8F
:1011D00000E000BF07F11007BD4680BD80B485B0B8
:1011E00000AF786039604FF00003FB817B681B889B
:1011F000FB817A682F4B9A4213D07A682E4B9A4221
:101200000FD07B68B3F1804F0BD07A682B4B9A429A
:1012100007D07A682A4B9A4203D07A68294B9A42BF
:1012200009D1FB8923F07003FB813B685A88FB8955
:1012300042EA0303FB817A68234B9A420DD07A6815
:10124000224B9A4209D0FB8923F44073FB813B680F
:10125000DA88FB8942EA0303FB817B68FA891A80FA
:101260003B689A887B689A853B681A887B681A85F0
:101270007A68104B9A420FD07A680F4B9A420BD083
:101280007A68134B9A4207D07A68124B9A4203D07D
:101290007A68114B9A4204D13B681B7A1A467B68E4
:1012A0001A867B684FF001029A8207F11407BD4647
:1012B00080BC7047002C0140003401400004004015
:1012C00000080040000C00400010004000140040E6
:1012D00000400140004401400048014080B485B016
:1012E00000AF786039604FF000037B814FF000035E
:1012F000FB814FF00003BB817B681B8C9BB223F00A
:1013000001039AB27B681A847B681B8CFB817B6823
:101310009B88BB817B681B8B7B817B8923F070035F
:101320007B817B8923F003037B813B681A887B895F
:1013300042EA03037B81FB8923F00203FB813B68C4
:101340001A89FB8942EA0303FB813B685A88FB89BF
:1013500042EA0303FB817A68264B9A420FD07A68EF
:10136000254B9A420BD07A68244B9A4207D07A6870
:10137000234B9A4203D07A68224B9A4227D1FB89A9
:1013800023F00803FB813B685A89FB8942EA030387
:10139000FB81FB8923F00403FB813B689A88FB896E
:1013A00042EA0303FB81BB8923F48073BB81BB89C1
:1013B00023F40073BB813B689A89BB8942EA03032B
:1013C000BB813B68DA89BB8942EA0303BB817B6846
:1013D000BA899A807B687A891A833B68DA887B6845
:1013E0009A867B68FA891A8407F11407BD4680BC87
:1013F000704700BF002C0140003401400040014014
:10140000004401400048014080B584B000AF7860DE
:1014100039604FF00003FB814FF00103BB813B6853
:101420005B88002B03D14FF00203FB8102E04FF0F9
:101430000003FB813B689B88012B03D14FF0020323
:10144000BB8102E04FF00103BB813B681B88002B8E
:101450001CD13B6859883B689A883B681B8978682F
:1014600000F078F93B68DB887868194600F008F9E5
:101470003B681B89F989BA89786800F0DDF93B6817
:10148000DB887868194600F017F91BE03B6859883B
:101490003B689A883B681B89786800F0CDF93B6807
:1014A000DB887868194600F007F93B681B89F989E1
:1014B000BA89786800F04EF93B68DB88786819468D
:1014C00000F0DEF807F11007BD4680BD80B483B0A0
:1014D00000AF78600B46FB70FB78002B08D07B6870
:1014E0001B889BB243F001039AB27B681A8007E025
:1014F0007B681B889BB223F001039AB27B681A8039
:1015000007F10C07BD4680BC704700BF80B483B0B4
:1015100000AF786013460A467A807B707B78002B98
:1015200009D07B689B899AB27B8842EA03039AB20E
:101530007B689A810BE07B689B899AB27B886FEA13
:1015400003039BB202EA03039AB27B689A8107F114
:101550000C07BD4680BC704780B485B000AF786092
:101560000B467B804FF00003FB817B681B89FB816E
:10157000FB8923F07003FB81FA897B8842EA03032D
:10158000FB817B68FA891A8107F11407BD4680BC8C
:10159000704700BF80B483B000AF78600B46FB702B
:1015A000FB78002B08D07B681B889BB243F080033C
:1015B0009AB27B681A8007E07B681B889BB223F095
:1015C00080039AB27B681A8007F10C07BD4680BC85
:1015D000704700BF80B485B000AF78600B467B8059
:1015E0004FF00003FB817B681B8BFB81FB8923F0A1
:1015F0000803FB81FA897B8842EA0303FB817B684D
:10160000FA891A8307F11407BD4680BC704700BFF2
:1016100080B483B000AF78600B467B807B681B8909
:101620009BB223F007039AB27B681A817B681B89FF
:101630009AB27B8842EA03039AB27B681A8107F167
:101640000C07BD4680BC704780B483B000AF7860A3
:101650000B467B807B681B899BB223F080039AB288
:101660007B681A817B681B899AB27B8842EA0303F4
:101670009AB27B681A8107F10C07BD4680BC70479F
:1016800080B483B000AF78600B467B807B681B8B97
:101690009BB223F00C039AB27B681A837B681B8B86
:1016A0009AB27B8842EA03039AB27B681A8307F1F5
:1016B0000C07BD4680BC704780B483B000AF786033
:1016C0000B467B807B681B8B9BB223F440639AB2F2
:1016D0007B681A837B681B8B9AB27B884FEA032353
:1016E0009BB242EA03039AB27B681A8307F10C07A4
:1016F000BD4680BC704700BF80B483B000AF786047
:101700007B689B8E9BB2184607F10C07BD4680BCD8
:10171000704700BF80B483B000AF78607B681B8FD8
:101720009BB2184607F10C07BD4680BC704700BF4E
:1017300080B483B000AF78600B467B807B886FEA13
:1017400003039AB27B681A8207F10C07BD4680BC7E
:10175000704700BF80B487B000AFF86079813A81EC
:10176000FB804FF00003BB824FF00003FB82FB685D
:101770001B8C9BB223F001039AB2FB681A84FB68AE
:101780001B8BBB82FB681B8CFB82BB8A23F0F303A1
:10179000BB82FB884FEA03139AB23B8942EA0303F8
:1017A0009AB2BB8A42EA0303BB82FA681D4B9A4293
:1017B00013D0FA681C4B9A420FD0FB68B3F1804FEC
:1017C0000BD0FA68194B9A4207D0FA68184B9A4224
:1017D00003D0FA68174B9A420CD1FB8A23F002031C
:1017E000FB827A89FB8A42EA03039BB243F001033E
:1017F000FB820BE0FB8A23F00A03FB827A89FB8AD7
:1018000042EA03039BB243F00103FB82FB68BA8AFE
:101810001A83FB68FA8A1A8407F11C07BD4680BC4C
:10182000704700BF002C014000340140000400401C
:1018300000080040000C004080B487B000AFF860A2
:1018400079813A81FB804FF00003BB824FF00003A7
:10185000FB824FF000037B82FB681B8C9BB223F062
:1018600010039AB2FB681A84FB681B8BBB82FB686F
:101870001B8CFB827B894FEA03137B82BB8A23F498
:1018800040734FEA03534FEA1353BB82FB884FEA7E
:1018900003339AB2BB8A42EA0303BB823B894FEA15
:1018A00003239AB2BB8A42EA0303BB82FA681D4B48
:1018B0009A4213D0FA681C4B9A420FD0FB68B3F1DE
:1018C000804F0BD0FA68194B9A4207D0FA68184B30
:1018D0009A4203D0FA68174B9A420CD1FB8A23F044
:1018E0002003FB827A8AFB8A42EA03039BB243F01D
:1018F0001003FB820BE0FB8A23F0A003FB827A89B2
:10190000FB8A42EA03039BB243F01003FB82FB68AD
:10191000BA8A1A83FB68FA8A1A8407F11C07BD4643
:1019200080BC7047002C014000340140000400409E
:1019300000080040000C004080B582B000AF134B9F
:101940007B60134B3B600BE07B681A683B681A6056
:101950003B6803F104033B607B6803F104037B6095
:101960003A680C4B9A42EFD30B480C494FF00002F7
:101970008842B8BF40F8042BFADB00F04BF900F0C6
:101980009BFB07F10807BD4680BD00BF504C000817
:10199000000000208801002088010020DC120020C7
:1019A00080B400AFFEE700BF80B487B000AF7860BE
:1019B0004FF000033B614FF00003FB604FF000036A
:1019C0007B6132E0204B7A6953F822207B68D31A7E
:1019D000002BB8BF5B423B617B6903F101021A4BEC
:1019E00053F822207B68D31A002BB8BF5B42FB6000
:1019F0003B69B3F57A7F08D9FB68B3F57A7F04D9E0
:101A00007B6903F101037B610FE03A69FB689A424D
:101A100004D20D4B7A6953F8223005E07B6903F15B
:101A20000102094B53F8223008E0084B1B6803F110
:101A3000FF327B699A42C5D84FF00003184607F180
:101A40001C07BD4680BC70470400002044490008C4
:101A500080B584B000AF78604FF00003FB81234B6A
:101A60001B68002B01D100F04DF821484FF0000118
:101A7000FFF72CFD1E484FF00001FFF78BFD1D4BBB
:101A80001A687B68B2FBF3F39BB203F1FF33FB816F
:101A9000194BFA899A8016481749FFF79FFBFB8973
:101AA00003F1FF3213464FEA83039B181A46134B88
:101AB000A3FB02134FEAD3039AB2114BDA800C480E
:101AC0000F49FFF70BFC0A484FF00801FFF782FDB2
:101AD00007484FF00101FFF75DFD05484FF0010198
:101AE000FFF7F4FC07F11007BD4680BD9001002010
:101AF0000008004044000020A8010020CDCCCCCC40
:101B0000B401002080B582B000AF3A4B1A683A4B5E
:101B1000A3FB02134FEA53339BB203F1FF33FB8065
:101B20004FF004004FF0010101F030FA334BFA8816
:101B30009A80324B4FF000021A80304B4FF0000277
:101B4000DA802E4B4FF000025A802D482B49FFF7C8
:101B500045FB2C4B4FF070021A802A4B4FF00102CC
:101B60005A80FB8803F1FF3213464FEA83039B1828
:101B70001A46254BA3FB02134FEAD3039AB2214B1B
:101B8000DA80204B4FF000021A811D481D49FFF7F3
:101B9000A5FB1B484FF00801FFF71CFD4FF00100AB
:101BA0004FF0010101F0D0F94FF008004FF00101B2
:101BB00001F0CAF94FF040033B804FF01803FB706F
:101BC0004FF00303BB703B461048194600F0CEF8B7
:101BD0000B484FF00101FFF7DDFC09484FF0010110
:101BE000FFF774FC0A4B4FF001021A6007F1080777
:101BF000BD4680BD4400002073B2E745A801002027
:101C000000080040B4010020CDCCCCCC000C014039
:101C10009001002080B500AF174B174A126842F0C0
:101C200001021A60144A144B5968144B01EA030369
:101C30005360114A104B1B6823F0847323F48033E4
:101C400013600D4B0C4A126822F480221A600A4B72
:101C5000094A526822F4FE025A60074B4FF41F02F1
:101C60009A60054B4FF00002DA6200F00BF8044B6B
:101C70004FF000629A6080BD001002400000FFF843
:101C800000ED00E080B500AF00F002F880BD00BFBD
:101C900080B483B000AF4FF000037B604FF00003CF
:101CA0003B60314B304A126842F480321A602E4B4E
:101CB0001B6803F400333B607B6803F101037B6026
:101CC0003B68002B03D17B68B3F5A06FEFD1264BA7
:101CD0001B6803F40033002B03D04FF001033B607B
:101CE00002E04FF000033B603B68012B37D11E4BF5
:101CF0001D4A52685A601C4B1B4A52685A601A4B64
:101D0000194A52685A60184B174A526822F47C12DA
:101D10005A60154B144A526842F498125A60124B9A
:101D2000114A126842F080721A6000BF0E4B1B68A5
:101D300003F00073002BF9D00B4B0B4A526822F0D2
:101D400003025A60084B084A526842F002025A6085
:101D500000BF054B5B6803F00C03082BF9D107F1BA
:101D60000C07BD4680BC70470010024080B489B0AB
:101D700000AF786039604FF00003FB614FF0000363
:101D80003B614FF00003BB614FF00003FB604FF07D
:101D900000037B614FF00003BB603B68DB7803F01E
:101DA0000F03FB613B68DB7803F01003002B05D0C9
:101DB0003B689B78FA6942EA0303FB613B681B8836
:101DC00003F0FF03002B51D07B681B687B614FF051
:101DD0000003BB6144E0BB694FF0010202FA03F368
:101DE000FB603B681B881A46FB6802EA03033B6101
:101DF0003A69FB689A422FD1BB694FEA8303FB60C3
:101E0000FB684FF00F0202FA03F3BB60BB686FEA96
:101E100003037A6902EA03037B61FB68FA6902FA49
:101E200003F37A6942EA03037B613B68DB78282B82
:101E300007D1BB694FF0010202FA03F27B685A61D5
:101E40000AE03B68DB78482B06D1BB694FF0010202
:101E500002FA03F27B681A61BB6903F10103BB61FB
:101E6000BB69072BB7D97B687A691A603B681B8806
:101E7000FF2B56D97B685B687B614FF00003BB6129
:101E800049E0BB6903F108034FF0010202FA03F3D2
:101E9000FB603B681B881A46FB6802EA03033B6150
:101EA0003A69FB689A4232D1BB694FEA8303FB600F
:101EB000FB684FF00F0202FA03F3BB60BB686FEAE6
:101EC00003037A6902EA03037B61FB68FA6902FA99
:101ED00003F37A6942EA03037B613B68DB78282BD2
:101EE00008D1BB6903F108034FF0010202FA03F2C3
:101EF0007B685A613B68DB78482B08D1BB6903F1EA
:101F000008034FF0010202FA03F27B681A61BB6911
:101F100003F10103BB61BB69072BB2D97B687A6906
:101F20005A6007F12407BD4680BC704780B483B077
:101F300000AF78607B684FF6FF721A807B684FF0C5
:101F400002029A707B684FF00402DA7007F10C0706
:101F5000BD4680BC704700BF90B484B000AF02465D
:101F60000B46FA71BB714FF00003FB60BB7903F0C5
:101F700003034FEA83034FF00F0202FA03F3FB60FF
:101F80001B4BBA794FEA9202D2B21949B8794FEA9B
:101F90009000C0B200F1020051F82000F9686FEA29
:101FA000010100EA010102F1020243F82210104B84
:101FB000BA794FEA9202D2B20D49B8794FEA90004D
:101FC000C0B200F1020051F82000FC79B97901F0AB
:101FD00003014FEA810104FA01F140EA010102F133
:101FE000020243F8221007F11007BD4690BC70476B
:101FF0000000014080B483B000AF0346FB71094B81
:1020000097F907204FEA5212F97901F01F014FF0BA
:10201000010000FA01F143F8221007F10C07BD4658
:1020200080BC704700E100E080B483B000AF03469D
:10203000FB710A4B97F907204FEA5212F97901F028
:102040001F014FF0010000FA01F102F1200243F8F4
:10205000221007F10C07BD4680BC704700E100E08C
:1020600080B483B000AF03463960FB7197F9073045
:10207000002B0DDA0E49FB7903F00F03A3F10403E3
:102080003A68D2B24FEA0212D2B2CB181A760AE0FC
:10209000084997F907303A68D2B24FEA0212D2B231
:1020A000CB1883F8002307F10C07BD4680BC7047AE
:1020B00000ED00E000E100E090B583B000AFFFF775
:1020C000A9FD00F061F800F0DBF800F001F94FF431
:1020D000E13000F079F948F6A040FFF7B9FC224B57
:1020E0004FF000021A604FF000037B6011E01F4BBD
:1020F0007A684FF0000143F832101C4A7B684FEABF
:10210000C303D3184FF000025A607B6803F1010348
:102110007B607A6840F2FF139A42E8DD144B4FF07F
:1021200000021A60134B1B6818461349FEF70EFB9A
:10213000104B1B6818461149FEF760FB0D4B1B68DE
:1021400018460F49FEF74CFB0A4B1B6818460D4911
:10215000FEF762FB074B1C6801F058F90346204666
:102160001946FEF703FEF5E7B4020020B80200208E
:102170009C01002058000020D1330008653400087D
:1021800015380008D138000880B582B000AF4FF094
:1021900010004FF0010100F0D7FE4FF001004FF0AA
:1021A000010100F0D1FE4FF004004FF0010100F0FA
:1021B000CBFE4FF44073BB804FF01003FB714FF028
:1021C0000303BB7107F104032B481946FFF7CEFD4B
:1021D00007F104031846FFF7A9FE4FF00103BB8087
:1021E0004FF02803FB714FF00303BB7107F10403A9
:1021F00021481946FFF7BAFD07F104031846FFF717
:1022000095FE4FF48063BB804FF00403FB714FF0E9
:102210000303BB7107F1040318481946FFF7A6FD35
:1022200007F104031846FFF781FE4FF40073BB80EB
:102230004FF01803FB714FF00303BB7107F1040368
:102240000E481946FFF792FD07F104031846FFF701
:102250006DFE4FF08003BB804FF00403FB714FF025
:102260000303BB7107F1040304481946FFF77EFD21
:1022700007F10807BD4680BD00100140000801407D
:1022800080B582B000AF4FF00600FFF7B3FE4FF00D
:1022900006004FF00101FFF7E3FE4FF002004FF0A0
:1022A0000001FFF759FE4FF001033B604FF00003C0
:1022B0003B714FF010037B714FF00103BB713B4644
:1022C000184600F085FE07F10807BD4680BD00BF37
:1022D00080B586B000AF394B1A68394BA3FB0213A7
:1022E0004FEA93439BB203F1FF33FB824FF00200AE
:1022F0004FF0010100F04AFE4FF001004FF00101E4
:1023000000F044FE4FF6FF733B82FB8ABB814FF027
:1023100000037B824FF00003FB8107F10C034FF0B9
:1023200080401946FEF75AFF4FF080404FF0010100
:102330004FF00102FFF7EAF84FF004033B804FF043
:1023400000037B804FF00103BB804FF00003FB8054
:102350004FF000033B813B461A481946FFF754F8FB
:1023600018484FF06001FFF7F7F816484FF00401E6
:10237000FFF74EF913484FF08001FFF765F9114858
:102380004FF004014FF00102FFF7C0F84FF01C00BE
:10239000FFF730FE4FF01C004FF00301FFF760FE27
:1023A0004FF01D00FFF726FE4FF01D004FF0040117
:1023B000FFF756FE07F11807BD4680BD4400002018
:1023C00083DE1B430004004080B586B000AF786018
:1023D0004FF480404FF0010100F0B6FD7B68BB6018
:1023E0004FF00003BB824FF00C037B824FF00003E1
:1023F000FB814FF00803BB814FF000033B8207F1E4
:1024000008030648194600F06FFE04484FF001012A
:1024100000F042FF07F11807BD4680BD00380140BB
:1024200080B500AF274B274AD26882F48072DA6009
:102430004FF080404FF00001FFF748F8224B1B6837
:1024400003F1FF324FF080439B8C9BB219461F4B28
:1024500043F832101C4B1A681A4B9B6803F00101B9
:102460001A484FEAC203C318596002F10102164B21
:102470001A604FF080434FF000029A844FF0804082
:102480004FF00101FFF722F8114B1B68114A126847
:10249000934294BF00220122D2B203F101010C4BFE
:1024A0001960002A09D04FF00600FFF7BDFD4FF07C
:1024B00080404FF00001FFF709F84FF0010000F0F5
:1024C00005FE80BD00100140B4020020B8020020CB
:1024D000A00100204C49000880B500AF21484FF012
:1024E0000401FFF725F91F48FFF714F903461A46C0
:1024F0001D4B1A801C4B1B889BB2002B29D01948FE
:10250000FFF7FAF803464FF0640202FB03F2164BA2
:102510001B889BB292FBF3F39AB2144B1A80144BB4
:102520001A68114B1B889BB2B2FBF3F2114B1A6075
:10253000104B1A6847F248139A4212D90D4B1A6889
:102540004EF653439A420CD80A4B1A680A4B1A604B
:1025500007E0064B4FF000021A80064B4FF00002D6
:102560001A6080BD00040040940100209601002004
:102570004400002098010020A401002080B500AF95
:10258000224B224AD26882F40072DA60204B1B6828
:1025900003F1FF321F4B4FF6FF7143F832101C4B13
:1025A00018681B4B1B6803F1FF331A4A4FEAC30339
:1025B000D3185A6817494FEAC003CB185A60144B16
:1025C0001B6803F10102124B1A60134B1B68134A7C
:1025D0001268934294BF00220122D2B203F101019A
:1025E0000D4B1960002A09D04FF00600FFF71CFDC3
:1025F0004FF080404FF00001FEF768FF4FF0804041
:102600004FF00101FFF794F880BD00BF00100140BA
:10261000B4020020B8020020A00100204C490008AC
:1026200080B582B000AF0346FB7100BF08484FF091
:10263000800100F077FE0346002BF7D0FB799BB2B8
:102640000348194600F048FE07F10807BD4680BD63
:102650000038014080B483B000AF78600B46FB7057
:102660007B68FA781A704FF00103184607F10C07DF
:10267000BD4680BC704700BF80B485B000AF7860B5
:1026800039604FF00003FB600FE03B681A787B680D
:102690001A707B6803F101037B603B6803F101035F
:1026A0003B60FB6803F10103FB603B681B78002B78
:1026B000EBD1FB68184607F11407BD4680BC704794
:1026C00080B586B000AFF8607A603B600B46FB7265
:1026D0004FF000037B617B6803F1FF337B603B6855
:1026E000092B22D93A68224BA3FB02134FEAD303EA
:1026F000FA7AF86811467A68FFF7E2FF78617B6939
:10270000FA68D318FB6013E0FB7AF8681946FFF704
:10271000A1FFFB6803F10103FB607B6903F1010387
:102720007B617B6803F1FF337B607B68002BEBDC14
:1027300039680F4BA3FB01234FEAD30213464FEA3C
:1027400083039B184FEA4303CA1AD3B203F1300341
:10275000DBB2F8681946FFF77DFF03467A69D318A4
:102760007B617B69184607F11807BD4680BD00BF35
:10277000CDCCCCCC80B586B000AFF8607A603B6041
:102780000B46FB724FF000037B613B68002B04DAC1
:102790003B68C3F100033B6101E03B683B617B6840
:1027A00003F1FF337B603B69092B24D93B68002B85
:1027B0000FDA3A69354BA3FB02134FEAD303C3F197
:1027C0000003FA7AF86811467A68FFF7D3FF786158
:1027D0000CE03A692D4BA3FB02134FEAD303FA7ABC
:1027E000F86811467A68FFF7C5FF78617B69FA6877
:1027F000D318FB602BE03B68002B15DA7B6803F1F4
:10280000FF337B6010E0FB7AF8681946FFF722FF80
:10281000FB6803F10103FB607B6903F101037B614A
:102820007B6803F1FF337B607B68002BEBDC3B684C
:10283000002B0CDAF8684FF02D01FFF70BFF034671
:102840007A69D3187B61FB6803F10103FB60396986
:102850000E4BA3FB01234FEAD30213464FEA830337
:102860009B184FEA4303CA1AD3B203F13003DBB219
:10287000F8681946FFF7EEFE03467A69D3187B61C4
:102880007B69184607F11807BD4680BDCDCCCCCC7E
:1028900080B588B002AFF8607A600A46FA72FB70C1
:1028A0004FF000037B617B6803F1FF337B603B6A81
:1028B0004FEA1313002B24D03B6A4FEA1311FA7A24
:1028C000FB780091F86811467A68FFF7E1FF03464C
:1028D0007A69D3187B617B69FA68D318FB6013E0CF
:1028E000FB7AF8681946FFF7B5FEFB6803F10103B0
:1028F000FB607B6903F101037B617B6803F1FF33BC
:102900007B607B68002BEBDC3B6A03F00F03092B39
:102910000CD83B6ADBB203F00F03DBB203F13003E8
:10292000DBB2F8681946FFF795FE1BE0FB78002B39
:102930000CD03B6ADBB203F00F03DBB203F13703C9
:10294000DBB2F8681946FFF785FE0BE03B6ADBB2A5
:1029500003F00F03DBB203F15703DBB2F86819464B
:10296000FFF778FE7B6903F101037B617B69184601
:1029700007F11807BD4680BD80B58AB002AFF86088
:10298000B9607A603B604FF00003BB614FF0000319
:102990007B61FB68002B00F01C81FB684FF000029C
:1029A0001A7017E17B681B78252B10D07B681A788A
:1029B000FB681A70FB6803F10103FB607B6803F19D
:1029C00001037B607B6903F101037B6102E17B68AA
:1029D00003F101031B78252B10D1FB684FF0250272
:1029E0001A70FB6803F10103FB607B6803F10203CB
:1029F0007B607B6903F101037B61EBE04FF0200317
:102A0000FB774FF00003BB777B6803F101037B602A
:102A10007B681B78302B1BD14FF03003FB777B6832
:102A200003F101037B6014E0BB7F1A464FEA820288
:102A3000D3184FEA4303DAB27B681B78D318DBB2B2
:102A4000A3F13003BB777B6803F101037B6000E0F7
:102A500000BF7B681B782F2B03D97B681B78392B31
:102A6000E2D9BA7F7B69D3181A46BB689A4205D966
:102A7000BB68DAB27B69DBB2D31ABB777B681B78A1
:102A8000A3F15803202B00F2948001A252F823F006
:102A9000652B0008B32B0008B32B0008B32B0008EC
:102AA000B32B0008B32B0008B32B0008B32B00088E
:102AB000B32B0008B32B0008B32B00089B2B000896
:102AC000152B0008B32B0008B32B0008B32B00080C
:102AD000B32B0008152B0008B32B0008B32B0008FC
:102AE000B32B0008B32B0008B32B0008B32B00084E
:102AF000B32B0008B32B0008B32B0008852B00086C
:102B0000B32B00082D2B0008B32B0008B32B0008B3
:102B1000452B0008BA7F3B6803F1040139601B684C
:102B2000F97FF868FFF726FEB86145E0BA7F3B6899
:102B300003F1040139601B68F97FF868FFF7C0FDF5
:102B4000B86139E0BA7F3B6803F104013960196864
:102B5000FB7F0091F86819464FF00003FFF798FEDD
:102B6000B86129E0BA7F3B6803F104013960196854
:102B7000FB7F0091F86819464FF00103FFF788FECC
:102B8000B86119E03B6803F104023A601B68F86819
:102B90001946FFF771FDB8610EE03B6803F10402CE
:102BA0003A601B68DBB2F8681946FFF753FDB8615D
:102BB00002E04FF0FF332CE07B6803F101037B6000
:102BC000BB69FA68D318FB607A69BB69D3187B616B
:102BD00000E000BF7B681B78002B04D07A69BB68DB
:102BE0009A42FFF4DFAE7A69BB689A4204D2FB686E
:102BF0004FF000021A700BE0FB6803F1FF33FB603B
:102C0000FB684FF000021A707B6903F1FF337B61B0
:102C10007B69184607F12007BD4680BD0CB480B51E
:102C200084B000AF7860396007F11C03BB6078683E
:102C30003968BA69BB68FFF79FFEF860FB68184601
:102C400007F11007BD46BDE8804002B0704700BFE5
:102C500080B584B000AFF860B9607A60F8684FF072
:102C60006401BA687B68FFF787FE0346184607F1E0
:102C70001007BD4680BD00BFB0B5A6B000AFF8607C
:102C8000B9607A60144B07F110041D460FCD0FC4D4
:102C90000FCD0FC42B68236007F134031846B968C1
:102CA0007A68FFF7D5FF0346632B09DD0B4B1B68E2
:102CB000DB6807F110021046194600F05FF8FEE7E6
:102CC00007F134031846F96800F058F8034618462F
:102CD00007F19807BD46B0BD504900084C010020DF
:102CE00080B582B000AF78603960074B1B689B6885
:102CF000184679683A68FFF7BFFF0346184607F1A0
:102D00000807BD4680BD00BF4C0100200FB480B550
:102D100082B000AF07F114033B6038693968FFF7F0
:102D2000DFFF78607B68184607F10807BD46BDE8FD
:102D3000804004B0704700BF80B582B000AF7860BB
:102D400039600D4B1B689A683B689A4205D00A4B64
:102D50001B68DA683B689A4206D17B68DBB218468A
:102D6000FFF75EFC7B6801E04FF0FF33184607F188
:102D70000807BD4680BD00BF4C01002080B584B06F
:102D800000AF786039604FF00003FB6014E07B68AF
:102D90001B7818463968FFF7CFFF0346B3F1FF3FB2
:102DA00002D14FF0FF330CE0FB6803F10103FB603D
:102DB0007B6803F101037B607B681B78002BE6D105
:102DC000FB68184607F11007BD4680BD80B489B086
:102DD00000AF78604FF00003FB614FF00003BB6170
:102DE0004FF000037B614FF000033B614FF00003A5
:102DF000FB60504B5B6803F00C03FB61FB69042B29
:102E000007D0082B09D0002B32D17B684A4A1A60C0
:102E100032E07B68484A1A602EE0464B5B6803F458
:102E20007013BB61434B5B6803F480337B61BB6908
:102E30004FEA934303F10203BB617B69002B06D188
:102E4000BB693E4A02FB03F27B681A6014E0394B0F
:102E5000DB6A03F00F0303F10103FB60364AFB68F2
:102E6000B2FBF3F3BA6902FB03F27B681A6003E07A
:102E70007B68314A1A6000BF2E4B5B6803F0F00399
:102E8000FB61FB694FEA1313FB612D4AFB69D31801
:102E90001B78DBB23B617B681A683B6922FA03F25C
:102EA0007B685A60234B5B6803F4E063FB61FB695A
:102EB0004FEA1323FB61224AFB69D3181B78DBB26C
:102EC0003B617B685A683B6922FA03F27B689A602F
:102ED000184B5B6803F46053FB61FB694FEAD32333
:102EE000FB61174AFB69D3181B78DBB23B617B6837
:102EF0005A683B6922FA03F27B68DA600D4B5B6823
:102F000003F44043FB61FB694FEA9333FB610D4AD5
:102F1000FB69D3181B78DBB23B617B68DA683B69DD
:102F2000B2FBF3F27B681A6107F12407BD4680BC4F
:102F3000704700BF0010024000127A0000093D00F7
:102F4000500100206001002080B483B000AF7860A1
:102F50000B46FB70FB78002B07D00B4B0A4A91699C
:102F60007A6841EA02029A6108E0074B064A9169D1
:102F70007A686FEA020201EA02029A6107F10C071D
:102F8000BD4680BC704700BF0010024080B483B0D3
:102F900000AF78600B46FB70FB78002B07D00B4B23
:102FA0000A4AD1697A6841EA0202DA6108E0074B0D
:102FB000064AD1697A686FEA020201EA0202DA611E
:102FC00007F10C07BD4680BC704700BF00100240EF
:102FD00080B485B000AF78604FF00003FB603A4BDF
:102FE000FB607B689B79002B59D0374B364A1168C0
:102FF0007A6812686FEA020201EA02021A60324B32
:10300000314A51687A6812686FEA020201EA0202E4
:103010005A607B681B79FA68D318FB60FB68FA6812
:1030200011687A68126841EA02021A60264B264A41
:1030300091687A6812686FEA020201EA02029A60F5
:10304000214B214AD1687A6812686FEA020201EACC
:103050000202DA607B685B79102B10D11A4B1A4A96
:1030600091687A68126841EA02029A60164B164A21
:10307000D1687A68126841EA0202DA601EE0124BF7
:10308000FB607B685B79FA68D318FB60FB68FA68C1
:1030900011687A68126841EA02021A600EE07B68E1
:1030A0001B79FA68D318FB60FB68FA6811687A68C4
:1030B00012686FEA020201EA02021A6007F11407BD
:1030C000BD4680BC704700BF0004014080B483B09F
:1030D00000AF7860034B7A685A6107F10C07BD4670
:1030E00080BC70470004014080B58CB000AF7860B0
:1030F00039604FF00003FB624FF00003BB624FF0FA
:1031000000037B624FF000033B624FF00003FB6162
:103110007B68FB617B681B8A9BB2FB62FA6A4CF698
:10312000FF7302EA0303FB623B68DB88FA6A42EA48
:103130000303FB62FB6A9AB27B681A827B689B89F5
:103140009BB2FB62FA6A4EF6F31302EA0303FB62D8
:103150003B689A883B681B8942EA03039AB23B6842
:103160005B8942EA03039BB2FA6A42EA0303FB6209
:10317000FB6A9AB27B689A817B689B8A9BB2FB62EE
:10318000FA6A4FF6FF4302EA0303FB623B689B893E
:10319000FA6A42EA0303FB62FB6A9AB27B689A828C
:1031A00007F108031846FFF711FEFA69384B9A42F7
:1031B00002D17B69BB6201E03B69BB627B689B8992
:1031C0009BB29BB21BB2002B0FDABA6A13464FEACE
:1031D00083039B184FEA83029A183B681B684FEAE7
:1031E0004303B2FBF3F37B620EE0BA6A13464FEA85
:1031F00083039B184FEA83029A183B681B684FEAC7
:103200008303B2FBF3F37B627A6A224BA3FB0213C4
:103210004FEA53134FEA0313FB62FB6A4FEA13139F
:103220004FF0640202FB03F37A6AD31A3B627B68B5
:103230009B899BB29BB21BB2002B10DA3B6A4FEA10
:10324000C30303F13202134BA3FB02134FEA5313E0
:1032500003F00703FA6A42EA0303FB620FE03B6AEA
:103260004FEA031303F132020A4BA3FB02134FEAA6
:10327000531303F00F03FA6A42EA0303FB62FB6A8B
:103280009AB27B681A8107F13007BD4680BD00BF46
:10329000003801401F85EB5180B483B000AF7860E7
:1032A0000B46FB70FB78002B08D07B689B899BB298
:1032B00043F400539AB27B689A8107E07B689B894C
:1032C0009BB223F400539AB27B689A8107F10C07F2
:1032D000BD4680BC704700BF80B483B000AF78604B
:1032E0000B467B807B884FEAC3534FEAD3539AB295
:1032F0007B689A8007F10C07BD4680BC704700BF11
:1033000080B483B000AF78607B689B889BB24FEA43
:10331000C3534FEAD3539BB2184607F10C07BD467F
:1033200080BC704780B485B000AF78600B467B806E
:103330004FF00003FB737B681B889AB27B8802EA1C
:1033400003039BB2002B03D04FF00103FB7302E099
:103350004FF00003FB73FB7B184607F11407BD46D3
:1033600080BC704780B483B000AF0346FB71094B4B
:1033700097F907204FEA5212F97901F01F014FF037
:10338000010000FA01F143F8221007F10C07BD46D5
:1033900080BC704700E100E080B483B000AF03461A
:1033A000FB710A4B97F907204FEA5212F97901F0A5
:1033B0001F014FF0010000FA01F102F1200243F871
:1033C000221007F10C07BD4680BC704700E100E009
:1033D00080B584B000AF78604FF00003FB600AE076
:1033E000FB687A68D3181B78FA6802F10102FA6068
:1033F0001846FFF715F9FB687A68D3181B78002B7D
:10340000EED107F11007BD4680BD00BF80B500AF0B
:1034100000BF07484FF02001FFF784FF0346002B51
:10342000F7D00348FFF76CFF0346DBB2184680BDB8
:103430000038014080B500AF0648FFF7C9FF0648D5
:10344000FFF7C6FF0548FFF7C3FF0548FFF7C0FFBA
:1034500080BD00BFB4490008DC490008044A0008E8
:10346000244A000880B586B000AF786039604FF01C
:1034700000037B614FF000033B614FF00003FB60F2
:10348000AFE17B694FEA83033A68D3181B6818469B
:10349000934900F089FB0346002B11D19148FFF7B7
:1034A00097FF9148FFF794FF9048FFF791FF9048EE
:1034B000FFF78EFF8F48FFF78BFFFFF7BBFF8CE115
:1034C0007B694FEA83033A68D3181B6818468A4918
:1034D00000F06AFB0346002B06D18848FFF778FF0F
:1034E0008748FFF775FF78E17B694FEA83033A6805
:1034F000D3181B681846834900F056FB0346002B7F
:1035000002D14FF0000373E17B694FEA83033A680D
:10351000D3181B6818467C4900F046FB0346002B75
:103520001DD14FF000033B6111E0784B3A694FF039
:10353000000143F83210754A3B694FEAC303D318C0
:103540004FF000025A603B6903F101033B613A69A5
:1035500040F2FF139A42E8DD4FF0000348E17B6937
:103560004FEA83033A68D3181B681846684900F08D
:103570001BFB0346002B2FD1664B4FF000021A6055
:10358000654B4FF000021A60644B4FF000021A6066
:10359000604B1A68624B9B6803F001015B484FEA7D
:1035A000C203C318596002F101025A4B1A604FF06E
:1035B00080404FF00001FDF789FF5A484FF00101AC
:1035C000FDF784FF4FF00600FFF7CCFE5648FFF7EB
:1035D000FFFE4FF000030BE17B694FEA83033A687B
:1035E000D3181B681846514900F0DEFA0346002B39
:1035F0003ED14FF00600FFF7CFFE4FF080404FF076
:103600000001FDF763FF47484FF00001FDF75EFF43
:10361000404B1A6840F2FF139A4205D94448FFF71D
:10362000D7FE4FF00103E3E04FF000033B6111E0F0
:10363000364A3B694FEAC303D3185A68334B39699A
:1036400053F831303B483969FFF760FB3B6903F1C0
:1036500001033B613A692F4B1B689A42E8D32F4B19
:103660001B6835481946FFF751FB4FF00003BFE0D8
:103670007B694FEA83033A68D3181B6818462F49C1
:1036800000F092FA0346002B5AD1224B1A6840F2FE
:10369000FF139A4205D92648FFF79AFE4FF001031F
:1036A000A6E04FF000033B6111E0184A3B694FEA86
:1036B000C303D3185A68154B396953F831301D4884
:1036C0003969FFF723FB3B6903F101033B613A6969
:1036D000104B1B689A42E8D34FF0000388E000BF0C
:1036E00074490008444A0008504A0008544A000837
:1036F000684A00086C4A00087C490008704A0008C3
:10370000784A00088449000890490008B80200205F
:1037100098490008B4020020A0010020A401002064
:1037200000100140000400407C4A0008A049000845
:10373000884A0008A84A0008C84A0008A8490008A2
:103740007B694FEA83033A68D3181B6818462B49F4
:1037500000F02AFA0346002B30D17B6903F1010304
:103760007B617A697B689A4222DA7B694FEA83033C
:103770003A68D3181B68184600F0B2F80346FB609D
:10378000F868FEF711F90346FB60FB68002B05D1D2
:103790001B48FFF71DFE4FF0FF3329E01948F96879
:1037A000FFF7B4FAF868FEF753F94FF000031FE093
:1037B0001548FFF70DFE4FF0010319E01348FFF71E
:1037C00007FE7B694FEA83033A68D3181B681846E3
:1037D000FFF7FEFD0E48FFF7FBFD7B6903F10103D8
:1037E0007B617A697B689A42FFF64BAE4FF000032B
:1037F000184607F11807BD4680BD00BFB049000854
:10380000D44A0008F04A0008044B0008204B000886
:103810002C4B000880B586B000AF786039604FF05F
:1038200000037B61284B4FF000021A607B68012B7C
:103830003BD17B6803F1FF334FEA83033A68D31827
:103840001B68FB604FF000033B611EE01F4B3A69B1
:1038500053F822301846F96800F03AFC02461B4B38
:10386000396953F821309A420BD1184B3A6953F811
:103870002210154B7A6943F822107B6903F101038A
:103880007B613B6903F101033B613B69072BDDDD94
:103890000EE00E4B7A6953F822100B4B7A6943F80D
:1038A00022107B6903F101037B617B69072BF0DD4B
:1038B000054B7A694FF0000143F82210024B18467D
:1038C00007F11807BD4680BDB81200206401002032
:1038D00080B500AF0148FFF77BFD80BD3C4B000881
:1038E00000210A2200F0B4BD00220A2300F0FEBC31
:1038F000032A2DE9F00109D82AB10023CC5CC45475
:1039000001339342FAD1BDE8F00170470B468218AB
:10391000014603E02478013301F8014B11F0030F55
:103920001C46F7D113F003055DD06E42C5F1040CBF
:10393000ED009B594FEACC0C08E00434A7593B46F4
:1039400007FA0CF748EA070741F8047B571A23FAED
:1039500005F8032FF1DC03E014F8013B01F8013B0B
:103960008A42F9D8CFE753F8404C41F8404C53F81D
:103970003C4C41F83C4C53F8384C41F8384C53F827
:10398000344C41F8344C53F8304C41F8304C53F837
:103990002C4C41F82C4C53F8284C41F8284C53F847
:1039A000244C41F8244C53F8204C41F8204C53F857
:1039B0001C4C41F81C4C53F8184C41F8184C53F867
:1039C000144C41F8144C53F8104C41F8104C53F877
:1039D0000C4C41F80C4C53F8084C41F8084C53F887
:1039E000044C41F8044C561A1D460C4640334031F5
:1039F0003F2EB8DC2B460FE053F8101C44F8101C87
:103A000053F80C1C44F80C1C53F8081C44F8081C10
:103A100053F8041C44F8041C161B21461D461034A0
:103A200010330F2EE8DC2B4602E0246841F8044BEB
:103A3000551A1C46032D03F10403F6DC90E700BF82
:103A400088420346F0B40C460ED98D18A8420BD21A
:103A500042B1831829469A1A11F8014D03F8014D15
:103A60009342F9D1F0BC70470F2A38D941EA0005DA
:103A700015F0030F35D1A2F1100601F110050B4628
:103A80000246370905EB07151C6814605C68546032
:103A90009C689460DC681033D46010329D42F3D18E
:103AA0007C1C06F00F022401032A00EB04032144CE
:103AB00014D9043A0C461D464FEA920C01EB8C07D0
:103AC000043754F8046BBC4245F8046BF9D10CF18F
:103AD000010402F00302A4001B1909190C46002A74
:103AE000C0D02146A21811F8014B914203F8014BB6
:103AF000F9D1B7E7032AC9B270B408D82AB103468E
:103B0000121803F8011B9342FBD170BC7047821856
:103B1000044601E004F8011B14F0030FFAD14FF042
:103B2000013303FB01F31FE044F8403C44F83C3C04
:103B300044F8383C44F8343C44F8303C44F82C3CDD
:103B400044F8283C44F8243C44F8203C44F81C3C0D
:103B500044F8183C44F8143C44F8103C44F80C3C3D
:103B600044F8083C44F8043C161B254640343F2EDC
:103B7000DADC2C4607E044F8103C44F80C3C44F8EE
:103B8000083C44F8043C161B254610340F2EF2DC8A
:103B900001E045F8043B541B032CFADC01E005F876
:103BA000011B9542FBD3B0E780EA010212F0030F3C
:103BB0003AD110F0030220F0030021F0030150F885
:103BC00004CB08BF51F8043B0DD082F003024FEA4A
:103BD000C2026FF07F4323FA02F251F8043B4CEA31
:103BE000020C43EA020300BFACF101329C4501BF65
:103BF00022EA0C0212F0803F50F804CB51F8043B4B
:103C0000F2D04FEA0C604FEA1C2C012828BFB0EB21
:103C1000036F08BF1B0AF4D003F0FF034FEA1060E4
:103C2000A0EB0300704700BF10F0030F0AD010F89C
:103C3000012B11F8013B012A28BF9A42F4D0A2EBD4
:103C4000030070474DF8045D4DF8044D4FF001023C
:103C500042EA022242EA024201F0030C21F003018F
:103C600050F8044B51F8045BBCF1020F26D04BD83E
:103C700024F07F4CBCEB152FA4EB020323EA0403D2
:103C80000DD113EAC21308BF51F8045B0AD18CEAC4
:103C9000040CBCEB056F0CD150F8044BE8E74FEA7D
:103CA00015255CE033F07F4352D10D784FEA146C58
:103CB00055E04FEA146C05F0FF0550E04FEA044C64
:103CC000A4EB02034FEA1C4C23EA0403BCEB154FA0
:103CD00017D113EAC21308BF51F8045B07D18CEA6D
:103CE000040CBCEB054F08D150F8044BE6E71B046D
:103CF0002ED10D884FEA144C31E04FEA05454FEACA
:103D0000144C4FEA15452AE004F0FF0CBCEB156F8C
:103D1000A4EB020323EA04030DD113EAC21308BF84
:103D200051F8045B0AD18CEA040CBCEB052F0AD1D4
:103D300050F8044BE8E74FEA156510E014F0FF0F68
:103D400006D051F8045B4FEA142C25F07F4506E0BD
:103D50004FF000005DF8044B5DF8045B70470CF019
:103D6000FF0205F0FF00012828BF904204BF4FEA80
:103D70001C2C2D0AF3D0A2EB00005DF8044B5DF87B
:103D8000045B704720F0030110F00300C0F1000055
:103D900051F8043B00F1040C4FEACC0C6FF0000228
:103DA0001CBF22FA0CF213434FF0010C4CEA0C2C0E
:103DB0004CEA0C4CA3EB0C0222EA030212EACC12EE
:103DC00004BF51F8043B0430F4D013F0FF0F1FBFC1
:103DD000013013F47F4F013013F47F0F18BF01300F
:103DE000704700BF01232DE9F0071D4600264FF064
:103DF000FF37AC1900EB070C8C420DD21CF805C044
:103E000010F80480E0452ED201252646E31BAC19AC
:103E10008C4200EB070CF1D34FF0010900264D4610
:103E20004FF0FF3C1360AC1900EB0C08A1420ED917
:103E300018F8058010F804A0C2451AD901252646B5
:103E4000CCEB0409AC19A14200EB0C08F0D80CF142
:103E500001000137B8423CBF99463846C2F800908D
:103E6000BDE8F00770470BD0012337461D46F61812
:103E7000BFE709D04FF00109B4464D464E44D2E7A2
:103E80009D4205D00135B4E74D4505D00135CAE75F
:103E90002B4626460125ACE7A94626460125C2E762
:103EA0002DE9F04FADF5826D81B0144607461046FE
:103EB0000DF580628B460C3219461D46FFF792FFC6
:103EC00003AE04A901F57E72331F009043F8045F2E
:103ED0009342FBD14DB1681E0023E25CC11A01334D
:103EE00003AEAB4246F82210F7D1DDF80C142046A1
:103EF000009A611800F0FEFA002877D100998146F7
:103F000005F1FF380646C1F1010201925A46AB465F
:103F100009EB0B0501F1FF3AB8180021AA1A00F0CD
:103F2000A3FA00284FD1002D00F0C0807B1903A90F
:103F300013F8013C51F82330002B4CD1009B9E42DA
:103F400028BF334698450FD903EB0901E05C7A1886
:103F5000795C884205D038E012F8011FE05C8842A5
:103F600033D101339845F7D8009A964280F0A48067
:103F700007EB090214F80A10534612F80A2091427E
:103F800004BF0AEB0901791807D095E014F802C0C4
:103F900011F8010D844503D113465A1EB342F5D1E1
:103FA00001369E4200F28D80DDF80C642A46B14451
:103FB000C6EB0B0609EB0B05B8180021AA1A00F096
:103FC00053FA0028AFD0002071E0019A00269144F6
:103FD00099442A46EEE7002EFAD0DDF80C249342ED
:103FE0003CBFC2EB0B0306469944F2E7009E4FF03C
:103FF00000080099AB1BB34238BF3346C1F1010240
:104000006E1E019201F1FF3A5A468946AB460133D2
:10401000CDF80C3408EB0B05B8180021AA1A00F0F3
:1040200023FA0028CFD1002D40D07B1903A913F823
:10403000013C51F82330002B30D1B14513D208EBAD
:10404000090314F80910FA18FB5C994218BF4B4693
:1040500027D14B4604E012F8011FE05C884220D1D2
:104060000133B342F7D3BAF1FF3F53462CD007EBED
:10407000080C14F80A101CF80A2091420CD10AEB23
:104080000802BA1804E0E05C12F8011D884203D16E
:10409000013BF8D260460AE0DDF80C3498442A4629
:1040A000B8E701992A4688449844B3E7284605B002
:1040B0000DF5806DBDE8F08F009B01369E427FF6C6
:1040C00073AF07EB0900F2E707EB080C6046EEE779
:1040D0002DE9F04F8346037885B00C46002B00F0A5
:1040E000F9800A78A2B106460131012002E011F8F8
:1040F000012B8AB1934214BF002000F0010016F892
:10410000013F0D46002BF2D12B782BB14FF0000B65
:10411000584605B0BDE8F08F0028F9D10BF1010039
:10412000217800F019FA2D1BA5F10102534243EB4F
:104130000203002808BF43F00103074683B90BEBD5
:104140000508404594BFC0EB08084FF001081F2D3B
:1041500008D9414622462B46FFF7A2FE8346D7E701
:104160008346D5E7294603AA2046FFF73BFE03997D
:104170006118814620464A4600F0BCF900284FD11C
:1041800009F1FF33C9F10102064601928246424617
:10419000C84699460AEB050BB8180021C2EB0B0282
:1041A00000F062F90028B1D1BBF1000FB0D0464554
:1041B0002CBF334643469D420FD903EB0A01E05C16
:1041C0007A18795C884205D075E012F8011FE05C2E
:1041D000884270D101339D42F7D1B0457DD907EBBC
:1041E0000A0214F809104B4612F80920914202BF46
:1041F00009EB0A01AC46791806D06EE0A55C11F80F
:10420000010D854203D113465A1EB342F6D16546CD
:1042100001369E4267D8039E5A46B244AE1BB9E7A8
:10422000C9F10101C9EB05034246002609F1FF3A35
:1042300088464B4538BF4B460133039306EB050BCD
:10424000B8180021C2EB0B0200F00EF900287FF431
:104250005DAFBBF1000F3FF45BAF4D4512D906EBEC
:10426000090314F80910FA18FB5C994208BF4B4681
:1042700005D026E012F8011FE05C884222D101330C
:104280009D42F7D1BAF1FF3F534628D007EB060C09
:1042900014F80A101CF80A20914217D10AEB060202
:1042A000BA1804E0E05C12F8011D88420ED1013B0F
:1042B000F8D2E3462CE7019A002692445A469A44E3
:1042C00068E74B4646445A46F618B7E7039B5A46FA
:1042D000F618B3E70D46012016E7434698E707EBCB
:1042E000060CE34614E707EB0A0B11E72DE9F04F44
:1042F00040F28414C2F2000485B01F468C46266842
:104300000B460390029213F8014B32191D4692F8A6
:1043100001B01BF0080BF6D12D2C73D02B2C08BF4D
:1043200015F8014BD7F1010338BF0023102F14BF3C
:104330001A4643F0010232B1302C73D01BB1302C3D
:1043400000F083800A27B946BBF1000F49460CBF35
:104350006FF0004A4FF0004ACDF804C0504600F01C
:10436000B1FA50468846494600F07EF933190022DA
:10437000DDF804C05B78114613F0040F1ED0303C0A
:10438000A74225DD814294BF0023012353EAD27264
:104390002ED10A1A534243EB02034445D4BF0023F3
:1043A00003F00103002B23D109FB014115F8014B58
:1043B000012233195B7813F0040FE0D113F00303EB
:1043C00006D0012B14BF57233723E41AA742D9DCA8
:1043D000B2F1FF3F1BD00846BBF1000F10D1029B8A
:1043E0001BB152B90299C1F800C005B0BDE8F08F09
:1043F0004FF0FF3215F8014BDBE705F1FF3CF1E729
:104400004842ECE715F8014B4FF0010B8AE703999E
:10441000BBF1000F0CBF6FF000404FF000402223B3
:104420000B60DCE72A78A2F17800414241EB000101
:10443000582A14BF0A4641F00102002A3FF47EAF19
:1044400010276C78B94602357EE70827B9467BE726
:1044500030B440F24C14C2F200040D46134601463B
:104460002A46206830BC41E710F0030F034670B4C1
:10447000C9B211D0002A22D003788B421DD0013A54
:10448000013005E0DAB110F8014B013A8C4218D046
:1044900010F0030F0346F5D1032A14D87AB1187827
:1044A00088420ED0541E5D1C03E015F8016B8E424D
:1044B00003D0013C2846F8D2002070BC704710465B
:1044C000FBE71846F9E741EA012646EA06461846A0
:1044D00053F8044B86EA0404A4F1013525EA0404E8
:1044E00014F0803F03D1043A1846032AEFD803465C
:1044F000D4E700BF032A70B404460D4626D941EA2A
:10450000000313F0030F13D020782B78984208BFD4
:10451000294606D01EE014F8010F11F8013F984219
:1045200018D1012A02F1FF32F5D1002070BC70478A
:104530000B46044651F8045B50F8046BAE4204D1BC
:10454000043A0446032A0B46F2D81D461046002AB8
:10455000DAD1EBE7C01AE9E7C9B2F0B4002950D0CC
:1045600010F0030F10D00378002B79D0994246D079
:10457000431C05E013F8012B002A3FD091423ED0A6
:1045800013F0030F1846F5D1036841EA01270646E8
:10459000A3F1013247EA074722EA030212F0803F03
:1045A0001DD187EA0303A3F1013222EA030313F0CA
:1045B000803F14D1043002E012F0803F0FD1064654
:1045C00050F8043BA3F1013587EA030225EA03030F
:1045D000A2F1013413F0803F24EA0202ECD03378D8
:1045E0003046002B3CD0994209D0731C01E0914227
:1045F00005D0184613F8012B002AF8D11046F0BC5C
:10460000704710F0030F0CD00378002BF7D0431C39
:1046100003E013F8012B002AF1D013F0030F184622
:10462000F7D102680346A2F1013121EA020212F039
:10463000803F0AD10430034650F8042BA2F1013127
:1046400021EA020212F0803FF5D01A781846002ABB
:10465000D5D00133184613F8012B002AFAD1CEE742
:104660001846CCE7000000004A1E08BF7047C0F0A3
:104670002481884240F21681114200F01781B0FA7D
:1046800080F3B1FA81F2A2EB0303C3F11F0304A28A
:1046900002EB03134FF000029F4600BFAFF3008010
:1046A000B0EBC17F00BF42EB020228BFA0EBC1709C
:1046B000B0EB817F00BF42EB020228BFA0EB81700C
:1046C000B0EB417F00BF42EB020228BFA0EB41707C
:1046D000B0EB017F00BF42EB020228BFA0EB0170EC
:1046E000B0EBC16F00BF42EB020228BFA0EBC1607C
:1046F000B0EB816F00BF42EB020228BFA0EB8160EC
:10470000B0EB416F00BF42EB020228BFA0EB41605B
:10471000B0EB016F00BF42EB020228BFA0EB0160CB
:10472000B0EBC15F00BF42EB020228BFA0EBC1505B
:10473000B0EB815F00BF42EB020228BFA0EB8150CB
:10474000B0EB415F00BF42EB020228BFA0EB41503B
:10475000B0EB015F00BF42EB020228BFA0EB0150AB
:10476000B0EBC14F00BF42EB020228BFA0EBC1403B
:10477000B0EB814F00BF42EB020228BFA0EB8140AB
:10478000B0EB414F00BF42EB020228BFA0EB41401B
:10479000B0EB014F00BF42EB020228BFA0EB01408B
:1047A000B0EBC13F00BF42EB020228BFA0EBC1301B
:1047B000B0EB813F00BF42EB020228BFA0EB81308B
:1047C000B0EB413F00BF42EB020228BFA0EB4130FB
:1047D000B0EB013F00BF42EB020228BFA0EB01306B
:1047E000B0EBC12F00BF42EB020228BFA0EBC120FB
:1047F000B0EB812F00BF42EB020228BFA0EB81206B
:10480000B0EB412F00BF42EB020228BFA0EB4120DA
:10481000B0EB012F00BF42EB020228BFA0EB01204A
:10482000B0EBC11F00BF42EB020228BFA0EBC110DA
:10483000B0EB811F00BF42EB020228BFA0EB81104A
:10484000B0EB411F00BF42EB020228BFA0EB4110BA
:10485000B0EB011F00BF42EB020228BFA0EB01102A
:10486000B0EBC10F00BF42EB020228BFA0EBC100BA
:10487000B0EB810F00BF42EB020228BFA0EB81002A
:10488000B0EB410F00BF42EB020228BFA0EB41009A
:10489000B0EB010F00BF42EB020228BFA0EB01000A
:1048A000104670470CBF012000207047B1FA81F21A
:1048B000C2F11F0220FA02F0704708B14FF0FF303A
:1048C00000F00EB80029F8D02DE90340FFF7CCFE28
:1048D000BDE8064002FB00F3A1EB0301704700BFF7
:1048E000704700BF1B5B33326D4952696E203E1B1F
:1048F0005B306D20000000001B5B44201B5B44000C
:104900000A0D00001B5B2564430000001B5B25644F
:10491000440000001B5B2564441B5B2564430000CE
:104920001B5B4B0000000000200000004552524F6E
:10493000523A746F6B656E7320746F6F206D756380
:10494000680A0D0010000000030000004D00000088
:10495000737464696F2E633A20696E637265617364
:1049600065204D41585F535452494E475F53495A51
:10497000450A0D0068656C7000000000636C65619D
:104980007200000073686F775F636E740000000050
:10499000636C725F636E7400737461727400000004
:1049A00073746F70000000007072696E7400000014
:1049B0007365740055736520544142206B657920FE
:1049C000666F7220636F6D706C6574696F6E0A0D2F
:1049D000436F6D6D616E643A0A0D000009636C658A
:1049E0006172202020202020202020202020202034
:1049F000202D20636C6561722073637265656E0A99
:104A00000D0000000973686F775F636E74202020CB
:104A10002D2053686F7720434E542076616C756566
:104A20000A0D000009636C725F636E742020202001
:104A30002D20436C65617220434E542076616C7565
:104A4000650A0D006D6963726F726C20760000005C
:104A5000312E3200206C6962726172792053544D9C
:104A60003332207600000000312E30000A0D0000A5
:104A70001B5B324A000000001B5B480053746172EC
:104A800074202E2E2E0A0D004572726F723A204944
:104A90006E646578203E204D6178496E746572764B
:104AA000616C730A0D0000005B253033645D205695
:104AB000616C75653A2025642C2054696D653A2037
:104AC00025640A0D00000000467265713A202564D5
:104AD0000A0D00004672657175656E6379206F7509
:104AE00074206F662072616E67650A0D0000000019
:104AF0005365744672657175656E6379205B2564D4
:104B00005D0A0D004672657175656E637920766188
:104B10006C7565206E6F7420666F756E640A0D008B
:104B2000636F6D6D616E643A2027000027204E6F21
:104B30007420666F756E642E0A0D00005E4320635C
:104B4000617463686564210A0D0000000020202064
:104B5000202020202020282828282820202020202D
:104B600020202020202020202020202020881010FD
:104B70001010101010101010101010101004040459
:104B80000404040404040410101010101010414117
:104B90004141414101010101010101010101010105
:104BA0000101010101010101101010101010424219
:104BB00042424242020202020202020202020202D5
:104BC0000202020202020202101010102000000075
:104BD00000000000000000000000000000000000D5
:104BE00000000000000000000000000000000000C5
:104BF00000000000000000000000000000000000B5
:104C000000000000000000000000000000000000A4
:104C10000000000000000000000000000000000094
:104C20000000000000000000000000000000000084
:104C30000000000000000000000000000000000074
:104C40000000000000000000000000000000000064
:104C5000E448000830750000007D0000D0840000AA
:104C6000A08C000070940000409C000010A4000084
:104C7000E0AB0000B0B3000080BB000050C30000F8
:104C800020CB0000F0D20000C0DA000090E200006B
:104C900060EA000000366E01000000000000000025
:104CA0000102030406070809C401002000000000F7
:104CB00000000000010000000000000000000000F3
:104CC00000000000000000000000000000000000E4
:104CD00000000000000000000000000000000000D4
:104CE00000000000000000000000000000000000C4
:104CF00000000000000000000000000000000000B4
:104D000000000000000000000000000000000000A3
:104D10000000000000000000000000000000000093
:104D20000000000000000000000000000000000083
:104D30000000000000000000000000000000000073
:104D40000000000000000000000000000000000063
:104D50000000000000000000000000000000000053
:104D60000000000000000000000000000000000043
:104D70000000000000000000000000000000000033
:104D80000000000000000000000000000000000023
:104D90000000000000000000000000005C00002097
:104DA00000000000010203040102030406070809D1
:104DB00002040608744900087C4900088449000878
:104DC0009049000898490008A0490008A84900082F
:084DD000B04900084C4B00083B
:0400000508000000EF
:00000001FF
